:020000040804EE
:1040000003B40148019001BD2187040800000000AD
:10401000FFFFFFFFFFFFFFFFFFFFFFFFFFFFFFFFB0
:10402000FFFFFFFFFFFFFFFFFFFFFFFFFFFFFFFFA0
:104030004150503279C63B75B3C3DCD21DB6064D34
:104040000002000000400408684C000000D000207E
:1040500070470000F8B504464FF04023D3F88420A1
:10406000D106FBD4D3F88430C3F381139C422DD006
:1040700004F0CEFA012C064602D1214600F0DAFB0C
:1040800000F092FE124B4FF00072074620464FF0B0
:1040900040255A66FFF7DCFF621E4FF480639340B1
:1040A0002B676B6E9A0103D4D5F884309B060AD532
:1040B000384600F07DFE022C08D130460021BDE8D4
:1040C000F84000F0B7BBD5F88430EAE7F8BD00BF90
:1040D0000060004007B518B9019104F099FA019900
:1040E000064B1B7843B1064B984205D8012003B01C
:1040F0005DF804EBFFF7AEBF0220F8E738D00020F0
:10410000005A62024FF04023D3F88420D206FBD439
:10411000D3F88400C0F381107047000038B5174B06
:1041200005460C46D3F8203103F00703013B052B6D
:1041300020D8DFE803F0030B130F171B04F062FA1B
:10414000052305B1286004B1237038BD04F090FA4E
:104150000323F6E704F096FA0723F2E704F08EFA59
:104160000223EEE704F04EFA0623EAE704F080FAB1
:104170000423E6E700231846E3E700BF0080004081
:1041800038B5124B05460C46D3F8283103F0070327
:10419000013B032B17D8DFE803F0020E120A04F0EC
:1041A00031FA052305B1286004B1237038BD04F04D
:1041B00069FA0723F6E704F05BFA0323F2E704F059
:1041C0005DFA0223EEE700231846EBE7008000408B
:1041D00073B5134A0D46002106460191D2F880417D
:1041E00004F00304022C13D0032C0CD0012C14D1A6
:1041F00001A8FFF793FF0F230EB1019A326005B1BA
:104200002B7002B070BD04F03DFA07230190F3E774
:1042100004F034FA23460190EEE70B46ECE700BFCA
:1042200000800040002337B501930546144B0C462F
:10423000D3F8203203F00703013B032B1ED8DFE83D
:1042400003F0020E1318002101A8FFF799FF1123B4
:104250000DB1019A2A6004B1237003B030BD04F09F
:1042600011FA07230190F3E704F04EFA0A230190B4
:10427000EEE704F04FFA09230190E9E70023E7E7AE
:104280000080004038B5104B05460C46D3F840314D
:1042900003F00303022B0BD0032B0DD0012B0FD106
:1042A00004F032FA0A2305B1286004B1237038BD46
:1042B00004F030FA0923F6E704F029FA0B23F2E7B9
:1042C00000231846EFE700BF00800040002337B509
:1042D00001930546154B0C46D3F8603203F00703F3
:1042E000013B032B1FD8DFE803F0020E1914002155
:1042F00001A8FFF713FF0F230DB1019A2A6004B143
:10430000237003B030BD002101A8FFF7BBFF1023CD
:10431000F2E704F0B7F907230190EDE704F0AEF9F6
:1043200002230190E8E70023E6E700BF0080004099
:1043300038B5134B05460C46D3F8003203F007039B
:10434000013B032B18D8DFE803F0020A0E1204F039
:10435000DBF90A2305B1286004B1237038BD04F0ED
:10436000D9F90923F6E704F0D2F90B23F2E704F0B8
:1043700069F90E23800AEDE700231846EAE700BF3B
:104380000080004038B5134B05460C46D3F8083280
:1043900003F00703013B032B18D8DFE803F0020A00
:1043A0000E1204F0B1F90A2305B1286004B123709C
:1043B00038BD04F0AFF90923F6E704F0A8F90B23A0
:1043C000F2E704F03FF90E23800AEDE700231846D8
:1043D000EAE700BF0080004038B5104B05460C46A8
:1043E000D3F8403203F00303022B0BD0032B0DD084
:1043F000012B0FD104F088F90A2305B1286004B11C
:10440000237038BD04F086F90923F6E704F07FF93C
:104410000B23F2E700231846EFE700BF00800040BF
:1044200038B5104B05460C46D3F8503203F0030361
:10443000022B12D0032B08D0012B0AD000231846E0
:1044400005B1286004B1237038BD04F060F90B2376
:10445000F6E704F059F90A23F2E704F05BF90923BF
:10446000EEE700BF0080004038B5104B05460C4613
:10447000D3F8603103F00303022B0BD0032B0DD0D4
:10448000012B0FD104F040F90A2305B1286004B1D3
:10449000237038BD04F03EF90923F6E704F037F93C
:1044A0000B23F2E700231846EFE700BF008000402F
:1044B000B0F5207F1FD009D8B0F5007F15D003D804
:1044C00068B1B0F5C07F0AD000200CE0B0F5607F85
:1044D000FAD10B4BD3F88000C0F3011003E0084B76
:1044E000186FC0F3033001307047054BD3F89000CC
:1044F000C0F30460F7E7024B186FC0F38020F2E7C7
:104500000080004038B54FF480320E4B0546002045
:104510009A66FFF7CDFF0C4B68430C4DDC69A8424F
:1045200004EA020441F67132DA635A6822F4401256
:1045300003D9012918BF42F480125A600CB100223D
:10454000DA6338BD0090004000000340005A620268
:1045500008B504F089F80021BDE80840FFF7D2BF94
:10456000430905D0012B0DD0022B094B18BF0023A6
:1045700000F01F0041B103F58053012202FA00F060
:1045800018607047034BF3E703F50053F5E700BFEE
:1045900068800040648000401FB504460020B4F5E8
:1045A000807F029000F0F5806BD8002C00F0D58061
:1045B000203CA3B2602B74D8602C72D8DFE814F0D2
:1045C000CD00D000CD00D000DF00DF00DF00DF0035
:1045D000DF00D000E4007A00FB009A007A00D000EF
:1045E000D000D00071007100710071007100710085
:1045F0007100FB00D000D000D00023010001D000EA
:104600007100710071007100710071007100710022
:1046100071007100710071000501DF00CD00CD0057
:10462000CD00AD007A007A00B5000A018F00C40009
:10463000C40071007100710071007100710071009F
:1046400071007100710071007100710071007100E2
:1046500071007100710071007100710071007100D2
:1046600071007100710071007100710071007100C2
:1046700071007100710071007100710071007100B2
:10468000C900B4F5E06F00F09B8038D8B4F5607FC6
:1046900070D01AD8B4F5007F6CD005D8B4F5C07FBF
:1046A0005BD0029804B010BDB4F5207F58D0B4F5AB
:1046B000407FF6D103F0C6FF02464FF42070FFF7AB
:1046C000F7FEB2FBF0F0400845E0B4F5B06F5BD008
:1046D0000AD8B4F5806F52D0B4F5A06FE1D10021B3
:1046E00002A8FFF79FFDDCE7B4F5C06F63D0B4F517
:1046F000D06FD6D1002102A8FFF71AFED1E7B4F59A
:10470000286F67D016D8B4F5186F5ED00AD8B4F504
:10471000F06F78D0B4F5106FC3D1002102A8FFF775
:1047200031FEBEE7B4F5206FBBD1002102A8FFF730
:10473000CDFDB6E7B4F5306F56D0B2D3B4F5386FCF
:1047400039D0B4F5406FACD1002102A8FFF718FDB5
:10475000A7E703F05DFF0290A3E703F073FFFAE71A
:1047600003F070FF02464FF42070FFF7A1FEB2FB8A
:10477000F0F0F0E703F04CFF02462046F5E7002199
:1047800002A8FFF7CBFC8CE7002102A8FFF720FD71
:1047900087E74FF0E02303901B695B0705D503F023
:1047A00051FF0390039B02937BE70DF1070103A8E0
:1047B000FFF768FDF6E7002102A8FFF763FD70E749
:1047C000002102A8FFF708FE6BE7002102A8FFF70F
:1047D00027FE66E700210E4B0391D3F8703203F0F9
:1047E0000303012BDED1E2E7094BD3F8903203F04B
:1047F0000303012B04D0022BADD103F043FFAAE742
:1048000003F03CFFA7E7002102A8FFF72DFE48E7D1
:104810000080004008B58020FFF7BEFE034B9842A1
:104820009EBF034B4FF480321A6708BD005A6202E4
:1048300000A000400029CCBF01210021FFF762BE8B
:10484000B0F5207F10B50C4642D008D8B0F5007FF7
:1048500033D003D888B1B0F5C07F0ED010BDB0F50D
:10486000607FFBD11F4B013CD3F8801021F0300159
:1048700041EA0414C3F88040F0E7FFF769FE013C09
:1048800000F034F8174B184A4FF480311167196F54
:1048900021F4704141EA04341C6703F0D3FE04465E
:1048A000FFF730FCC0F102012046FFF7C3FF00F024
:1048B00023F8BDE81040FFF7ADBF0A4B013CD3F829
:1048C000901021F0F85141EA0464C3F89040C5E724
:1048D000044B013C196F21F4806141EA84241C6778
:1048E000BCE700BF008000400090004002214FF470
:1048F0002070FFF7A5BF000008B54FF4C070FFF7A8
:104900004BFE0549BDE8084088428CBF02210121C9
:104910004FF42070FFF794BF80F0FA02B0F5807F6B
:10492000F8B50C4600F04E8174D8582866D838285F
:1049300004D8243883B2092B46D9F8BD39381F284A
:10494000FBD801A353F820F0374C04083B49040876
:104950003B4904083B490408574C0408B74C040879
:104960003B4904083B4904083B4904083B49040807
:104970003B4904083B4904083B4904083B490408F7
:104980003B4904083B4904083B4904083B490408E7
:104990003B490408D74C0408414A04083B49040831
:1049A0003B4904083B490408BB4A04083B49040846
:1049B0003B4904083D4D04085D4D0408974C04082C
:1049C000F74A0408F74A04080928B6D801A353F89F
:1049D00020F000BF414A0408414A0408414A040843
:1049E000414A0408414A04083B490408A54B04080D
:1049F0003B490408374C0408794A040880289CD1B4
:104A00008B1E062B00F2CB80DFE803F0C6B4C9850D
:104A1000C9C9C300B0F5086F00F02D813CD8B0F5CE
:104A2000C06F00F008811BD8B0F5A06F00F0338193
:104A3000B0F5B06F00F0B680B0F5806F7FF47DAF59
:104A4000023CAD4AE4B2052C96BFAC4B0021195D87
:104A5000D2F8203123F007030B43C2F820316CE772
:104A6000B0F5E06F00F02781B0F5F06F00F0F38053
:104A7000B0F5D06F7FF461AF093C9F4AE4B2052CDA
:104A800096BF9F4B0021195DD2F8003223F0070337
:104A90000B43C2F8003250E7B0F5286F00F05E819A
:104AA0001BD8B0F5186F00F01681B0F5206F00F03C
:104AB0004581B0F5106F7FF440AF093C8E4AE4B2F7
:104AC000052C96BF8F4B0021195DD2F8083223F0D8
:104AD00007030B43C2F808322FE7B0F5306F00F040
:104AE0004E81FFF42AAFB0F5386F00F0A480B0F526
:104AF000406F7FF422AF023C7F4AE4B2052C96BFA0
:104B0000814B0021195DD2F8283123F007030B43B4
:104B1000C2F8283111E70025022601210220FFF703
:104B200099FA4FF48037FFF713FDFFF7DFFE724A63
:104B3000764B1F67136F23F007033343136703F0AC
:104B400081FD0646FFF7DEFAC0F102013046FFF7AD
:104B500071FE01210020FFF7BDFAFFF7CDFEFFF740
:104B600059FE002D7FF4E9AE032C7FF4E6AE684BCE
:104B70009F62E2E6654B4FF4801203265A664FF4BB
:104B80008032644B9D6A03F58053C5F300659A62D9
:104B9000C3E700250426C0E700250126BDE7002560
:104BA0002E46BAE7023C544AE4B20D2C96BF5A4B4B
:104BB0000021195DD2F8803123F003030B43C2F8C2
:104BC0008031BAE60C2920D01BD8A1F10904022CAF
:104BD0003FF6B3AE484B4FF480325049586E03F560
:104BE00080535A664B6A43F001034B62C1035CBFBA
:104BF0004B4B5A664FF0E022136923F00403136114
:104C00009BE610297FF499AEE4E73B4B4FF48032EA
:104C10004249586E03F580535A664B6A23F00103EC
:104C20004B62C3035CBF3E4B5A664FF0E0221369F0
:104C300043F00403E3E7093C2F4AE4B2022C96BF99
:104C4000384B0021195DD2F8403123F003030B43A8
:104C5000C2F8403171E6093C274AE4B2022C96BF03
:104C6000314B0021195DD2F8603123F003030B436F
:104C7000C2F8603161E6CC1E1F4AE4B2062C96BF32
:104C80002A4B0021195DD2F8003123F003030B43B6
:104C9000C2F8003151E6073C174AE4B20A2C96BF2D
:104CA000234B0021195DD2F8203223F007030B4378
:104CB000C2F8203241E6093C0F4AE4B2022C96BF0A
:104CC0001C4B0021195DD2F8403223F003030B4343
:104CD000C2F8403231E6093C074AE4B2022C96BFE2
:104CE000154B0021195DD2F8503223F003030B431A
:104CF000C2F8503221E600BF008000402889040835
:104D00003189040831890408498904080090004069
:104D10000060004A0040004A1A89040800C00740A9
:104D200000A000402E8904082E8904083789040851
:104D30003E8904082E8904082E890408023C184A7A
:104D4000E4B20E2C96BF174B0021195DD2F86032E9
:104D500023F007030B43C2F86032EEE5102C0CD0B1
:104D6000142C14BF002102210D4AD2F8703223F016
:104D700003030B43C2F87032DFE50121F4E7022997
:104D80000CD0072914BF00210221054AD2F8903225
:104D900023F003030B43C2F89032CEE50121F4E780
:104DA000008000404F890408EFF3108072B670470E
:104DB00000B962B6704770B505460E461446FFF757
:104DC000F3FF296881EA040202EA06044C402C60E1
:104DD000BDE87040FFF7ECBF072AF7B501F0030606
:104DE00014461F464FF003012CD89500A94000FA45
:104DF00005F21C480191FFF7DEFF06FA05F2019962
:104E00001948FFF7D8FF194B19499DF82000002FCA
:104E100008BF1946012303FA04F4164B0C60164927
:104E2000002808BF0B469DF8240010311C60134B6E
:104E3000C3F82044A3F6DC33002808BF0B461C60EF
:104E400003B0F0BDA2F10805AD00A94000FA05F2DB
:104E50000B480191FFF7AFFF06FA05F201990948E7
:104E6000CFE700BF00C4034008C4034010E4034080
:104E700010D4034014D4034014E4034000E0034082
:104E800004C403400CC403402DE9F04105460F461D
:104E90001E4690464AB101231A4C30228B4002FB39
:104EA000004446B304F582542360072F4FF03003CB
:104EB0004FF00F01144888BFA7F1080405FB03F366
:104EC00095BFBC00A40004330C3308FA04F2A140DF
:104ED0001844FFF770FFB8F1000F0AD10121094A09
:104EE000302001FA07F700FB05223EB102F582529D
:104EF0001760BDE8F08104F50154D5E702F50152D1
:104F0000F6E700BF00C0034030C0034008B500E032
:104F100000BF00E000BF08BD81EA1021034B33F859
:104F2000113083EA002080B2704700BF5E89040818
:104F3000024601444FF6FF7010B5074C8A4200D17B
:104F400010BD12F8013B83EA102334F8133083EAD2
:104F5000002398B2F2E700BF5E8904080023C0E98D
:104F60000033836070470068704703683BB9016095
:104F7000002341600B60836801338360704743689E
:104F80001960F5E703680B604368016003B941608D
:104F90008368013383607047036843B18268013AD4
:104FA00082601A68026002B9426000221A601846E4
:104FB000704703461A461B6873B18B42FAD10B68DF
:104FC00013608368013B836043688B4204D1824253
:104FD0000ABF00234260436008467047006800B97A
:104FE00070478842FAD101207047401AC00F7047BD
:104FF0002DE9F0410C4F06460C463B689B689847EC
:10500000054620B940F2FF18013C444502D128462C
:10501000BDE8F0813B68214630469B6898470028F0
:10502000F2D00546F3E700BF3CD000202DE9F84F51
:10503000374B40F20E21DFF81CB118603548FFF7FE
:10504000D7FF354B4FF40271DFF80CA118603348DD
:10505000FFF7CEFFDFF8049140F20E21CBF80000FD
:105060002F48FFF7C5FFDFF8F88040F20121CAF8AA
:1050700000002C48FFF7BCFF2B4F4FF40071C9F81C
:1050800000002A48FFF7B4FF294E40F20321C8F878
:1050900000002848FFF7ACFF274D4FF4007138603F
:1050A0002648FFF7A5FF264C40F202213060254834
:1050B000FFF79EFF4FF4007128602348FFF798FF29
:1050C0004FF4007120602148FFF792FF124B204AF5
:1050D0001B681060B3B1DBF800309BB1DAF8003028
:1050E00083B1D9F800306BB1D8F8003053B13B68C8
:1050F00043B1336833B12B6823B130B12368003B2F
:1051000018BF01231846BDE8F88F0346FAE700BF31
:105110003CD0002061F1030040D0002076D6CE7450
:1051200065C1F902D51BDB7744D000204DC21300C6
:105130005CD0002015FF4E014CD00020AFD6137775
:1051400048D0002038230F00493BFD01B70B086E03
:1051500050D0002054D0002058D0002060D0002033
:1051600064D0002000230160027143717047F0B5E4
:1051700004794379E21A12F0FF0223D0022A01D8FF
:105180000120F0BD0268D518D75C95F801C09D1CC0
:105190001CF0800FEDB20CF07F06457105D0555D17
:1051A000033307EB05274371BFB24379E41AE4B236
:1051B000A642E5D81A4433448F808E710A60437149
:1051C0000020DEE70220DCE70189084A70B452F8CB
:1051D00031404CB102EBC10500262346AD8842F8B0
:1051E0003160058170BC184770BC704778D00020D2
:1051F00038B50F4D2C78CCB90E48FFF7AFFE0E4BEB
:10520000214680221C700D4C0D4803F07EFB236864
:105210000C481B6898470C4B0C481B68DB6D984783
:1052200023680B485B68984701232B70002038BD2A
:1052300068D000206CD0002069D0002040D0002031
:1052400078D000209D53040854D0002065530408F2
:10525000C951040838B51A4B04461B784BB3836810
:105260004BB3027B032A28D8038A01339BB2B3F5E0
:10527000807F22D8C38901339BB2B3F5807F1CD8CD
:10528000023A012A01D94369BBB90E4D2B68DB688C
:10529000984721460C48FFF7A1FE20B9207121460E
:1052A0000948FFF762FE2B681B6998470020607170
:1052B00038BD0620FCE70420FAE70320F8E700BF2A
:1052C00068D0002060D000206CD000200F4B1B78ED
:1052D00070B50446BBB90E4D2B68DB689847214674
:1052E0000C48FFF766FE844208D063790BB100F0EA
:1052F000ADF818220021204603F007FB2B68BDE81B
:1053000070401B6918470123037170BD69D00020EC
:1053100060D000206CD0002070B50F4E0F48FFF712
:1053200022FE3368DB6898470D4B00220B481A7049
:10533000FFF719FE044624B93368BDE870401B69C5
:1053400018472046FFF70FFE2379054613B1204684
:10535000FFF7BCFF2C46EEE760D000206CD00020A9
:1053600069D0002038B505460B48FFF7FCFD044620
:1053700018B9FFF7D1FF204608E0237B023B012B41
:1053800001D92046F1E763690BB9012038BD2846F1
:1053900098470028F5D0F8E76CD00020F8B5012533
:1053A00006462848FFF7DFFD2F46274B04461D70B1
:1053B0001CB9FFF7B1FF2846F8BD237B70695BB9C4
:1053C000431C04D000F07F43B3F1004F08D12046C6
:1053D000FFF7C9FD0446EBE7012B16D10130F6D1EA
:1053E000B4F90E30591C22D1B4F910305A1C03D034
:1053F000B27CDBB29A42EAD1A36831462046984794
:10540000D0B9012D08BF0025E1E7022B00F07F4253
:1054100009D1B2F1004FDAD16369002BE0D098478F
:105420000028DDD1D3E7B2F1004FF5D0D8E7727C88
:10543000DBB29A42CBD1D7E7022804BF0546677199
:10544000C5E700BF6CD0002069D000200D4810B522
:10545000FFF789FD0C4B01221A7050B90124FFF7A8
:105460005BFF6CB1094B01201B68BDE81040DB6994
:105470001847437913B9FFF776FDEEE70024EEE70E
:1054800010BD00BF6CD0002069D0002040D00020AB
:1054900008B543791BB100234371FFF7D7FF002004
:1054A00008BD0000264B1B78F7B504460E46002BBE
:1054B0003AD0A9B9C37B23F00103C3734FF6FF733E
:1054C000A38120461F4B1B689B699847054678BB04
:1054D0001D4B01A81B685B699847284603B0F0BDC7
:1054E0001A4A00204FF0FF3311461568A5B9B3F1F1
:1054F000FF3F08BF0346013008321028F5D15A1C7F
:1055000014D041F8336001EBC301A2898A80E27BA9
:1055100042F00102E273D3E7B542ECD19788A58946
:10552000AF42E8D10825D8E70C25D6E70725D4E710
:10553000002ED2D0A2890021044B43F83210CCE7D0
:1055400068D0002040D0002054D0002078D0002027
:105550002DE9F84F0646884617469B4600254FF032
:1055600001094FF6FF7AECB2444501D3BDE8F88F4C
:10557000230106EB0414F35ABB4201D0534506D174
:105580000A9A594638466368984784F80C90013562
:10559000E9E770B505460E460024E3B2B34200D3F6
:1055A00070BD180105EB03131A7B2AB9197A19B1DA
:1055B0005B681146285A98470134EEE7F0B5204B56
:1055C0000C461546018847F6F6621B6887B006460A
:1055D00091425B6A0FD098472946C3B24FF6FE72DC
:1055E00020460096FFF7B4FF2946204607B0BDE8E5
:1055F000F040FFF7CEBF877898470338F11CC2B25E
:1056000002A8FFF7AFFD2FB929462046FFF7C1FFDB
:1056100007B0F0BD04A902A8FFF7A9FD0138013FBA
:10562000C0B2FFB20128EFD9049B2946BDF814206F
:10563000204600939DF81630FFF78AFFE3E700BF8E
:1056400040D00020F0B50F4F85B006463B680BB147
:10565000DB6898470C4B6D465C683CB1012493E8CD
:105660000700002385E807008DF80C303B680BB17C
:105670001B699847224629463046FFF79FFF05B031
:10568000F0BD00BF60D00020F8D0002038B5074C36
:10569000257845B9064B07481B689B689847064B19
:1056A0005D6001232370002038BD00BF04D10020BD
:1056B00040D0002045560408F8D000201E4B1B782F
:1056C000F0B505469BB00E46002B31D04368002B49
:1056D00030D01A4F3B680BB1DB689847184B5C68B9
:1056E00024BB2868696803C3A868186034803B68D5
:1056F0000BB11B699847B4B9124B0DF106020DF1BD
:10570000050106A81B681B6A984760B9286802ABA8
:105710006968012203C3A86802A9186006A88DF869
:105720001440FFF74BFF20461BB0F0BD0124DEE71D
:105730000424F8E70224F6E704D1002060D000201A
:10574000F8D0002040D0002038B50E4B05461B781D
:105750008BB10D4B1B689B6A9847052804460ED0F9
:1057600001280AD058B94FF6FF72FF212846FFF7EB
:1057700069FF204638BD0424FBE70524F9E702242D
:10578000F7E700BF04D1002040D0002073B5124ECF
:1057900033682BB1DB68CDE900019847DDE90001F2
:1057A0000E4D01242B6884403BB16A68144204D03A
:1057B000CDE900019847DDE90001AB681BB1EA685B
:1057C000144200D09847336823B11B6902B0BDE88A
:1057D0007040184702B070BD60D0002008D1002092
:1057E00010B5084C23785BB9074A084813609360EA
:1057F000074B1B681B6B984708B90123237010BD2A
:105800000020FCE705D1002008D100208D570408B6
:1058100058D00020044B1B781BB1044B1B681B683D
:1058200018470320704700BF05D1002058D0002042
:10583000044B1B781BB1044B1B685B6818470320A3
:10584000704700BF05D1002058D0002008B5044B98
:105850001B689B689847B0FA80F0400908BD00BFFC
:1058600058D00020174B1B7870B504460D463BB34B
:1058700020B329B3144E33680BB1DB689847134B40
:105880001A681AB194420DD04FF0FF32996889B16D
:105890008C420DD07AB1062433680BB11B6998474E
:1058A000204670BD002203EBC20300245D60F3E7D5
:1058B0000122F8E7012243F83240F4E70424EFE73D
:1058C0000324EDE705D1002060D0002008D100209E
:1058D00070B502790446164E33688AB11B68984742
:1058E0003368054601461B692068984708B10020C7
:1058F00070BD3368284621685B69BDE87040184771
:105900005B689847054601462068FFF76EFB002854
:10591000EDD12068074B401B984297BF4FF47A7334
:105920004FF0FF305843C00998BF5843E0E700BF2D
:1059300064D000207B63080002790B7970B50C46B7
:1059400042B173B10C4B09681B6800681B69BDE864
:10595000704018472BB909680068BDE87040FFF730
:1059600044BBFFF7B5FF05462046FFF7B1FF854270
:105970002CBF0020012070BD64D00020174A184BB6
:1059800012681B688A4270B505460C460AD9012286
:10599000DE681B68027198474FF47A716143B04723
:1059A000286070BD00225B6802719847630E09D0C1
:1059B00004F07E434FF47A7224F07E44B3FBF2F39A
:1059C00000EBC310E4014FF47A72B4FBF2F102FB76
:1059D00011440844002CE3D00130E1E71CD1002041
:1059E00064D000202DE9F743DFF800813A4E98F8A3
:1059F0000030E3B9394C2068C8B10430FFF768FFC4
:105A0000A8B92468637C93B9236883B19847336845
:105A100005460BB1DB689847237C23B9637C13B937
:105A20006A1C48D1236033680BB11B6998473368FF
:105A30000BB1DB6898470027294D3C46B94655F81D
:105A4000043C23B16B7B002B3AD045F8049C05370E
:105A50001435142FF3D1DFF88490C9F80040F4B165
:105A60006D46204B271D19682846FFF787FF2946FA
:105A70003846FFF761FF68B3E46897E80300233412
:105A800085E803002846FFF723FF336801462246D6
:105A90009B6815489847D9F8003000221A740023F3
:105AA00088F8003033680BB11B6998474FF0FF301E
:105AB00003B0BDE8F0832946201DFFF75FFFB2E782
:105AC0000CB92C1FC3E7211D2846FFF735FF00281E
:105AD000F7D1BCE72324D5E760D0002020D10020F7
:105AE00028D100201CD10020E559040818D100203D
:105AF00038B50E4D2C78C4B90D4B1B689B6998477F
:105B00004FF47A73B0FBF3F00A23C000B0FBF3F05C
:105B1000084B1860084B1C60084B1C70084B1C603D
:105B20005C619C62DC6301232B7038BD19D10020BD
:105B300064D000201CD1002020D1002018D10020EA
:105B400024D100202DE9F04387B00D46804614464D
:105B500002AF10220021384602F0D7FE294638460F
:105B6000CDF804800494FFF709FF334B93F80090BD
:105B7000B9F1000F5AD004F12302304B9A4257D8A2
:105B8000002C57D02E4E33680BB1DB689847336832
:105B90000BB1DB6898472B4A0023019D1C46114638
:105BA0001068A84225D1142202FB031397E80300D2
:105BB0001A1D82E8030001221A8233680BB11B69A7
:105BC0009847B9F1000F2FD01F4B196811BB1F4B1D
:105BD000012200211E481A70232233689B689847CF
:105BE000002433680BB11B699847204607B0BDE815
:105BF000F08310B9002C08BF144601331432042B73
:105C0000CED12CB101AD0FCD0FC42B682360D4E7EA
:105C1000A146D2E70B684345D9D004313846FFF797
:105C20008BFE0028D3D1DBE70124DAE70324DCE78D
:105C30000424DAE70524D8E719D10020A086010062
:105C400060D0002024D1002020D1002018D10020D5
:105C5000E559040808B500F007FC80F00100C0B267
:105C600008BD0000054A1368B3F5817F10B504D262
:105C700003495C1C09681460C85410BD8CD1002015
:105C800088D10020084A1368812B10B50AD85C1C03
:105C9000064914600968064CC85401462088FFF77D
:105CA0003BF9208010BD00BF80D100207CD10020B6
:105CB00084D10020C02808B508D0DB2802D1FFF726
:105CC000D1FFDD20BDE80840FFF7CCBFDB20FFF7A8
:105CD000C9FFDC20F6E700002DE9F04F0D4685B046
:105CE000044600F065F96B1EB3F5817F04D82544A6
:105CF0003D4F3E4EA54202D105B0BDE8F08F3B7846
:105D000014F8010B93B1DC2808D0DD280CD0002357
:105D10004FF6FF723360364B1A8002E0C020FFF767
:105D2000B1FF00233B70E5E7DB20F8E7C02854D142
:105D30003368002BDED0012BDFF8B49031D05A1F2E
:105D40007B2A46D8DFF8B0B0A3F1020A013BB9F8CC
:105D50000020DBF80000019210F80A10C05C61F32B
:105D60000708009360F30F281FFA88F0FFF7D4F8B4
:105D7000DBF80010009BC95CFFF7CEF8019A824265
:105D800029D100F023F91B4B1B681BB15146DBF8EE
:105D900000009847002333604FF6FF73A9F80030E6
:105DA000A8E703238DF80930C0223368072102A831
:105DB0008DF808208DF80A301B0A8DF80E208DF81A
:105DC0000B30FF238DF80C308DF80D3002F092F976
:105DD000E0E70223E6E70123E4E7DB2801D1012322
:105DE000A0E7FFF74FFF85E774D1002080D10020A6
:105DF00084D1002078D100207CD1002008B500F0AB
:105E0000BDF8012002F0ECF802F068F901F046FE5E
:105E1000BDE8084001F044BE38B5002405460846F8
:105E20000D490C700D490D600D490B6004990D4B27
:105E300019604FF6FF710C4B1C600C4B1C600C4B37
:105E40001980114602F03AF804460A4802F0ACF90B
:105E5000FFF7D4FF204638BD74D1002078D1002050
:105E600088D100207CD100208CD1002080D100205E
:105E700084D10020D95C04082DE9F0410D46044688
:105E8000154FFFF755F804EB050800230646C02020
:105E90003B60FFF7E7FE444516D1F0B2FFF70AFF7B
:105EA000C6F30720FFF706FFC020FFF7DBFE3968C7
:105EB000A9420ED3094B186802F01CF93B681B1A63
:105EC00058425841BDE8F08114F8010BFFF7F2FE8B
:105ED000E1E70020F6E700BF8CD1002088D1002048
:105EE00002F0B6B908B101F0DABD01F0D9BD000089
:105EF000034B00221A604FF6FF72024B1A80704764
:105F000080D1002084D1002010B50A4C237873B1D1
:105F10002378022B06D102F0E7F8002002F060F8A7
:105F2000FFF7E6FF00230448237001F0BAFD4FF0AD
:105F3000FF3010BD91D100203D5F040838B50D4DF4
:105F40002B78ABB90C4C23680BB1DB689847012068
:105F500002F046F802F0C2F802232B7023680BB15E
:105F60001B69984701F0AEFDBDE8384000F02CBB3E
:105F700038BD00BF91D1002060D0002070B5094C21
:105F800023680BB1DB689847074B00251D7001F0B3
:105F900099FD064B1D7023681BB11B69BDE870405D
:105FA000184770BD60D0002091D1002090D1002012
:105FB000044B1B7823B1642203481146FFF7C2BD8E
:105FC000704700BF90D10020095F0408044B1B7884
:105FD00023B1642200210348FFF7B4BD704700BF1E
:105FE00090D10020095F040870B5CB1E8278054669
:105FF0000E469A4201D0002070BD002000F06CFBDC
:1060000004460028F7D00A4B1B685B6898470023BA
:1060100032462946606004F11000C4E9023302F000
:1060200067FC044B20461B6898470120E4E700BF4B
:1060300064D0002094D100200C4B07B518600C4BA5
:106040000C4800930C4BFFF7E7FE0C4B0C4A1A6010
:106050000C4A5A600C4A1A610C4A5A610C4A9A60FE
:106060000C4ADA6003B05DF804FB00BF94D1002055
:1060700098D10020E95F04081AD2002028D300201C
:10608000AD610408795E0408E55E0408E15E040879
:10609000E561040861610408024B1868003818BF04
:1060A000012070471CD30020044A054B92681B69ED
:1060B00012B9044A106800B10120184748D30020E3
:1060C00028D300201CD3002038B5044610B9012580
:1060D000284638BD836800F1100503B19847A17CBC
:1060E0002846064B03315B68984705460028EFD0E9
:1060F000E368002BEBD020469847E9E728D300203F
:1061000038B504460078842819D1124C23681BB98D
:106110001148FEF741FF20602568B5B10F4B1B7891
:106120006B7400F049FAE8742068FFF7CDFF05466C
:1061300058B921680848FEF725FF256005E000F002
:1061400035FB10B1E378012BDFD0BDE83840FFF715
:10615000ABBF00BF1CD3002048D3002024D30020B5
:10616000F8B50446007C00F021FB0546C0B10D4F98
:106170003868A8B10C4E627C33789A420CD1037C0B
:10618000227C43F080039A4206D100F0BFFA00233C
:106190003B6033780133337004F11000FFF7B0FF38
:1061A0002846F8BD1CD3002024D3002010B50B4C8A
:1061B00023681BB90A48FEF7EFFE2060206858B13B
:1061C000FFF782FF40B120681030FFF799FF206889
:1061D00000F09CFA0023236010BD00BF20D30020F4
:1061E00054D300207047000038B50E4B04460D46CE
:1061F0001B685B689847237C032B0FD1A37F6168E2
:1062000003F00303D4F81F20401A35F8133010446C
:10621000B3EBD01F34BF0120002038BD102BEDD0D0
:106220000020FAE764D00020042008B502F0AAFAA2
:106230004FF0FF3008BD000010B504460348FEF7DC
:1062400092FE10B1037CA342F9D110BD48D30020C7
:10625000184B73B51868184B184C9B680190206850
:1062600023B920B941F2883002B070BD40B101A914
:10627000FFF7BAFF20B1206800F048FA002323603E
:106280000D48FEF770FE0C4E0446002CEAD0204666
:10629000FEF769FE01A905462046FFF7A5FF30B1CC
:1062A00021463046FEF785FE204600F02FFA2C46A8
:1062B000EBE700BF008C040848D300201CD300206B
:1062C0000148FFF7E5B800BF00D0002038B5002234
:1062D000244D254B1A602B68DB6898472348FEF74E
:1062E0005BFE2B680446224D1B699847C4B1EB68DE
:1062F0002046984700282FD11E4B1B685B689847A3
:106300006368C01A392827D8207C00F037FA98B182
:10631000204600F0D1FCF8B121461748FEF725FED3
:106320002B689847114B9A68134B9B6813430CBF1B
:106330004FF0FF30002038BD207C00F027FA18B164
:10634000204600F051FEE6E7207C00F027FA18B165
:10635000204600F033FADEE7AB689847204600F0AD
:10636000D5F9DDE760D0002040D3002060D30020C5
:1063700028D3002064D0002054D30020014608B563
:1063800030B10448FEF7F1FDBDE80840FFF78CBED0
:1063900008BD00BF48D3002037B501200D4600F0EE
:1063A0009BF90446D0B169694B1C0DD001F07F43C5
:1063B000B3F1004F08D00A4B01A81B685B699847EE
:1063C000019800F0CEF901462246284600F064FD0F
:1063D0002046FFF7D3FF002003B030BD0220FBE7CB
:1063E00054D00020124B30B51B6897B01B6A0DF1DA
:1063F00006020DF1050102A898473F20FFF71CFF98
:10640000044690B90120012500F066F904462346B0
:10641000BDF8062002A99DF8050001F035FA15B176
:106420002046FFF7ABFF17B030BD0025EFE700BFF8
:1064300040D0002070B54D78ADB10E789EB92220C5
:10644000FFF7FAFE044660B9012000F045F9044662
:10645000204601F035FA35B12046BDE87040FFF71F
:106460008DBF3546F4E770BD70B5334B86B0054639
:106470000E4603AC93E8070084E8070008212F4884
:10648000FFF7F0F92E48FEF7E5FE0DF10601204674
:10649000FFF714F92B4B00201B685B6B98472A48C9
:1064A000FEF75CFD2948FEF759FD2948FEF756FD29
:1064B000284B0DF10A0102A81B685B6D9847264B1B
:1064C000BDF80A201A7001F041FA324629462348E5
:1064D000FFF7B2FD044620B33221214800F0ACF8AA
:1064E000FFF7B4F980B9042002F06AF90DF1050054
:1064F00001F03CFAC0B99DF80530ABB1FFF78AF95D
:1065000010B9042002F03EF901F0A4F9FFF736FFBC
:106510000022144B41F2883113481A606422FFF7BD
:1065200011FB204606B070BD4FF4FA7264210F488B
:10653000FFF708FBE8E700BF048C04083564040893
:1065400000D0002040D0002060D3002048D300209D
:1065500054D3002054D0002044D300200166040806
:10656000C162040840D30020516204082962040873
:106570002DE9FF47054601200E4617469846DDF8EF
:1065800030A09DF8349000F0A7F8044688B150463A
:1065900000F0E7F8434600903A4628463146CDE9F8
:1065A000019400F05DFC204604B0BDE8F047FFF721
:1065B000E5BE04B0BDE8F087024B9868003818BF0C
:1065C0000120704748D3002038B50A4D2B68DB689E
:1065D0009847094B01221C681A602B681B69984771
:1065E0003CB921464FF4FA520448BDE83840FFF761
:1065F000A9BA38BD60D0002040D30020CD62040885
:1066000013B5084C01902368DB6898470199064848
:10661000FEF7ABFC23681B69984702B0BDE8104049
:10662000FFF7D2BF60D0002060D30020014B187864
:10663000704700BF44D300202DE9F8431F4D90263A
:106640001F4C204B641BDFF88880186064231E48B1
:10665000DFF87490B4FBF6F6B71D7943B1FBF3F1A4
:106660001A4B1960FEF77AFC4FF458720021184853
:1066700002F04BF9224600240021284602F045F999
:1066800001344146484608F19008FEF77BFC062C91
:10669000F6D1DFF82880DFF83090BC4206D3902393
:1066A00003FB06550B4B1D60BDE8F8834146484689
:1066B00008F190080134FEF765FCEEE728D90020C8
:1066C000F8FF00207CD300206CD3002078D300207A
:1066D00080D3002030D0002038B50A4D04462B6806
:1066E000DB6898471CB1084B9B68022B08D9064809
:1066F000FEF752FC04462B681B699847204638BDBC
:106700000024F8E760D000206CD3002037B50D4D91
:106710000D4C2B680190DB68984701992046FEF7E5
:1067200031FC2B681B699847084BA2681B689A428A
:1067300006D3074B1B681BB103B0BDE830401847B8
:1067400003B030BD60D000206CD3002078D300208F
:106750007CD30020431C03D0002808BF6FF0010049
:1067600070477047002310B5C45C944204D00133D5
:106770009942F9D8002010BD0120FCE70246032110
:106780000148FFF7EFBF00BF618B040802461921E3
:106790000148FFF7E7BF00BF648B040802460321EE
:1067A0000148FFF7DFBF00BF5E8B040802460921E6
:1067B0000148FFF7D7BF00BF7D8B04082DE9F043E8
:1067C000037C8BB005460E2B07D0162B00F01182F0
:1067D0000D2B00F05581002049E0847C022CFAD179
:1067E000B0F81370BBB203F1FF39B9F1180F00F222
:1067F0004381072B3ED14FF4004001F079F820B3DC
:10680000964B05F1170813F809600023B9F1180F2A
:1068100000F2C580DFE819F031003F00540061004C
:106820008E00B60095009A009C00A200A900B0005E
:10683000BA00C600CA00DC00E000E800C300F000B7
:10684000C300FF000501C3000A01002606238E21B4
:10685000002229740421C5E90222A974002B40F00A
:106860000D817218AE75AA74EB74AF8201200BB063
:10687000BDE8F0834FF40070BFE7794B04A81B68B4
:106880005B6998470446002840F0E1800498FFF7D0
:1068900068FF03900AE0724B05A81B68DB69984704
:1068A0000446002840F0D380059B0393002E00F09F
:1068B000D280324603A94046002402F019F86EE067
:1068C000674B0DF10B001B685B6A98470446002874
:1068D00040F0BD809DF80B30E7E7614B08A81B68CE
:1068E000DB6A984760B99DF82030112B18D00ED87C
:1068F000022B17D006D8BBB1012B18BF002403947C
:10690000044684E0102B14BF00241124F7E7422B27
:106910000CD0522B0CD0122B14BF00241324EEE702
:106920001224ECE70324EAE70124E8E78324E6E7FE
:106930009324E4E74B4B06A81B68DB689847079B4A
:10694000B3E7494B1B68DB689847A2E71323ACE722
:10695000464B1B685B689847000E9AE7434B1B68E1
:106960005B689847C0F3074093E7404B1B685B6840
:106970009847C0F307208CE73C4B1B685B6898473F
:10698000C0B286E7374B1B681B69DDE7344B1B68D9
:10699000DB6B00209847002814BF05240624344BE5
:1069A0001B5D54E72E4B1B685B6BF2E7ADF81830AC
:1069B00008A9ADF8203006A8294B1B685B6D9847E5
:1069C000BDF820309DF818201B029BB213436CE7E2
:1069D000244B1B685B6AB7E7264B082108A81B6895
:1069E0009B6A9847089B60E7224B082108A81B6810
:1069F0009B6A9847099B58E7ADF8203008A8184BC8
:106A00001B68DB6C9847BDF8203004460393002CCC
:106A10003FF44CAF1BE0124B03A81B685B68984720
:106A20006EE70F4B00201B68DB68F8E7FFF7FEFD01
:106A3000C61D0B4B4046C6F3C7061B68102E1B6EC7
:106A400028BF10263146984704460028A7D0082CB6
:106A5000A5D90123FBE63446A1E700BF8F8B0408CC
:106A600054D0002040D000204CD000203CD000204A
:106A7000868B040860D000200026EAE7AA75F3E6BA
:106A8000437D827C03339A427FF4A5AEB0F8133085
:106A90005F1E182F4DD8162B11D100F01DFF20B905
:106AA0004FF4807000F024FF58B906230022012023
:106AB000EB74A874C5E902228D222A74D7E6172B3D
:106AC000EED15E4B6E7DDB5D13B1B34240F08F8043
:106AD0000023042E05F11604089304D832462146FB
:106AE00008A801F005FF182F7DD8DFE807F00D1585
:106AF0001A247C7C7C7C7C7C7C7C5D627C7C7C7CC9
:106B00007C667C6D717C75000898FFF723FE4C4B0A
:106B10001B689B6998470AE0494B1B681B6A0898E9
:106B2000F8E7474B9DF820001B689B6A98470828A8
:106B30001ED90123BAE79DF82030132B1DD8132B43
:106B400019D8DFE803F0520A2F2718181818181858
:106B500018181818181818292B2D0020384B1B68E6
:106B60001B6B98470028E2D10190FFF747F9019885
:106B7000344B1B5C9AE7FF20F0E7832B04D8822B71
:106B800034BFFF204220E9E7923B022B34BF522062
:106B9000FF20E3E70220E1E71020DFE71120DDE737
:106BA0001220DBE70120D9E7254B1B681B6C204630
:106BB000B0E7234B1B689B6BF9E7214BBDF8200026
:106BC0001B681B6D9847B2E71D4B1B689B68A6E7C7
:106BD0001B4B1B681B69EAE7194B314620461B68B3
:106BE0005B6E9847A3E70220C2E704235EE7032316
:106BF0005CE7837C042B7FF4EEAD4FF4805000F013
:106C000077FEA8B1D5F813200F4B9A4212D10C4B46
:106C10001B681B689847044670B900F097FE002374
:106C2000EC74C5E9023396232B740123AB741DE683
:106C30000324F4E70224F2E70124F0E78F8B040831
:106C400054D00020868B0408446F4974034600F03A
:106C500001009A0748BF40F0080013F03C0F18BF2E
:106C600040F004007047000010B5044690B10A4B94
:106C70001B685B689847227C6368032A6060A0EB0E
:106C8000030305D1D4F81F201344C4F81F3001E0DA
:106C9000102AF7D010BD00BF64D00020037B07B5D9
:106CA0000193036800934368C27A817A0089FFF7F1
:106CB0005FFC03B05DF804FB2DE9F047037C88B06E
:106CC00000250446012B00955AD190F81D80827C46
:106CD00008F10B039A424FD1B0F81360007FFFF721
:106CE000B5FF0746D4F81600FFF734FD237F07955C
:106CF000B4F813E0C3F3830394F81BC0617DA27E54
:106D0000CDE9055504F11E050390ADF810E08DF8AE
:106D100012C08DF813708DF814108DF815208DF8B1
:106D20001630CDE90158012000F0E2FD002800F006
:106D30008E80029B662B00F28C809DF8133001A898
:106D4000454913F0010F08BF0021FEF7ABFB0546D4
:106D5000424B68461B685B699847237C0022657537
:106D600083F080030125A4F8136023740423A37423
:106D7000009BC4E90222A375284608B0BDE8F0874D
:106D80001F2B1FD190F82180827C08F10F039A42BB
:106D9000F2D1B0F81360007FFFF758FF0746D4F830
:106DA0001600FFF7D7FC237F0795B4F813E0C3F371
:106DB000830394F81BC0617DA27ECDE9055504F1E3
:106DC0002205A1E70F2BD7D190F82580827C08F10E
:106DD00013039A42D0D1B0F81360007FFFF736FF5B
:106DE0000546D4F81600B4F82370FFF7B3FC94F806
:106DF000223045F0200594F8212003F00F03217F75
:106E0000B4F813A042EA032204F1260394F81B907D
:106E1000C1F3830194F815E094F81AC00390ADF81B
:106E200010A08DF812908DF813508DF814E08DF8A5
:106E300015C08DF81610ADF81820CDE90138C7F34C
:106E40000B03ADF81A30FB0B8DF81C306BE70A25ED
:106E50007EE706257CE700BF9D6C040840D000203B
:106E600030B5059C34B10025C4E9025502252574CE
:106E70000E25A574E36100259DF81030A08283F0F3
:106E8000010303986560C4F81700E276E574A17504
:106E900084F8203030BD0000F8B5C37C1446456A44
:106EA0003F2B28BF3F231A46037C03F0030343EA2A
:106EB00082034268DBB2D6B2002D35D03CB1002748
:106EC000C4E902771027277406F11507A774477CD9
:106ED00027768768C4F819106761817CA37761778A
:106EE000C36884F82760C4F81F300023E3746B88FC
:106EF0002979C3F30B03A4F8253029B16FEA434382
:106F00006FEA5343A4F825302B88016804F1280068
:106F1000A4F8233001F0ECFC114B1B685B68984728
:106F2000104B6060A360F8BD34B1C4E9025503257D
:106F3000257406F11105A574457C25768568C4F88D
:106F400019106561817CA3776177C36884F8236039
:106F5000C4F81F300023E374016804F12400D9E76A
:106F600064D00020696C0408034600F001009A0711
:106F700048BF40F00400590748BF40F002001A071C
:106F800048BF40F00800D90648BF40F010009A06FC
:106F900048BF40F020001B0648BF40F0800070470B
:106FA000044B1B6810B504465B689847C4F817008B
:106FB00010BD00BF64D0002008B5034B5B69984743
:106FC000BDE80840FEF734BC28D3002038B505469C
:106FD00040B1FFF7F1FA0446FFF75EF8002818BF4A
:106FE0000124EC7438BD00002DE9F04F037CA5B0FE
:106FF0000446043B372B3CD8DFE813F01602380078
:1070000063003B003B003B003B00C801E9003B0044
:107010003B003B003B003B003B003B003B003B0098
:107020003B00220243026C02C002EE0253033B000B
:107030003B003B005F03B5033B00CC033B003B0040
:107040000903210346033B003B003B003B003B00A0
:107050003B003B003B003B003B003B003B003B0058
:107060003B003B00E30302048000BE00837C012B55
:1070700001D000253CE0042000F03AFCF8B1E07CAF
:10708000003818BF012000F07DFC0028F1D1FEF788
:10709000C1FB064658B9042001F074FB0023C4E983
:1070A0000233852301252374E674A57420E09D4BEB
:1070B0001B689B689847FFF757FF0646EEE7802658
:1070C000ECE7857C002DD4D1082000F011FC98B1AC
:1070D000284600F057FC0028CBD100230125E0749E
:1070E000A574C4E902338623237408B98E4BE36088
:1070F000284625B0BDE8F08F8020EEE7837C532B37
:10710000B7D1102000F0F4FB002833D0874E02AA3C
:107110000DF1060104A833681B6A98470546A08A4A
:10712000E5B9BDF80830984218D1502204F1160193
:1071300004A801F0CDFB40B104F11600FEF704FBFA
:1071400018B1052814BF0420012000220125E07495
:10715000A574C4E90222BA222274C9E73368DB6A43
:107160009847042806D8724B185C0028EDD1002DF2
:10717000DBD0E1E70420E8E7837C002B7FF479AFE4
:107180002020ADF810308DF8083000F0B1FBE0B1F0
:10719000664B04AA02A904F117001B681B6A9847F2
:1071A0000023C4E90233BB2323745423A374BDF822
:1071B0001030A4F815309DF80830237518B1022856
:1071C00014BF02200120E07441E00520E8E7857C3F
:1071D000022D7FF44EAFB0F813801FFA88F707F145
:1071E000FF3ABAF10D0F00F2CD8027F002030C2B0D
:1071F0002FD14FF4004000F07BFB90B14D4B04F1D8
:10720000170913F80A600023BAF10D0F00F2B780D6
:10721000DFE80AF028384EB5B555605E7498A0A432
:10722000A6AA002606238C21002221740421C4E989
:107230000222A174002B40F0A7807218082FA675B7
:10724000A27401D13C4AA260E374A4F81480012521
:107250004EE7042F01D0072F02D14FF40010CAE7E8
:107260008020C8E72F4B1B689B689847FFF77CFE80
:107270000290042E04D8324602A9484601F038FB99
:1072800000257CE0DFF8A4A004A80493DAF800301D
:107290005B699847DAF8003005461B699847049BFC
:1072A000C01A0290002DE4D0082D68D90123BAE756
:1072B0001E4B1B685B6902A898470546F2E71F4B07
:1072C000042102A81B685B689847029B03F0010336
:1072D0000293CEE7134D02932B689B6898470028D2
:1072E0004CD12B6804A85B6A984705460028DBD17F
:1072F0009DF81030022BBCD10123E9E7ADF8063030
:10730000ADF810300E4B1B685B6C04A90DF1060044
:107310009847BDF81020BDF80630054603EB024340
:107320000293BFE758D00020B96F040840D0002076
:10733000A88B0408C38B0408A16F04085CD000204C
:1073400054D00020ADF80630ADF810309A4B1B68D1
:107350009B6DDAE7994B1B68DB68ACE77023B7E7F6
:10736000484600F081FBA8E7954B1B685B6898478F
:10737000029000287FF47DAF052500E00725914BA2
:107380005B5D50E7002691E7A2755DE7437D827C57
:1073900003339A427FF46DAEB0F813506E1E0D2E7B
:1073A0003CD8402000F0A4FA002839D0864B627DFA
:1073B0009B5D9A4236D10023042A04F116060493F9
:1073C00003D8314604A801F093FA092D16D00D2DEB
:1073D0001CD0062D1ED1049801281DD800F00100F4
:1073E00000F0D0FA082819D8764B1B5C0022C4E9BB
:1073F00002228B2201252274A57465E06E4B04984D
:107400001B68010C9B6C80B29847EBE7304600F09C
:1074100015FBE7E70220E7E70320E5E70123E5E7BF
:107420000623E3E70323E1E7837C002B7FF421AE0F
:10743000C360842301250374644B8574836057E61D
:10744000837C052B7FF415AE4FF4005000F050FA0A
:1074500098B15A4B1B689B68984780B1584BE17DA7
:107460001B68D4F813001B6C9847031E18BF022337
:107470000022C4E902229722BCE70423F8E7012393
:10748000F6E7C37D827C05339A427FF4F2AD4B4B25
:10749000467C1B689B689847C0B1494B04F11802B1
:1074A000E17D1B68D4F813005B6C98470138C0B2CB
:1074B00006280DD8464B1B5C002201256674A57476
:1074C000C4E9022298222274E37411E60323F3E74D
:1074D0000023F1E7837C002B7FF4CBAD1826C0E9B5
:1074E00002339923867403744FF4004000F000FACD
:1074F000054600283BD0324E33685B6898473368B6
:10750000C4F813001B6998473368A4F81700DB68B8
:107510009847336860765B6998473368A0769B69C3
:1075200098473368E076DB6998473368E0615B6AC7
:107530009847336820841B6A9847336884F8220090
:107540009B6A9847234BC4F823001B685B689847E5
:10755000C0F3076384F82A0084F82730C0F3074398
:1075600084F82830C0F3072384F82930C0E50146A9
:10757000324604F1130001F0C8F968E6837C002B61
:107580007FF477AD4FF4005000F0B2F980B10B4BAF
:107590001B689B68984768B1094B1B689B6C9847B0
:1075A000031E18BF02230022C4E902229A2221E707
:1075B0000323F8E70123F6E754D0002058D0002039
:1075C0004CD00020AD8B0408C38B0408CD6F040899
:1075D000B68B04083CD00020867C002E7FF449AD99
:1075E0004FF4005000F084F968B1974B1B689B681A
:1075F000984750B1954B1B68DB6B98470023C4E953
:1076000002339B234EE50226F8E70126F6E7837C4A
:10761000052B7FF42EAD8D4B827D1B68818ADD6C3E
:10762000C37DC07CA84705284FF0000294BF884B5B
:107630000323C4E9022298BF1B5CA622DAE6837CFE
:10764000002B7FF416AD814B0DF1060204A90DF15C
:1076500005001B681D6D02ABA84700287FF409AD2B
:10766000A7232374062363829DF805302375BDF894
:107670001030A4F815309DF80630E3759DF80830F9
:10768000C4E902002376E2E5837C052B7FF4F1ACAC
:107690000023C0E90233A823037440F2015363823C
:1076A000D5E5837C042B7FF4E4AC0023C0E90233EE
:1076B0009C23037440F20143F1E7867C002E7FF4A3
:1076C000D8ACA02300F11408682231460374692362
:1076D000C0E902668374404601F017F94FF40010C8
:1076E00000F006F9054600283FF4B1AD082304AFC9
:1076F00002A80293544B03971B685B69984780BBB1
:1077000046468046029B9845BFF4DEAE3868FFF7D8
:1077100028F8BB7A97F809E097F80890BA8897F8A4
:1077200006B097F907A097F90C1097F90BC013B1A1
:10773000012B18BF02233060103786F804B008F11F
:10774000010886F805A00D3606F8079C06F806EC39
:1077500006F8053C06F804CC06F8031C26F8022CB3
:10776000D0E7E67485E4837C002B7FF482AC4FF491
:10777000800000F0BDF858B1334B1B681B69984777
:10778000031E18BF01230022C4E90222A12231E610
:107790000223F8E7857C002D7FF46BAC2A4B04A80C
:1077A0001B68DB6A9847A323E07423740323A37444
:1077B0009DF8103023759DF81130C4E902556375AA
:1077C00045E5837C012B7FF454AC4FF0007000F052
:1077D0008FF898B11C4BE07C1B681B6A984700230C
:1077E000C4E90233B82323740123A37400283FF4AF
:1077F000EAAC052814BF02201846E4E40820EEE7AE
:10780000837C002B7FF435AC4FF080608DF8103016
:1078100000F06EF8A8B10C4B04A81B68DB69984710
:107820000023C4E90233B92323740223A37418B1DB
:10783000052814BF184601209DF81030E074237508
:1078400005E50820ECE700BF58D000204CD0002010
:10785000BD8B040838B50120FEF73EFF044678B121
:107860000723002503820223C5608374054B1B6830
:10787000C0E901559B689847FFF776FBE5742075D2
:10788000204638BD58D0002070B50E461C46B3B116
:107890000025FF21C3E90155DD603F23A4F8152031
:1078A0005022238254232075A37404F11703184631
:1078B00001F02BF85022314601F01AF8E57470BD42
:1078C00038B10023C0E90133C360024B03610123D7
:1078D000037570472200020008B5044B00201B68A6
:1078E000DB689847B0FA80F0400908BD54D000200A
:1078F00013B50446FFF7F0FF78B14FF0FF3301A84E
:107900000193074B1B685B689847019B34EA0303AC
:107910000CBF0120002002B010BD0120FBE700BF1A
:1079200054D00020024B1F2102481B685B68184797
:107930005CD00020E0D60020024B1F2102481B68CB
:107940001B6818475CD00020E0D6002008B5FFF780
:10795000E9FF054B1A78FF2A05D100221A70BDE80D
:107960000840FFF7E9BF08BDE0D6002010B5044687
:10797000FFF7D8FF024B1B78C3F30003237010BD41
:10798000E0D6002010B50446FFF7CCFF054B1A786F
:1079900064F300021A7018B9BDE81040FFF7CCBFBD
:1079A00010BD00BFE0D6002010B50446FFF7BAFFB7
:1079B000064A234602F11C0152F8044B8A4243F85E
:1079C000044BF9D112881A8010BD00BFE1D6002007
:1079D00010B50446FFF7A6FF084A234604F11C0130
:1079E00053F8044B8B4242F8044BF9D11B881380A7
:1079F00018B9BDE81040FFF79FBF10BDE1D60020C9
:107A000030B58BB0044602A8FFF7CEFF034680B91D
:107A100002AA4FF00041907815880191ADF804500A
:107A20008DF806000198844206D0013303320A2BF8
:107A3000F1D100200BB030BD0120FBE710B588B0BC
:107A4000034600F128016A4610461C8804330332BD
:107A500022F8034C13F8024C8B4202F8014CF4D18B
:107A6000FFF7B6FF08B010BD30B58BB0044602A8D2
:107A7000FFF79AFF80B902AB04F12802997803332B
:107A800033F8035C0190ADF804508DF806100199AD
:107A900044F8041BA242F1D10BB030BD70477047CF
:107AA000704707B59DF8043069460090022023F026
:107AB0000F0343F007038DF8043000F0DFF803B044
:107AC0005DF804FB002307B5009369469DF8043078
:107AD000022023F00F0343F004038DF8043000F07C
:107AE000CDF803B05DF804FB08B5FEF701F8FDF72B
:107AF000CDFDFDF77DFBBDE80840FDF771BE00F050
:107B000037B8000002280CD819B1074B13F8103011
:107B10000B7022B1044B03EB40004378137000203C
:107B200070470320704700BFD48B040837B50A792B
:107B30000DF10601C2F38104621ED2B2022A97BF80
:107B40000A4B002404F001049D5C88BF25460DF11A
:107B50000702FFF7D7FF23462A469DF807109DF836
:107B60000600FDF791F903B030BD00BFD18B0408CA
:107B70002DE9FF413A4D00209DF80C302C7823F080
:107B80000F0302908DF80C30002C5BD10DF1070231
:107B90000DF10601E0B2FFF7B5FF9DF80630002BAE
:107BA00053D0012B54D0022B54D0032B55D13F235B
:107BB0009DF80720D340DB074FD50134032CE5D1D6
:107BC000284C23680BB1DB689847274B4FF0806245
:107BD000264F0026DFF8A0805A66F0B202A9FFF710
:107BE000A5FF029B47F8043B9DF80C30C3F301034B
:107BF0005B0063F0070308F806300136032EECD172
:107C00001B4B40F6FF721B21C3F82424012223687A
:107C100010469E69174BB047012223681A2110466F
:107C20009E69144BB04723681B201B6A9847236842
:107C30001A201B6A984723680BB11B6998470123D8
:107C400000202B7004B0BDE8F08140F2FF73AFE775
:107C50000F23ADE740F2FF33AAE70420F2E700BFAD
:107C600010D7002060D000200090004004D70020F2
:107C700000E00340F17D0408FFD600202DE9FF411C
:107C80003F4B05460F461B78002B75D0022875D850
:107C9000002973D0DFF8F480D8F800300BB1DB682E
:107CA000984739462846FFF741FF3B79354E13F098
:107CB000030F33D1735DDC0843F0F8031F2C7355B9
:107CC00018D00DF10F020DF10E012846FFF71AFF33
:107CD0003B799DF80F1013F003029DF80E0018BFBA
:107CE00001220192C3F3400203F0010300922246F5
:107CF000FDF772F83A68244BD8F8000043F82520C5
:107D00003B79725D5B0022F0070203F00603134328
:107D1000735538B303699847002023E0745DE40885
:107D20001F2CCED10DF10F0200212846FFF7EAFEED
:107D30009DF80F40327804F0FC047178B078D208D6
:107D4000E31CC908C008DBB2A24203D08C4201D0B8
:107D500084420AD10134E4B2A342F5D2D8F800300B
:107D60003BB9062004B0BDE8F081735D64F3C7033E
:107D7000A4E71B699847F4E70120F3E70320F1E744
:107D800010D70020FFD6002004D7002060D00020AC
:107D900037B5154A0C46127802B3022820D8F9B13B
:107DA000124A135C13F001051CD10DF107020DF10D
:107DB0000601FFF7A7FE30229DF806302846534300
:107DC00002F18042143302F570329B589DF807206F
:107DD000D34003F00103237003B030BD0120FBE763
:107DE0000320F9E70520F7E710D70020FFD6002091
:107DF0002DE9F74300241D4E1D4FDFF87C80355DD3
:107E00005FFA84F9ED081F2D1DD0D7F82034EB4020
:107E1000DB0718D50DF107014846FFF7B9FF58F801
:107E2000242052B1335D9DF80710C3F34103032BA7
:107E300015D001290DD1D80714D4012303FA05F573
:107E40000C4BC3F820540134032CD8D103B0BDE847
:107E5000F0830029F1D19B07EFD5022102E001292F
:107E600018BF022148469047E7E700BFFFD6002031
:107E700000C0034000E0034004D7002068460C4BDC
:107E8000042220F00701DB6B8D4601B582B0ADF80E
:107E90000630084BDA64084B1A6822B11B680121CE
:107EA0000DF10600984702B0BDE8014085467047D5
:107EB0000000014B0020014B18D7002070B53C4D4D
:107EC00088B006466C460FCD0FC495E80F0084E8D5
:107ED0000F000023374A384C53801380374A136011
:107EE000374A1370374A1360236813B1DB690B20DC
:107EF0009847236813B11B6A0B209847236813B176
:107F0000DB690C209847236813B11B6A0C20984743
:107F100001215620FCF724FB03214FF44060FCF7BD
:107F2000FDFC11215620FCF7F9FC00236946264888
:107F30008DF80030602302968DF80C3000F05EFB67
:107F4000224BDA6E22F00F02DA661A6F22F4807288
:107F50001A675A6B22F070425A631A6C22F0800240
:107F60001A641022C3F8C424194AC3F8DC244FF45D
:107F7000E022C3F8D424174B174A1A65DA64236841
:107F800013B11B6A0C20984723682BB19C6900220F
:107F9000124B0C210120A04706210B4800F0CEF91E
:107FA00000215620FCF7DCFA012008B070BD00BFAC
:107FB000108C04081ED7002060D0002018D70020A5
:107FC0001CD7002014D700200000014B00C0034044
:107FD000010008000020014BFF3F0D0369800408E9
:107FE00070B51E4D06462B680BB1DB6898471C4CDC
:107FF0002368BEB16BB901215620FCF7B1FA01200C
:1080000000F0DEFB174AD36E23F00F0343F00403A6
:10801000D3662368013323602B68EBB11B69BDE88D
:108020007040184713B12368013B23602468002C7B
:10803000F2D10C4A0120D36E23F00F0343F0020368
:10804000D366136F43F48073136700F09BFB2146E4
:108050005620FCF785FADFE770BD00BF60D0002036
:1080600014D7002000C00340684620F007018D4669
:10807000164931B5164C0120C8642288638892B233
:108080009BB29A4216D0134DAB6C5B0619D5228871
:10809000638892B29BB29A4213D063882846C3F396
:1080A00008032344197900F04EF9638801339BB229
:1080B0006380E9E708650020FFF792FF064B002286
:1080C0001A70BDE831408546704700BF0020014B63
:1080D0001ED700200000014B1CD7002005210148BD
:1080E00000F02CB90000014B0621014800F026B930
:1080F0000000014BF8B5274F06460D463B680BB113
:10810000DB689847244C238862889B1A9BB2C3F58E
:108110000073AB423BD321887019628889B292B256
:1081200086421AD1914212D101201C4EFFF758FF0E
:108130001B4B01221A65B36C5B0605D52288638848
:1081400092B29BB29A4215D1164B01221A703B682B
:108150000BB11B6998472846F8BD238816F801CB58
:10816000C3F30803234483F804C0238801339BB27C
:108170002380D5E763883046C3F308032344197985
:1081800000F0E1F8638801339BB26380D3E70025F8
:10819000DDE700BF60D000201ED700200000014BAB
:1081A0000010014B1CD7002070B5234C05462368F6
:1081B0000BB1DB689847214B012156201D60FCF76D
:1081C000CFF9236835B32BB19D6900221C4B0B21DD
:1081D0000120A8471B4B04221A651B4A536B23F04E
:1081E000704343F000535363136C43F080031364F4
:1081F000164B042200215620DA64FCF7B1F92368FB
:1082000013B11B6A0B2098472368A3B11B69BDE813
:108210007040184713B1DB690B2098470B4B0422C1
:108220001A65094B5A6B22F070425A631A6C22F09D
:1082300080021A64DCE770BD60D0002018D70020EF
:108240007D7E04080010014B00C003400020014B5C
:1082500082B044F62063064A019313780BB1019B68
:108260000BB902B07047019B013B0193F5E700BFDA
:108270001CD70020436D0B42FCD1704708B5436802
:10828000DA0714D58368DB0702D50369D90707D558
:108290000A2350218363FFF7EDFF836C9A07FCD11B
:1082A00000F5005301225A6043689B07FCD408BDC7
:1082B00038B50C4600F580530121024604F00F0545
:1082C000596040F6FF71FFF7D5FF78218563FFF70E
:1082D000D1FF04F00103610748BF43F00203916C32
:1082E00001F003019942FAD138BD000010B5FFF743
:1082F000C5FF042300F5805100F500520B611361A6
:108300000B6113610B6113610B6141F20201136197
:10831000202303610023C360836041614FF4A021E7
:10832000836141620449C36103628362C362436340
:108330000365D164036310BDFF3F0D0309B9FFF767
:108340009DBFFFF7B5BF836C5B06FCD541647047EA
:10835000F8B50446154669B9364B984235D0364BC8
:10836000984234D0354884420CBF58200020FCF796
:1083700013F90146A368D80731D56668B1FBF5F15A
:1083800016F0010601F1FF3527D028212046FFF71E
:1083900071FFA36C9A071CD1A36CDB071BD4A36CE1
:1083A00013F0020F0CBF002706272046FFF766FFD9
:1083B000236923F07F4343EA05652561CEB1394641
:1083C0002046BDE8F840FFF7B9BF5620CFE7572059
:1083D000CDE70527E9E70927E7E73746E8E76368D8
:1083E000A06800F0E00040281BD003D8D8B12028B6
:1083F0001BD0F8BD60281AD08028FAD1012305FBD4
:1084000003F249012046B1FBF2F10D4A203902EA9C
:10841000C1020121FFF72EFF2263BDE8F840FFF7FC
:1084200029BF0623EBE71023E9E70823E7E7042346
:10843000E5E700BF0000014B00000A4000400A4091
:10844000F8FF7F00436870B504460D4616461BB121
:1084500040F6FF71FFF70EFF2046FFF747FF626906
:10846000E9896B7B22F44C520B43298A22F00F02DC
:108470000B4313436361A2682B7B297E22F0804269
:108480000B4322F0E20213436A691343A360AB6813
:108490001BB9A36843F00043A360EB69002B62D0D3
:1084A000A268197A42EA8152997AA260A26842EAE5
:1084B0004142A2609A88A16802F4C0420A435978F6
:1084C000A260A26842EA8102597BA260A26842EAE5
:1084D000C102997BA260A26842EA01129978A26067
:1084E000A26842EA81229979A260DA79520242EACC
:1084F0008122E2601A7802F0FD01023A012902BFEE
:10850000E16841F00401E160012A364A4AD8944208
:1085100044D0354A944243D034498C420CBF0221A6
:108520004FF0FF314901324A0A440221516004F5FB
:1085300080515A7A8A621AB1E26842F40062E260BB
:10854000DA7A82B1E268294942F40042E260254ABF
:108550001B7B9442274A03F00F0308BF53668C42EB
:10856000136708BFD36736B196F8203004F5805101
:1085700053B301230B6205212046FFF799FEAA6839
:1085800012B16968FFF7E4FE29782046FFF7D6FEAE
:10859000A36CDB4313F4405FFAD170BD0021C1E747
:1085A0000121BFE794420BD00F4A94420AD00F49F1
:1085B0008C420CBF02214FF0FF3149010E4AB3E754
:1085C0000021FAE70121F8E7E26996F8223096F8EF
:1085D000210022F009020343134343F00103CB615E
:1085E000C9E700BF0000014B00000A4000400A40FC
:1085F000C0D4034000900340C0E403400022FFF7D2
:1086000021BF0000014B1868704700BF1CD000203C
:10861000084B1B6F03F00703022B04D0032B05D07C
:10862000012B05D0FEE7044B18687047034BFBE7AE
:1086300003487047008000401CD0002020D000205C
:10864000002D310108B5FFF7E3FF054B1B6FC3F3A6
:1086500003330133B0FBF3F0024B186008BD00BFD9
:108660000080004018D000200048704700B4C404C7
:10867000014B1868704700BF20D0002000487047A9
:10868000002D31014FF094439868C0F304400C284A
:1086900022D8DFE800F00921212121210717192123
:1086A0001B1D1F000F4870479B6803F04073B3F118
:1086B000807F13D0B3F1007F12D00B4A002B08BF8C
:1086C0001046704709487047094870470948704785
:1086D00009487047094870470020704708487047AC
:1086E00008487047405DC60000093D000024F400C2
:1086F000C0EA210180BA8C010048E801005A6202F8
:1087000080841E0040420F004FF4004070474FF439
:108710007A707047014B1868704700BF24D0002062
:1087200038B51D46036804469847B0F5007F1AD354
:108730000E480F4A0F49121A00F0DAF80E480F4A95
:108740000021121A00F0E1F82046FCF76FFCFFF759
:10875000D6F9FCF7DBFBFFF7C7F9204600F066F817
:10876000074B1B682B60002038BD00BF00D00020E5
:1087700038D00020308C040838D0002028D90020C0
:1087800030D0002070B50C4C054623680BB1DB6877
:1087900098470A4B1A6822EA05021A60186818B945
:1087A00023680BB15B69984723681BB11B69BDE85F
:1087B0007040184770BD00BF60D0002024D9002051
:1087C00070B50B4C054623680BB1DB689847094A26
:1087D00013682B431360236813B15B69012098472A
:1087E00023681BB11B69BDE87040184770BD00BF0E
:1087F00060D0002024D90020012813B50ED1084CE8
:1088000001A823685B69984740B9019A022123684F
:10881000D2075B6E4CBF03480348984702B010BDB7
:1088200054D00020FA8B0408FC8B040837B5214C87
:108830001020214D23681B6B98472B684BB1236890
:1088400000205B6B9847052803D1236828689B6B41
:1088500098471A4D2B684BB123680020DB6B984773
:10886000052803D1236828681B6C9847236801A852
:10887000DB69984718B1236811481B6A9847236839
:108880000DF103005B6A984748B1236801209B6A99
:1088900098470C4B4FF4E1601B68DB6A9847022154
:1088A0000948FCF7DFFF0021084803B0BDE830406D
:1088B000FDF7D0B954D0002028D000202CD00020C3
:1088C000782A6B0040D00020F987040848E80100AE
:1088D0000139024410B5904201D1002005E003782F
:1088E00011F8014FA34201D0181B10BD0130F2E76F
:1088F0000A44431E914200D1704710B511F8014B54
:10890000914203F8014FF9D110BD0244034693424E
:1089100000D1704703F8011BF9E7020000000003D3
:10892000000000000000000103020601050402012E
:108930000302010300000401000000000302020022
:108940000403000000000000010302000100040312
:108950000000000004000000000000000102000010
:108960002110422063308440A550C660E770088122
:1089700029914AA16BB18CC1ADD1CEE1EFF1311299
:10898000100273325222B5529442F772D662399372
:1089900018837BB35AA3BDD39CC3FFF3DEE36224E9
:1089A000433420040114E664C774A44485546AA5C2
:1089B0004BB528850995EEE5CFF5ACC58DD5533679
:1089C000722611163006D776F6669556B4465BB712
:1089D0007AA719973887DFF7FEE79DD7BCC7C44849
:1089E000E5588668A7784008611802282338CCC962
:1089F000EDD98EE9AFF9488969990AA92BB9F55AD9
:108A0000D44AB77A966A711A500A333A122AFDDBB1
:108A1000DCCBBFFB9EEB799B588B3BBB1AABA66CA8
:108A2000877CE44CC55C222C033C600C411CAEED01
:108A30008FFDECCDCDDD2AAD0BBD688D499D977EB8
:108A4000B66ED55EF44E133E322E511E700E9FFF51
:108A5000BEEFDDDFFCCF1BBF3AAF599F788F889107
:108A6000A981CAB1EBA10CD12DC14EF16FE18010EB
:108A7000A100C230E3200450254046706760B983EE
:108A80009893FBA3DAB33DC31CD37FE35EF3B1023B
:108A90009012F322D2323542145277625672EAB5FE
:108AA000CBA5A89589856EF54FE52CD50DC5E2348B
:108AB000C324A01481046674476424540544DBA7CE
:108AC000FAB79987B8975FE77EF71DC73CD7D326DB
:108AD000F2369106B01657667676154634564CD95E
:108AE0006DC90EF92FE9C899E9898AB9ABA944582B
:108AF000654806782768C018E1088238A3287DCB2E
:108B00005CDB3FEB1EFBF98BD89BBBAB9ABB754A7A
:108B1000545A376A167AF10AD01AB32A923A2EFDBD
:108B20000FED6CDD4DCDAABD8BADE89DC98D267CCA
:108B3000076C645C454CA23C832CE01CC10C1FEF0D
:108B40003EFF5DCF7CDF9BAFBABFD98FF89F176E1A
:108B5000367E554E745E932EB23ED10EF01E0D0E33
:108B600016011F0F0405060B0C1718191A1B1C20E1
:108B7000212338393A3B4041424C272628829083B2
:108B800087BF9DA2C2CC00010104040405020604B3
:108B9000030101010101020202020210100201029E
:108BA00002000200041000000001040302000101A1
:108BB000040104010206010204050607070003037D
:108BC0000203010101010101010104040402012861
:108BD0000401030300070008000733333333333342
:108BE0003333333333333333333333333333333355
:108BF00033333333333333333333C20FFE000000A8
:108C000058022C0101000000E56304080100000087
:108C1000050000000000000000C20100000200008A
:108C20000010000000000000000000000000000034
:108C30000000000000000000996304080300FFFF2B
:108C4000FFFF0000017A0408C0EA2101C0EA210107
:108C5000C017530200800000DA8B0408EA8B040876
:088C600028D9002000000000EB
:0400000508044000AB
:00000001FF
