:1080000003B40148019001BD318000000000000070
:10801000FFFFFFFFFFFFFFFFFFFFFFFFFFFFFFFF70
:10802000FFFFFFFFFFFFFFFFFFFFFFFFFFFFFFFF60
:1080300008B50446104B83F308881048104A1149CC
:10804000121A2CF0B9FC1048104A0021121A2CF018
:10805000DBFC0F4B0F4A9A600F4B22681A600F4BE4
:1080600062681A600E4BA2681A600E4BE2681A60D2
:1080700000F01AF8FEE700BF0015002000150020F0
:10808000E8160020F07D0300E8160020587000205C
:1080900000ED00E000150020F4180020FC1800207E
:1080A00000190020F818002008B500F0E7F802F0E9
:1080B000F5FD1DF0FDFE012021F013FB00F00EF890
:1080C00021F048FB002008BD08B500F0AFF800F033
:1080D00059F800F5742000F5107008BD7FB500F068
:1080E000B9F878B10A4B00931E238DF80430094B80
:1080F0000293094BCDE90330012368468DF8143013
:1081000002F004FE07B05DF804EB00F0B7BB00BF5F
:10811000504E0300C980000040420F00FF2070470E
:1081200007B54FF400730A49ADF806300DF10602A9
:1081300023F083FFBDF80630B3F5007F05D1022898
:1081400008BF002003B05DF804FB0120FAE700BF80
:10815000E816002072462B214BF64F2000F01EBC83
:10816000014B1860704700BFE8180020014B1B68E6
:108170001B681847E8180020014B1B685B6818470C
:10818000E8180020014B1B689B681847E81800207E
:10819000014B1B685B691847E8180020014B1B68FE
:1081A0009B691847E8180020014B1B68DB691847DA
:1081B000E8180020014B1B681B6A1847E8180020CC
:1081C000014B1B685B6A1847E8180020014B1B68CD
:1081D0009B6A1847E8180020014B1B68DB6A1847A8
:1081E000E8180020014B1B681B6B1847E81800209B
:1081F000014B1B685B6B1847E8180020014B1B689C
:108200009B6B1847E8180020014B1B68DB6B184775
:10821000E8180020014B1B681B6C1847E818002069
:108220004FF4007002F0A8B90820704738B5084D27
:1082300000F0FAFEFFF79AFF2B68C31AB3F5E14F7F
:10824000044603D900F084F800B12C6038BD00BFAB
:10825000EC1800206420704708B5064B1B68062BFD
:1082600005D9054B1B681B689847007808BD01209D
:10827000FCE700BFF4180020F818002007B500F054
:108280000FFD00F02DFB294B01225A641A6842F4BD
:1082900080721A6001A801F091FF9DF80530012B52
:1082A00003D89DF80430022B0DD9214B4FF41872DE
:1082B000C3F88C221F4AC3F890221F4AC3F8F02249
:1082C0001E4AC3F8F8221E4AD2F8A43143F4F843F8
:1082D000C2F8A43102F048F900F076F9194B1A48B7
:1082E000402283F8042383F8052383F8062383F8C8
:1082F000072383F8082383F81C2383F81D2383F8BE
:10830000202306F0ADF900F0F3F900F0DDFAFFF7F5
:10831000A3FF48B1002002F033F8FFF727FF0B4B13
:10832000186003B05DF804FB0120F4E700000E4084
:1083300000400E409A6F05001801000400843208C6
:1083400000300E4000E100E021820000EC18002027
:1083500037B52D4DD5F89430022BFBD101222B4C93
:108360001146032001F05AFA2368002B37D12B69FC
:108370002360236843F000632360236803F07F03D6
:1083800001932368C3F305230093019B092B05D8B0
:108390007246D2214DF2D96000F000FB019B0A3BEE
:1083A0000193009B013B0093236823F47D5323F04A
:1083B0003F032360019B226803F07F031343236084
:1083C000009B22681B0203F47C531343104A236072
:1083D000D2F86038002BFBD10B4B22681A610A4C93
:1083E0002023C4F8A8300B4B0125C3F89455122361
:1083F00023654FF416436365102002F0BDF828464C
:10840000656603B030BD00BF00400E40F01800208C
:108410000020C8430010C843684620F007018D467D
:1084200031B5364D82B00E2000F0ACFCD5F8A0304E
:108430009A07044608D50421112001F063FA0022AE
:108440001146032001F0EAF9D5F8A0309B0642D589
:108450002B4B0022C3F894256B6DA3F516430093B4
:10846000009B9342009BB4BF0D3B0D330093009BD8
:108470004FF46E7253430093009B4FF4164293FBEC
:10848000F2F300931D4B1A691E4B1A601A68C2F36F
:1084900005220192019A00990A440092009A002A4A
:1084A00027DA00220092009A01921A6822F47C5284
:1084B0001A60019A1968120202F47C520A431249A6
:1084C0001A60D1F86028002AFBD11A680B4B1020E3
:1084D0001A6102F065F8094B0C4AC3F8A820BFF3F3
:1084E0004F8F204600F04EFC02B0BDE8314085467B
:1084F0007047009A3F2AD6DD3F22D3E700400E4066
:108500000010C843F01800200020C8437FFF03B8C4
:1085100070B5164B1B68072B86B00FD9144C236817
:108520001B68984743684BB123681B6898474368AA
:10853000186806B0BDE8704001F0F8BA0D4B01AA0A
:1085400003F11006154618685968144603C4083329
:10855000B3422246F7D11B882380284640F24B13B2
:10856000ADF80A3001F0E2FA06B070BDF418002050
:10857000F81800206C7D0300104B1B68072B13B507
:108580000FD90F4C23681B68984743684BB1236889
:108590001B6898474368586802B0BDE8104001F076
:1085A00005BB084BD3F812000190202301A88DF8D9
:1085B000043001F0FBFA02B010BD00BFF418002037
:1085C000F81800206C7D030070B5404B1B68062B2B
:1085D00086B01AD83E4B9B6903F030030193019B90
:1085E0001B090193019B002B6CD13A4B02AA03F1AA
:1085F0001006154618685968144603C40833B34278
:108600002246F7D1284601F057FD334B334C002268
:10861000C3F8AC20C3F8A840314B4FF08072C3F8C8
:108620008020BFF34F8FBFF36F8FC3F88021FFF718
:108630006FFFFFF711FE08B1FFF79EFF0421112025
:1086400001F060F900221146032001F0E7F8254807
:1086500000F0F8FF00221046012101F02FFA224815
:10866000012100F0D9FDFFF7F7FD28B172468721FF
:108670004DF2D96000F092F900221146012001F07C
:10868000CDF8134B00221A6003F580532222C3F861
:10869000A840134CC3F8AC20602384F818334FF083
:1086A00080732360FFF754FE104AD2F8883043F4F9
:1086B0007003C2F88830402384F8223384F81E33D4
:1086C00006B070BD01F07EFB9FE700BFF4180020EC
:1086D00000300E40827D030000400E407FFF03B853
:1086E00000E100E080D5430230253E0000ED00E0CF
:1086F000344B5A6873B501219960D50542F22221A5
:1087000019604FD414054FD490054FD4D1034FD4E2
:1087100012F01C0F4ED112F480614DD1D30703D457
:10872000002A14BF05210021684600F0FDFA264BFF
:108730005A6A42F4E0225A625A6942F010025A61BF
:10874000DDE900651F2D05D872461A214AF2701026
:1087500000F024F9AB080024621C7BBBE4B2621C6D
:10876000012393409D4205D072462F214AF270109A
:1087700000F014F9013D354205D0724632214AF22B
:10878000701000F00BF9114A0F4B42EA440446F016
:1087900010060522C3F89C60C3F8A040C3F89420DB
:1087A00002B070BD0E21BFE70421BDE70F21BBE77A
:1087B0001021B9E71121B7E71321B5E75B0814468B
:1087C000CAE700BF00500E4000ED00E001FF0B16AD
:1087D00008B500F017FB00F005F9BFF34F8F05490E
:1087E000054BCA6802F4E0621343CB60BFF34F8FBE
:1087F00000BFFDE700ED00E00400FA0570B5104D84
:10880000064603F04BFC6A07044605D072464E212B
:108810004AF2701000F0C2F8630705D072464F218B
:108820004AF2701000F0BAF8A54205D37246502102
:108830004AF2701000F0B2F83560601B70BD00BFE6
:1088400058700020014BD3F8F00070470081E00F12
:10885000014BD3F8F40070470081E00F034B5868D8
:10886000C0F30800003818BF0120704700ED00E099
:10887000014801F0D7BC00BF0020054030B50F4DC6
:108880002C6814F0010485B015D10D4A10685168A8
:1088900001AB03C39068186001A9284601F0CEFC23
:1088A0009DF80D303BB102236B62AB62054B042295
:1088B00083F802431A6005B030BD00BF00200540B8
:1088C000927D030000E100E008B5FFF7D1FFBDE8AD
:1088D00008400248002101F08FBC00BF0020054085
:1088E000144A0023136001205A09920002F16042E9
:1088F00002F5614203F01F0100FA01F1C2F8801194
:10890000C2F88010BFF34F8FBFF36F8F01332E2B50
:10891000EAD1094B4FF48042C3F88420BFF34F8F54
:10892000BFF36F8FC3F88421C02283F82E2362B671
:10893000704700BF0819002000E100E0684620F001
:1089400007018D4631B5134D82B0112000F01AFA9F
:108950002B6804462BB972464E214EF6A83000F023
:108960001DF80D4B4FF48042C3F88420BFF34F8FA6
:10897000BFF36F8FC3F884212B68019300232B6012
:10898000019B9847204600F0FDF902B0BDE8314058
:10899000854670470419002000E100E0104B70B5D7
:1089A00014461A680646012018608DB29AB1334603
:1089B0002A4621460220FFF70BFFFFF759FF62B658
:1089C0000A2002F049F933462A4621460220BDE832
:1089D0007040FFF7FDBEFFF741FF0128EDD1E6E74C
:1089E0000C19002038B5EFF308850D4C0D4B2046CF
:1089F000A9B240F80C3B0C4B65600A1A5B1A92B2A4
:108A00009BB29A4228BF1A46294622812BF0D4FFF6
:108A1000064B2189236028461CF0F0F9608138BD9F
:108A20002004002055AA55AA00150020706D74443A
:108A30002DE9F04F2B4D90F800802B4B4FF0000AA2
:108A400080F800A02A689A4291B004460E462DD1C3
:108A500005F10C07298938461CF0D0F96B8983424F
:108A600024D1DFF88CB0DBF8003002219B69684626
:108A70009847814608BBDBF8003000981B6901A9C4
:108A80009847B0B9DDF80C9003F002FB00EB090346
:108A90001648DFF860C0002157F8042B12F0010FD0
:108AA0000DD12A89043189B28A42F5D211B0BDE8CC
:108AB000F08F4B464FF00109EAE75346FAE782424E
:108AC00001D3624503D39145EBD89342E9D994F899
:108AD00000E046F82E2022780132D2B242452270C0
:108AE000DFD3E3E720040020706D744400800000B1
:108AF000FC180020D87F030038B5092000F000FAE8
:108B00000A2000F0FDF90B2000F0FAF9082000F02F
:108B1000F7F9114D052000F0F3F9042000F0F0F909
:108B20002A680E4B9A4215D1298905F10C001CF0D8
:108B300065F96B89834209D10024642002F05AF858
:108B400004342B89A4B2A342F7D203E000F09EF9CB
:108B50000428F1D038BD00BF20040020706D74449B
:108B6000EFF3088141F27C6389695D220920FFF7F8
:108B70002FFE0000EFF30884164A0023C2F8943059
:108B8000906A154BA16920F060401861D06A0028F6
:108B9000BEBF186940F000401861D26A520042BF5F
:108BA0001A6942F080421A610A4A48BF216BD06AB2
:108BB000800742BF186940F000501861906B5861FF
:108BC000526B9A610A2041F27C634FF41272FFF7F4
:108BD000FFFD00BF00ED00E000040020EFF308837C
:108BE0009969084B0022C3F89420074A986A1061DB
:108BF0009B6B53610B2041F27C6340F25622FFF7DE
:108C0000E7FD00BF00ED00E000040020EFF3088363
:108C10009969074B0022C3F894209A6A054B0C20EF
:108C20001A6141F27C6340F26222FFF7D1FD00BF7E
:108C300000ED00E000040020EFF3088141F27C63C6
:108C4000896974220320FFF7C3FDEFF3088141F225
:108C50007C63896979220320FFF7BAFDEFF308816D
:108C600041F27C6389697E220320FFF7B1FD000099
:108C7000EFF308839969084B0022C3F89420074A50
:108C8000986A10615B6B93610D2041F27C634FF435
:108C90001C72FFF79DFD00BF00ED00E00004002006
:108CA000064B074A59891180064A19891180064ADC
:108CB000598811801A88054B1A80704700040020DB
:108CC000181900201C1900201A1900201019002062
:108CD000F8B572B6104C114D236801332360104B68
:108CE000D5F894700021C5F89410202218465E79BA
:108CF0002BF08AFE0B4AC26105220271F6B247F6DA
:108D00008542C2804671C5F894702368013B236098
:108D1000236803B962B6F8BD0819002000ED00E031
:108D200000040020EFBEADDE70B5124C124BE361C3
:108D3000124B1A602379132B06460D460AD8E38896
:108D400047F685429BB2934204D141B113290DD01D
:108D5000257104E0FFF7BCFF002325716371084B08
:108D60001B68336020237360304670BD2379052B68
:108D7000F5D1EDE700040020EFBEADDE14190020B0
:108D8000A07D030030B5024672B60C4B0C4C19683E
:108D9000013119600B490020D1F89450C1F89400BA
:108DA00092B260896281C1F894501A68013A1A60DF
:108DB0001B68C0B203B962B630BD00BF08190020FD
:108DC0000004002000ED00E010B572B60A4B1A68EE
:108DD00001321A60094A0024D2F89410C2F8944073
:108DE000074C2081C2F894101A68013A1A601B6877
:108DF00003B962B610BD00BF0819002000ED00E005
:108E000000040020F0B572B60D4C0E4E25680135F9
:108E100025600025D6F89470C6F894500A4D287144
:108E2000E9606A802B8047F68543EB80C6F8947032
:108E30002368013B2360236803B962B6F0BD00BF1D
:108E40000819002000ED00E00004002010B572B603
:108E50000B4B0C491A680C4801321A600022D1F8F9
:108E60009440C1F8942042790132D2B24271C1F8E3
:108E700094401A68013A1A601B6803B962B610BDC3
:108E80000819002000ED00E000040020014B1879D3
:108E9000704700BF00040020084B1A790A2A0BD043
:108EA0001A790B2A08D01A790C2A05D01879A0F162
:108EB0000D035842584170470120704700040020BC
:108EC000064B1A790A2A02D01A790B2A03D118699B
:108ED000C0F3C03070470020704700BF000400207E
:108EE000064B1A790A2A02D01A790D2A03D1186979
:108EF000C0F3C01070470020704700BF000400207E
:108F000008B50B2828D8DFE800F0303030300606EE
:108F10000C30151B1F23164B1879831F58425841DC
:108F200008BD144B1888013880B212288CBF00206D
:108F30000120F5E7104B1868003818BF0120EFE753
:108F4000BDE80840FFF7A8BFBDE80840FFF7B8BF7D
:108F5000BDE80840FFF7C4BF724641F27C6040F2B2
:108F6000CF11FFF71BFD0020DAE70120D8E700BF93
:108F700000040020181900201419002008B50B283F
:108F80003ED8DFE800F0060A0D0F12181E2426292D
:108F900030361F4B5879C0B208BD1E4B1888FBE70E
:108FA0001D4BFBE71A4BD868F6E7194B1A79062ACE
:108FB00024D00020F0E7164B1A79062AF9D1586917
:108FC000EAE7164B1888431E122BF2D8E4E7144B3D
:108FD000E4E7144B1868DFE7FFF75EFF0028E8D0EE
:108FE0000B4B1869D8E7FFF76BFF0028E1D0084B5F
:108FF000E5E7FFF775FF0028DBD0054B9869CBE765
:10900000724640F21B2141F27C60FFF7C7FCD0E7BB
:1090100000040020101900201A190020181900203F
:109020001C19002014190020064BDA69064B9A42DD
:1090300006D0724640F2222141F27C60FFF7AEBCBE
:10904000704700BF00040020EFBEADDE0C4B98421D
:1090500010D90C4B984210D9022201230A490B6403
:109060000A49D1F8003123F0807343EA0263C1F862
:109070000031704700221346F0E70122FBE700BFF2
:109080000048E8010090D0030000C84300400E40B3
:109090000F4B5B680F4B30B500221C46C9B21D79DF
:1090A0008D4202D11D6885420DD20132052A03F19D
:1090B0000803F4D1032206494B6823F0407343EAC6
:1090C00002634B6030BD04EBC2025279F3E700BF8C
:1090D00000000E40884E0300244B984239D01CD823
:1090E000A3F5B703A3F5586398422ED00ED8204BB2
:1090F000984226D008D81F4B98421ED01E4B98424B
:109100001BD01E4B984218D0002070471C4B984231
:10911000FAD11C4BD3F84C0170471B4B98421CD022
:109120001A4B98421DD0A3F53703A3F5D8539842A4
:10913000EAD1144BD3F858017047124BD3F83001E1
:109140007047104BD3F83C0170470E4BD3F84801E1
:1091500070470C4BD3F8500170470A4BD3F85C01B1
:109160007047084BD3F86001704700BFC0EA210187
:10917000C0CF6A0080841E0000093D0040420F00FD
:109180000024F4000081E00F0048E80180D543028C
:1091900038B5074C41F67133256C236401F09EF815
:1091A0000021FFF775FF0DB10023236438BD00BF18
:1091B00000000E40044BDB6B5B0604D4034AD2F87C
:1091C000C830002BFBD1704700300E400000C64372
:1091D00008B5FFF7EFFF024B5868C0F3014008BD28
:1091E00000300E40044BD3F84421D20703D4D3F807
:1091F00040211042FBD1704700400E4038B5054C6D
:1092000041F67133256C2364FFF742FF0DB1002353
:10921000236438BD00000E4038B5C0F30323013B82
:10922000092B16D8DFE803F02616151505191C15AD
:109230001F23124C0023C0F3043513B11846FFF767
:10924000D1FF04F1424404F5801405EBC404A400EA
:10925000216038BD0A4C0023EDE70A4C0123EAE700
:10926000094C1023E7E7094C4FF48033E3E7084C3F
:109270000023E0E7074C0023DDE700BFB0400E40CD
:10928000C0400E40E0400E40E8400E40F0400E402E
:1092900050410E4000400E40C0F30313013B092B28
:1092A0002AD8DFE803F0050B0F1929291F23374BB4
:1092B000274BD3F80001C0F304207047244BD3F8A8
:1092C0001401F8E7224BD3F80001C0F30060431CFF
:1092D00001209840013870471D4BD3F80C01C0F3B2
:1092E000082070471A4BD3F80801F8E7194B984249
:1092F00004D0194B984207D000207047144BD3F884
:10930000203103F00F03E3E7114BD3F82031C3F30F
:109310000113DDE7114B98420CD003F5B01303F5B0
:1093200080539842E8D10A4BD3F82801C0F30120BA
:10933000031DCDE7064BD3F82831E8E7084B9842E8
:10934000DAD1034BD3F8300100F00300704700BFBF
:1093500000400E408006160080162E0090171A005E
:10936000A009140008B5FFF797FF013008BD000001
:1093700000F00F000138072844D8DFE800F0040FA0
:109380001943232D4335244BD3F8943003F00703BE
:10939000023B052B38D8214AD05C70471E4BD3F8CE
:1093A000803003F00703013B032B2FD81C4AF3E75F
:1093B000194BD3F8843003F00703013B032B25D866
:1093C000184AE9E7144BD3F8883003F00703013B50
:1093D000032B1BD8144ADFE70F4B1B6F13F0010F51
:1093E0000CBF0720092070470B4BD3F85C3103F00A
:1093F0003003202B0CD0302B0CD0102B14BF0120AD
:1094000007207047002070470520704701207047F3
:10941000042070470820704700400E40594E03005A
:109420005F4E0300634E03005F4E030008B5014624
:10943000FFF79EFF1A4B994211D01A4B994212D056
:10944000194B994204D1194BD3F8800000F0070062
:109450000138032821D8DFE800F00A0E1612134B5A
:10946000D3F88400F2E7114BD3F88800EEE7BDE8AB
:10947000084000F079BFBDE8084000F07BBFBDE8C0
:10948000084000F074BF00F02DFF084BD3F8003106
:10949000C3F300630133D84008BD0020FCE700BFE0
:1094A000030020000500240002001E0000400E40C2
:1094B00000F47813B3F5B01F10B5044674D025D866
:1094C000B3F5402F5ED010D8B3F5802F49D005D822
:1094D0003BB1B3F5003F4FD0002010BDB3F5202FB6
:1094E000FAD1BDE8104000F0FDBEB3F5801F00F0DA
:1094F0008480B3F5A01F4DD0B3F5602FECD14A485E
:10950000FFF736FF072878D00928E9E7B3F5381FB9
:1095100053D013D8B3F5001F58D00AD8B3F5D01FD5
:1095200056D0B3F5F01FD7D14048BDE81040FFF743
:109530007DBFB3F5101FCFD13D48F6E7B3F5481F07
:109540004DD0B3F5781F65D0B3F5401FC4D139486D
:10955000FFF76CFF384BD3F82831C3F301230433F2
:1095600020E000F0BFFE344BD3F80C31C3F30823E6
:109570000133B0FBF3F0B0E700F0B4FE2E4BD3F8AC
:109580000831F3E700F0AEFE2B4BD3F81431C3F3F0
:109590000423EDE72648FFF749FF274BD3F8303186
:1095A00003F00303D84098E72048FFF73FFF224B22
:1095B000D3F8203103F00F03F4E71C48FFF736FF20
:1095C0001D4BD3F82031C3F30113EBE71948ACE787
:1095D0001848FFF72BFF184BD3F82831F3E717484B
:1095E000FFF7C6FE072808D0082809D004287FF412
:1095F00073AFBDE8104000F0B1BE114B18686CE7C6
:1096000000F070FE0C4BD3F80031C3F3042303FBCE
:10961000000062E700F066FE01462046FFF7A2FE6A
:10962000B1FBF0F059E700BF06000E0002001E007B
:10963000050024000300200000400E40B800320066
:10964000FC15002070B50546FFF746FD284B044683
:1096500011201E681D60FFF78BFE052801D1FFF762
:1096600097FD244AD2F86038002BFBD1224B9D4253
:1096700036D0224B9D4238D0214B9D4203D124F05D
:10968000C06444F080641120FFF772FE052802D107
:109690002846FFF7DBFCB54203D90121284600F03C
:1096A00035FB184B11201C61FFF762FE052808D11D
:1096B00000F042FE0446FFF78BFD01462046FFF70F
:1096C0009DFD00F00FFEFFF7C1FCB54203D801215C
:1096D000002000F01BFBBDE870401120FFF748BEE2
:1096E00024F0C06444F00074CDE724F0C064CAE7FD
:1096F000081600200020C84380841E0000093D0099
:1097000040420F0000400E40013810B5032812D827
:10971000DFE800F0022E1220214AC1F30801D2F83E
:109720006838002BFBD11F4A136A23F4FF7323F020
:1097300001031943116210BD194A01F07F01D2F8EB
:109740006038002BFBD1174A136923F07F031943BC
:109750001161F0E7124A01F07F01D2F86438002B62
:10976000FBD1104A936923F07F0319439161E2E72B
:109770000C4AD2F89030536A23F0300343F01003C0
:109780005362146B084BC1F3C31003300F2803EA74
:10979000040328BF0F20194341EA00711163CAE78F
:1097A0000020C84300400E4000F8FF0F104A536AE3
:1097B00013F0300F18D0202913D0302914D00029ED
:1097C0000C4B08BF4FF44003D2F8901033EA01016C
:1097D000FAD15B0246BFD2F8A000C0F3802001207E
:1097E00070474FF40003EFE74FF44003ECE700BF8E
:1097F00000400E40FF33E13F02280AD129B1064B59
:109800004FF48060C3F8A800596612B10220FFF738
:10981000CDBF0120704700BF00400E400428F8B5BE
:1098200045D8314B314F13F800C0314B1B5C002938
:1098300043D0304C022834F8106039D17C6A14F0DF
:10984000300F35D12C4CE46B7C6AE40705D57D6A7A
:1098500025F0300545F010057D62244C2666274C26
:1098600023449B001D68002DFCD002B36444A40077
:109870002368002BFCD0022819D1C1B11B4D696AA5
:1098800011F0010116D001222021FFF7B5FFD5F814
:109890009C70012200210220FFF7C0FFC7F30A01DC
:1098A0000220FFF731FF2E662368002BFCD0F8BDA5
:1098B0000021D2E7FFF77AFFE9E7114931F81010EC
:1098C0003966012101FA03F3D7F890101942FBD150
:1098D000002AECD00124054A04FA0CF4D2F89030A6
:1098E0002342FBD1E3E700BF674E030000400E4078
:1098F0006C4E0300724E030000300E408004F210E4
:109900007C4E0300112838B50C4615D000F00F002E
:109910000138072869D8DFE800F02B046468628307
:10992000688E5E4D013C092C5FD8DFE804F0775F5C
:10993000665E5E6D5E5E5E5C042912D100F00EFD17
:109940000546A8B10021284600F0E0F9023C0A2CA7
:109950004BD8DFE804F03F3C30364A4A4A4A4A0FC7
:109960004200052904D14E4B1D684E4B9D42E9D85B
:109970000025EBE70320052401221146FFF74EFFE7
:10998000FFF706FC0DB1FFF715FC474B5C6700F0D5
:10999000D3FC044600F0A6FCFFF758FBFFF718FCC9
:1099A00001462046FFF72AFCFDB928460121BDE803
:1099B000384000F0ABB93D48FFF748FB02200446B1
:1099C000DAE73A48FFF742FB01240320D4E70120FD
:1099D0000324D1E700200424CEE70724D0E7344D48
:1099E000A0E7344D9EE704232B6038BD01221146C9
:1099F0000020FFF713FF0223F6E70122114610466D
:109A0000FFF70CFF0123EFE700F06CFCFFF71EFBF4
:109A1000294B0122C3F808260323E5E70023E3E7E7
:109A2000072904D00929E0D11F4B012201E01E4B78
:109A300000221A67D9E74C1E072CD6D801A353F889
:109A400024F000BF979A0000EB990000EB9900000A
:109A5000899A0000EB990000EB9900007B9A0000C6
:109A6000659A000003221049D1F85C3123F03003DD
:109A700043EA0213C1F85C31B7E701221146042022
:109A8000FFF7CCFE0122EEE7012211460220FFF78C
:109A9000C5FE0222E7E70022E5E700BF80400E4056
:109AA00008160020002D310100400E400148E80159
:109AB00088400E4084400E400010C84370B50D46EB
:109AC00014460AB1174B1B6800F048FC01210646FA
:109AD00000F01CF91CB3FFF77BFB01463046FFF793
:109AE0008DFB1120FFF73EFCB6FBF0F0FFF7AEFA5E
:109AF000012211460220FFF791FE0B48416A002D1A
:109B000014BF4FF08052002221F04051002C14BFAE
:109B10004FF0005300230A431343436270BD002DEE
:109B2000E6D1EAE700300E4000400E4010B5044692
:109B30001120FFF71DFC002101220220FFF76EFE1D
:109B4000184A217C536A23F00103022908BF43F01D
:109B500001035362144B2178C3F8A014637AA188DF
:109B600043EAC123D362136BA07A217A03F07F63A7
:109B70000343E08843EAC02343EAC11303310F29BA
:109B800028BF0F2143EA01731363A37B617B1B0191
:109B900043EA0133E17B0B43217B43EA01435363F7
:109BA00010BD00BF00400E400000C84338B50E4D48
:109BB00001461120FFF7DCFBAA6B0C4B0C7813401D
:109BC0001C434B7844EAC3248B7844EA0364CB7883
:109BD00044EA0324AB6BA34205D0002101220846CE
:109BE000FFF71CFEAC6338BD00400E4080E4FFF878
:109BF000034BD86B80F04000C0F38010704700BF6B
:109C000000300E4042EA0323B3F5007F39D016D866
:109C1000B3F5807F31D007D85BB3012B1ED0002273
:109C2000134603600A60704740F201129342F6D176
:109C3000184BD3F824321A0EC3F30743F1E7B3F5F8
:109C4000407F22D040F2013293420ED040F20122F6
:109C50009342E4D10F4BD3F8283202E00D4BD3F8F6
:109C60002432C3F30722DBB2DBE70A4BD3F82832F6
:109C7000E1E7084BD3F81C32F3E7064BD3F81C326C
:109C8000D9E7044BD3F82032EBE7024BD3F820326C
:109C9000D1E700BF0081E00F08B5FFF7A9FF20B1B1
:109CA000024AD2F8C830002BFBD108BD0000C643E1
:109CB00070B504460E46FFF79BFF10B3FFF7ECFFAD
:109CC000104B5B68C3F301439C421AD00E4BD3F890
:109CD000003100F007FB022C054602D12146FFF7B8
:109CE0008DFAC4F1020210239340064A13610EB1AB
:109CF000FFF7D2FF2CB921462846BDE87040FFF798
:109D00007DBA70BD00300E4000400E4013B50246D3
:109D1000FFF76EFFC8B152B90D4B0191D3F8004166
:109D200000F0E0FAC4F30422019902FB0002094B9F
:109D30001B7843B1084B9A4205D8022002B0BDE817
:109D40001040FFF7B5BF0020F8E702B010BD00BF1C
:109D500000400E4024190020002D3101174B4AF617
:109D6000E85210B5596B5A639A6FD407FCD41B6C38
:109D700013F003031EBF124A0124C2F8B44A8342FF
:109D800016D00E4B9A6FD207FCD41A6C22F0030245
:109D900002431A649A6F12F00102FBD10038084C9A
:109DA00018BF01200129C4F8B40A08BF5A6303E0B0
:109DB00010B9034BC3F8B40A10BD00BF00300E4009
:109DC0000000C643074BDA6B42F41052DA639A6F15
:109DD000D207FCD403221A64186C831A58425841E3
:109DE000704700BF00300E402DE9F04F002389B0CE
:109DF000CDE90233CDE90433CDE90633A0F5E163C3
:109E0000B3F5966F04460D46914604D900252846C1
:109E100009B0BDE8F08FB0F5E16F674B8CBF012250
:109E2000002240F0BC80D3F81832C3F30721DBB224
:109E3000079104934FF4167A4FF4966BDFF87C8108
:109E4000D8F84C700192C7F301773B4605A902A8E8
:109E5000FFF7D8FED8F8E060019AC6F30126334632
:109E600006A903A8FFF7CEFE049B0799A4EB0B0EEF
:109E7000A1EB030C0EFB0CFCBCFBFAF213EB020C87
:109E80002CBF012300236145C0D3002BBED1069A0D
:109E90000398131A0EFB03F3B3FBFAF3C0182CBF9D
:109EA000012300238242B1D3002BAFD1059B02993D
:109EB0005A1A0EFB02FEBEFBFAFA11EB0A012CBF86
:109EC0004FF0010E4FF0000E8B429FD3BEF1000FFA
:109ED0009CD1B9F1000F10D0D8F85C2022F4FE42DA
:109EE00022F00202B4F5E16F42EA0C2218BF4FF0F3
:109EF000020E42EA0E02C8F85C20002D4DD02E4B17
:109F0000022FD3F830223ED0032F3FD0012F14BFB1
:109F1000D2B2C2F30722120312F4702F7FF476AF8D
:109F2000264FFB6E23F470431A43234BFA66022E2E
:109F3000D3F830222CD0032E2DD0012E14BFD2B254
:109F4000C2F30722120312F4702F7FF45FAF1B4E8F
:109F5000D6F8E03023F470431A43C6F8E020736E5D
:109F6000814238BF014623F4FF73E72923F0010340
:109F700028BFE721B4F5E16F18BF43F0010343EABE
:109F80004103736643E7C2F30742C4E7120EC2E718
:109F9000C2F30742D6E7120ED4E7012537E7D3F81C
:109FA0001832190EC3F30743079104934FF4966ACE
:109FB0004FF4E16B42E700BF0081E00F00300E403C
:109FC000304B1A6FD96C11F0010F02F0060244D029
:109FD000002A42D0132851D9143813288CBF1023DB
:109FE00008232849013BCA6C180322F47F4240EA47
:109FF00003231343CB64244BCA6C1B88C2F3032294
:10A000002833013202EB820003EB5303B3FBF0F37E
:10A01000C86C013B072B28BF072320F0EE6040EA05
:10A02000036343F48013CB64184BB3F90030002B67
:10A0300012DB03F12800C0F34E030344500800EB89
:10A040004202B3FBF2F20B6D072A28BF072223F06E
:10A05000700343EA02120A657047D96C01F00101EE
:10A06000114304D1092809D90A380928B6E7DB6C5D
:10A0700013F00103B5D01AB92728AFE70423B0E7DE
:10A080000023AEE700300E402019002022190020E6
:10A09000064A074BD3F88039136F23F007031843A0
:10A0A000044B10671888FFF78BBF00BF00300E40CD
:10A0B0000000C6431E19002038B504468088E38896
:10A0C000B4F90C504A2B50D9B3F5FA7F4FD340F670
:10A0D000C312934294BF4FF000524FF040522949AF
:10A0E000CB6C23F0405323F00103002DA8BF43F0B5
:10A0F00001031343CB64D1F8E03043F44073C1F85B
:10A10000E030214B1880CB6E43F08073CB661F4B41
:10A11000D3F8800900B10420FFF7BAFF1C4B218956
:10A1200019801C4BB4F90C20A0881A80FFF748FF57
:10A13000A37BFBB1012B21D0012260881146FFF7E0
:10A1400053FE054678B10F4AD36B43F48063D36363
:10A150006078FFF703FEA37AA3F120025342534134
:10A160000A4AC2F89437284638BD0022B7E74FF0B4
:10A170008052B4E7034B084A9A65DDE7014B074A72
:10A18000FAE700BF00300E401E1900200000C64351
:10A19000201900202219002077402057372110B7BE
:10A1A000EFF3108072B6704700B962B67047EFF3F4
:10A1B000108072B67047FFF7F7BF00000D4AD2F863
:10A1C000E430D2F8E0109B0003F03C03C1F38111AE
:10A1D0000B438370D2F8E03003F03F034370D2F8B2
:10A1E000E830D2F8EC2003F0F003C2F3031213437B
:10A1F0000370704700FF0FE00368DB0611D447F2DD
:10A2000031538268D20701D5013BFAD1036803F0CC
:10A2100001038B421FBF00F1424000F58010400156
:10A22000016070470368D90707D583689A0704D48B
:10A230008368DB07FCD40123436070474B78CA78FE
:10A24000002B8B782DE9F04114BF4FF0020E4FF038
:10A25000000E002B14BF04230023002A0A7991F872
:10A2600007800C7814BF4FF0080C4FF0000C002A48
:10A270004A7914BF20270027002A8A7914BF402674
:10A280000026002A0A7A4FEA022242EA083291F8AE
:10A29000098042EA0402CC7A897A42EA084242EA18
:10A2A000016242EA0E0243EA020343EA0C0343EA74
:10A2B000070314BF102500253343002C14BF4FF0B3
:10A2C000004400242B43234347F231528168C907DD
:10A2D00001D5013AFAD10360BDE8F081004870472A
:10A2E00000F04902104AD2F8943003F00703023B11
:10A2F000032B13D8DFE803F00C14020E0B4B1B6882
:10A30000D2F80001C0F304200130B3FBF0F0704735
:10A31000074BF4E7074B1B685B08F1E7054BEEE7DB
:10A320004FF40043ECE700BF00400E400C16002045
:10A33000041600200816002008B5FFF7D3FF054BD0
:10A34000D3F80831C3F308230133B0FBF3F0024B19
:10A35000186008BD00400E4000160020014B186830
:10A36000704700BF041600204FF4004070474FF4C0
:10A370007A707047014B1868704700BF0C160020B8
:10A3800038B1012807D0724629214DF61430FEF766
:10A3900005BB00F095B800F03FB880B584B000AFC1
:10A3A0000346FB8000F004FA0346FB6000BF00F0A8
:10A3B000FFF90246FB68D21AFB889A42F7D300BF26
:10A3C00000BF1037BD4680BD08B500F0F3F9024A62
:10A3D00000232AF0A9FB08BD40420F0008B500F099
:10A3E000E9F90018494143F6095200232AF09CFB81
:10A3F00008BD10B500F0DEF90446090143F6095224
:10A400000023200141EA14712AF08EFB10BD00F0F8
:10A41000CFB900F0CDB9000008B500F0B1F900F0F7
:10A420002DFB00F04FFA022000F0A6F8BDE808402E
:10A430000148FDF795BE00BFB04E030008B500F01F
:10A440006DF9C00B40EA414008BD08B500F066F95F
:10A45000000A40EA016008BD08B500F05FF9400954
:10A4600040EAC16008BD13B500F0A2F9044601A896
:10A4700000F076F900F04AF8019B2044C01A02B0BF
:10A4800010BD08B500F04AF9BDE8084000F03EB83C
:10A4900013B500F08DF9044601A800F061F900F051
:10A4A0004BF8019A131BC01A61F1000102B010BDF4
:10A4B00008B500F033F9BDE8084000F03DB80000F1
:10A4C00008B500F05DF900F0ABF800F0D7FA00F045
:10A4D000F9F9BDE808400148FDF742BEF44E03001B
:10A4E00013B502460023CDE90023DDE90001064C47
:10A4F000A0FB042304FB0133CDE90023DDE90023A5
:10A50000180902B010BD00BF05BD378613B5CDE9EF
:10A510000001DDE90001074CA0FB042304FB01332B
:10A52000CDE90023DDE90023900E40EA831002B05C
:10A5300010BD00BF0000127A13B50246C1F3160326
:10A54000CDE90023DDE9000143F60954A0FB042313
:10A5500004FB0133CDE90023DDE90023500A40EA82
:10A56000C350590A02B010BD014B00221A60704757
:10A57000281900207047000072B6074B07491A6877
:10A5800001321A600A68104308601A68013A1A60BA
:10A590001B6803B962B6704708190020281900200B
:10A5A00072B6084B08491A6801321A600A6822EA32
:10A5B000000008601A68013A1A601B6803B962B6A5
:10A5C000704700BF081900202819002013B5EFF3C9
:10A5D00010830193012383F310880F4B1A68002323
:10A5E0008B420DD10D4B92B11A6922F004021A610F
:10A5F000BFF34F8F30BF019B83F3108802B010BDB3
:10A6000050F823402478002CF5D10133E8E71A698B
:10A6100042F00402EBE700BF2819002000ED00E043
:10A620000B4B00221A600B4B1A600B4B9A605A625C
:10A6300040F2FF721A62094A4FF000416020C2F8EE
:10A64000801182F81F03116001221A60704700BF59
:10A650002C190020301900200020044000E100E007
:10A6600010B5044611B12020FFF786FF074B9A680A
:10A6700002F59C5208325A6502221A6504221A62B7
:10A680005C65034B0122C3F8882410BD0020044000
:10A690000000844270470000074B9A6802F59C5204
:10A6A00008325A6402221A641A625864034B012267
:10A6B000C3F88424704700BF002004400000844297
:10A6C00070470000014B9868704700BF00200440AD
:10A6D000684620F007018D4631B50F4C1020FEF77B
:10A6E00051FB636A0546980704D5A369990701D50C
:10A6F00000F05AFA636A5A0704D5A3695B0701D5CB
:10A7000000F0B2F9044B012228461A62FEF73AFB28
:10A71000BDE83140854670470020044010B572B650
:10A720000B4C236801332360FFF7CCFF09490B680A
:10A730008342094B82BF1A6801321A6008601968A7
:10A740002368013B2360236803B962B610BD00BFD4
:10A7500008190020301900202C190020401A7047D9
:10A7600038B50446FFF7AEFF0546FFF7ABFF85425D
:10A77000FBD000F01DF82060BDE83840FFF7CEBFE9
:10A78000094A08B500231360084A0120136021F02C
:10A790006DF838B972462F21BDE8084042F6516085
:10A7A000FEF7FCB808BD00BF34190020381900209E
:10A7B00021F079BC10B572B60B4C236801332360CD
:10A7C00021F071FC09490B688342094B82BF1A686A
:10A7D00001321A60086019682368013B236023680E
:10A7E00003B962B610BD00BF081900203819002057
:10A7F0003419002013B5044621F055FC241A012019
:10A80000FFF7BAFE0B4821F062F8002300930948D5
:10A81000094B012224EAE47121F04CF840B1724660
:10A820006F2142F6516002B0BDE81040FEF7B6B8A5
:10A8300002B010BD3C19002055A8000008B504481E
:10A8400021F045F8BDE808400120FFF7A9BE00BF90
:10A850003C19002008B5FFF7F1FFBDE8084000F003
:10A86000BBB9000013B5044621F01DFC241A0C48A6
:10A8700021F02DF80023009309480A4B012224EA15
:10A88000E47121F017F840B17246912142F651600F
:10A8900002B0BDE81040FEF781B802B010BD00BFA5
:10A8A00054190020B5A80000014821F010B800BFDD
:10A8B0005419002008B5FFF7F7FFBDE8084000F085
:10A8C000D3B8000008B5FFF7E5FEFFF7EDFF044A37
:10A8D00000231360034A1360034A136008BD00BFDE
:10A8E0006C190020741900207019002070B50446FE
:10A8F00072B6154D154E2B6801332B60FFF7CAFE5B
:10A90000134A236833601360FFF7DCFE04462146D8
:10A910003068FFF723FF00280CDA0134346001218E
:10A920003068FFF79DFE2B68013B2B602B6803B955
:10A9300062B670BD032804D801282CBF2418013446
:10A94000ECE70021ECE700BF081900206C1900209B
:10A950007419002070B5054672B60E4C0E4E236871
:10A9600001332360FFF7A0FF2B680C4D2B60336091
:10A97000FFF71EFF33681B1A002BBCBF783028601E
:10A980002868FFF76FFF2368013B2360236803B942
:10A9900062B670BD08190020741900206C190020DF
:10A9A00010B572B6074C236801332360FFF772FEBF
:10A9B000FFF77AFF2368013B2360236803B962B67F
:10A9C00010BD00BF08190020094B984210B504467D
:10A9D00005D972467F214FF20640FDF7DFFF204682
:10A9E000FFF77EFD0446FFF76DFE204410BD00BF5B
:10A9F000C17F841E6FF00043984210B5044605D312
:10AA0000724691214FF20640FDF7C8FFFFF7D0FED6
:10AA1000204410BD38B504460D4600680968FFF7AC
:10AA20009DFE35EA200028BF204638BD431A10EAB3
:10AA3000230038BF0846704700680B68C31A5842A5
:10AA40005841704772B6064B1A6801321A60054ABF
:10AA500010601A68013A1A601B6803B962B6704741
:10AA60000819002070190020024B1B680BB1024826
:10AA700018477047701900207419002008B5FFF7B7
:10AA8000DDFEFFF71DFE034A00231360024A136038
:10AA9000536008BD781900207C19002072B6064B5F
:10AAA0001A6801321A60054A10601A68013A1A6081
:10AAB0001B6803B962B67047081900207819002096
:10AAC00073B5054672B61D4E1D4C3368033D013308
:10AAD0003360FFF7B3FEFFF7F3FD2846FFF700FDF5
:10AAE0000021FFF713FD206020682D1A01A8656082
:10AAF000FFF736FE0546FFF709FD2368181A1BD439
:10AB00009A2812D86368019A1844606063681344F5
:10AB100063606068FFF76EFE01203368013B3360BD
:10AB2000336803B962B602B070BDFFF7D9FC0438D0
:10AB30004019FFF7B1FDEFE70020EEE7081900200C
:10AB40007C19002038B5054672B60C4C23680133D9
:10AB50002360FFF773FEFFF72BFE281A00280ADB9D
:10AB60002846FFF747FE01202368013B2360236846
:10AB700003B962B638BD0020F6E700BF081900200F
:10AB800010B572B6074C236801332360FFF756FEF9
:10AB9000FFF796FD2368013B2360236803B962B683
:10ABA00010BD00BF0819002037B50A4C01A8FFF7F7
:10ABB000D7FD2568FFF7AAFC6368281A0028A8BFFC
:10ABC0001B1863606068019B18440190FFF712FE38
:10ABD00003B030BD7C190020024B1A680AB11B6813
:10ABE00018477047781900200123037088B200F0DD
:10ABF0007DB9000030B5B0F5FA7F87B0044605D8BE
:10AC000080B207B0BDE83040FDF704BB6FF00043F1
:10AC1000984217D200F05AF90E4A002305468DF8E3
:10AC200003300DF10303CDE90404CDE902230193C0
:10AC300000F082F9294602A800F0DAFF284600F069
:10AC4000A1F908B107B030BD012101A8FFF7BEFC92
:10AC5000F4E700BFE9AB00004FF47A735843FFF705
:10AC6000C9BF10B50446FDF787FA201ABDE81040A9
:10AC7000FFF7C0BFF8B5084C064600256F01304607
:10AC800039592AF0D3F820B10135162DF6D100201C
:10AC9000F8BDE019FCE700BFEC19002008B501F091
:10ACA000C1F800F085FF01F011F800F0EDFC00F0B4
:10ACB00097FE00F04FFA00F001FC4FF430720021D3
:10ACC0000C4829F0A1FE002158220B4829F09CFED7
:10ACD0000A4A002313600A4A137000F061FE094B10
:10ACE0001860094B186000F05FFDBDE80840FFF7F1
:10ACF00041BC00BFEC19002084190020E819002095
:10AD0000E4190020E0190020DC1900202DE9F84F9B
:10AD1000404B1B7806462BB1724652214BF21D0068
:10AD2000FDF73CFEDFF8F880D8F80030152B05D988
:10AD3000724653214BF21D00FDF730FE2EB97246CC
:10AD400054214BF21D00FDF729FED8F8004035686C
:10AD5000314F4FEA4419284647F809502AF070F855
:10AD6000014628461AF04AF807EB44140025A08350
:10AD700033792371B368E36033696361A561FDF7DB
:10AD8000FBF9F368D8F800B065711844337DA377F8
:10AD9000224B20611FFA8BFA2572A4F806A01E46EA
:10ADA000AB4502D146F82B4012E053F8042B217931
:10ADB0001279914205F101002AD2ABEB0502920013
:10ADC00006EB850106EB800029F004FE46F82540DD
:10ADD0000BF10103C8F800304FF6FF739A4505D117
:10ADE000724666214BF21D00FDF7D8FD07EB090303
:10ADF000DA884FF6FE739A4205D1724667214BF20C
:10AE00001D00FDF7CBFD07EB0903D888BDE8F88FDF
:10AE10000546C5E7E4190020EC190020841900203C
:10AE2000E8190020054B1B6898423FBF044B03EB19
:10AE300040108177012028BF00207047E8190020CA
:10AE4000EC190020044B1B68834283BF034B03EBC8
:10AE50004010807F00207047E8190020EC19002086
:10AE6000054B1B6898423FBF044B03EB4010416108
:10AE7000012028BF00207047E8190020EC190020AD
:10AE800038B5084B1B68984204460D4608D2FDF7BA
:10AE900079F9054B03EB441428442061012038BDA7
:10AEA0000020FCE7E8190020EC190020044B1B6887
:10AEB00098423ABF034B03EB40100020704700BF9D
:10AEC000E8190020EC190020807F704710B5064C6F
:10AED00023682BB97246AB214BF21D00FDF75EFDD6
:10AEE0002368D88810BD00BFDC19002038B505469E
:10AEF00072B60E4C2368013323600D4B1B689842D9
:10AF000005D37246B8214BF21D00FDF747FD0948F5
:10AF100000EB4510437943F0800343712368013B04
:10AF20002360236803B962B638BD00BF081900204A
:10AF3000E8190020EC19002038B5054672B60E4C11
:10AF40002368013323600D4B1B68984205D372467A
:10AF5000C0214BF21D00FDF721FD094800EB451013
:10AF600043796FF3C71343712368013B2360236860
:10AF700003B962B638BD00BF08190020E8190020E7
:10AF8000EC190020084B1B68984210B5044605D305
:10AF90007246C7214BF21D00FDF700FD034800EB90
:10AFA00044146079C00910BDE8190020EC19002094
:10AFB00038B5054672B60E4C2368013323600D4B3D
:10AFC0001B68984205D37246CE214BF21D00FDF757
:10AFD000E5FC094800EB4510437943F04003437119
:10AFE0002368013B2360236803B962B638BD00BF04
:10AFF00008190020E8190020EC190020094B1B68F3
:10B00000984210B5044605D37246DD214BF21D006F
:10B01000FDF7C4FC044800EB44146079C0F38010D1
:10B0200010BD00BFE8190020EC1900200E4B1B6872
:10B03000984210B5044605D37246E3214BF21D0039
:10B04000FDF7ACFC72B6094B09481A6800EB4414D2
:10B0500001321A60002262711A68013A1A601B6894
:10B0600003B962B610BD00BFE8190020081900201E
:10B07000EC1900200E4B1B68984210B5044605D30E
:10B080007246EB214BF21D00FDF788FC72B6094BAE
:10B0900009481A6800EB441401321A600122227236
:10B0A0001A68013A1A601B6803B962B610BD00BF86
:10B0B000E819002008190020EC1900200E4B1B682D
:10B0C000984210B5044605D37246F3214BF21D0099
:10B0D000FDF764FC72B6094B09481A6800EB44148A
:10B0E00001321A60002222721A68013A1A601B6843
:10B0F00003B962B610BD00BFE8190020081900208E
:10B10000EC190020084B1B68984210B5044605D383
:10B110007246FB214BF21D00FDF740FC034800EB9B
:10B120004414207A10BD00BFE8190020EC1900205B
:10B1300008B5FFF79FFD18B1C088FFF79BFF0120FE
:10B1400008BD08B5FFF796FD18B1C088FFF7B6FF38
:10B15000012008BD2DE9F843394FDFF80081394C53
:10B16000394D3846FDF74AFB002102460646C8F82D
:10B170000000386829F048FC18220021204629F0F8
:10B1800043FC2B68DC33D82101229E42C4E9031220
:10B190002B6005D27246AA214FF21710FDF7FEFB75
:10B1A000D8F800E029682948AEEB010C00224FF0E6
:10B1B000180803781BBB02B129602B689E4505D295
:10B1C0007246BD214FF21710FDF7E8FB1D483D68A0
:10B1D0001C4F03F027F900262369B34227D8656185
:10B1E00003B9E3601A4B1B48002407211C701AF0B6
:10B1F00037F821461848BDE8F8431AF031B8013B4A
:10B2000008FB03430230DA6802F1040910F8012C4C
:10B21000BCFBF9F6B24228BF32461E6916441E61D5
:10B2200009FB02F31944ACEB030C0122C1E72946E8
:10B23000384603F007F9E36804331D440136CBE7D1
:10B24000B01C0020BC1C0020B81C0020384F03009C
:10B25000AC1C0020D41C0020DC1C0020B41C0020EE
:10B2600038B5134B1B68051FAB4206D972464FF425
:10B2700080714FF21710FDF791FB0E4843699D4214
:10B2800007D372464FF217104FF48671FDF786FB15
:10B29000002072B6084C236829460133236003F06E
:10B2A000FAF82368013B2360236803B962B638BD0E
:10B2B000B01C0020BC1C0020081900200949CB68E4
:10B2C00083420CD372B6084B88681A6801321A6040
:10B2D0001A68013A1A601B6813B962B670470020F9
:10B2E000704700BFBC1C002008190020034BDA681F
:10B2F00082422CBF18690020704700BFBC1C002090
:10B3000038B5284D2B68044633B972464FF49C710A
:10B310004FF21710FDF742FB042C1ED8DFE804F0B3
:10B32000260A030F08002048BDE8384019F0B4BFD2
:10B330001E48F9E7BDE838401B481AF02BB872B632
:10B340001B4B1A6801321A601A4A10781A68013ABF
:10B350001A601B6823BB62B622E072464FF21710D8
:10B360004FF4B071FDF71AFB002019E072B6104BD4
:10B3700011491A688C6801321A601A68013A1A6019
:10B380001B6803B962B6C8682B68043060430001CB
:10B390001B09B0FBF3F0FF2828BFFF20C043C0B259
:10B3A00038BD00BFB81C0020D41C0020DC1C0020CD
:10B3B00008190020AC1C0020BC1C002003280DD163
:10B3C00072B6074B1A6801321A60064A00211170E2
:10B3D0001A68013A1A601B6803B962B6704700BF69
:10B3E00008190020AC1C0020014819F0D0BF00BF94
:10B3F000D41C002007B50020FFF782FF0146019012
:10B40000044819F057FF0199034803B05DF804EBB5
:10B4100019F050BFD41C0020DC1C002072B60B4B6E
:10B420000B491A6801321A600A78FF2A1CBF0132E0
:10B430000A701A68013A1A601B6803B962B60B7881
:10B44000012B01D1FDF70ABA704700BF081900208F
:10B45000AC1C0020D82838B5044605D97246DE2138
:10B460004FF21710FDF79AFA1148C368A34203D2AE
:10B47000FFF7D4FF00201AE072B60E4D2B6801339F
:10B480002B6003F03DF82B68013B2B602B680446D2
:10B4900003B962B6002CEBD0074B1B68A34205D959
:10B4A0007246EC214FF21710FDF778FA201D38BDD7
:10B4B000BC1C002008190020B01C0020044A0B23EB
:10B4C0004FF6FE71013B918102F11002FAD17047F3
:10B4D000E41C0020152870B5064605D972462E21B9
:10B4E00040F6E820FDF75AFA72B6144D144A2B685C
:10B4F00001332B60144600234FF6FE719089884279
:10B5000014D104EB0314204602F08CFFA6812B68B3
:10B51000013B2B602B6803B962B62CB972464021FF
:10B5200040F6E820FDF73AFA204670BD01330B2BB8
:10B5300002F11002E2D10024E9E700BF081900205F
:10B54000E41C002038B5054628B97246462140F66D
:10B55000E820FDF723FA72B6094C23682846013328
:10B56000236002F0CDFF2368013B2360236803B909
:10B5700062B600B938BDFFF773FE72B6EDE700BFE3
:10B580000819002038B5044628B9084611B1FFF75C
:10B5900067FE204638BD61B172B60A4D2B68013393
:10B5A0002B6002F04FFF2B68013B2B602B6803B927
:10B5B00062B6A089FFF7FCFC002000F007F901202B
:10B5C000E8E700BF0819002038B5054628B97246DB
:10B5D000792140F6E820FDF7E1F972B6064C2368C0
:10B5E00028460133236002F08BFF2368013B236070
:10B5F000236803B962B638BD0819002010B50446A7
:10B6000028B97246842140F6E820FDF7C7F972B6E2
:10B61000054BA0681A6801321A601A68013A1A606C
:10B620001B6803B962B610BD08190020084B1B78CF
:10B6300010B50C462BB17246972140F6E820FDF775
:10B64000ADF9044B21461868BDE8104000F06ABB14
:10B65000E4190020A01D0020084B0948002210B565
:10B660001C681A60074B01221A7000F017FC1CB10D
:10B670002346BDE81040184710BD00BF9C1D0020A8
:10B68000981D0020941D002008B5064A0648002396
:10B690001370064A136000F001FCBDE8084004483E
:10B6A000FCF782BD941D0020981D00209C1D0020E9
:10B6B00059B6000070B5064608480D4600F0DAFBA2
:10B6C000044648B1064B28461E60FCF773FD04464D
:10B6D00010B9024800F0E2FB204670BD981D002022
:10B6E0009C1D002013B5064C019423781BB1002348
:10B6F000237002B010BD012101A8FEF767FFF4E737
:10B70000941D002072B6074B1A6801321A60064A6F
:10B71000002111701A68013A1A601B6803B962B6F9
:10B72000704700BF08190020941D0020014B1878B5
:10B73000704700BF941D002010B572B6094C2368F5
:10B7400001332360FCF73CFD074800F0A7FB074BE3
:10B7500000221A602368013B2360236803B962B6A4
:10B7600010BD00BF08190020981D00209C1D00205E
:10B770000A4B10B51C68FCF705FDD4E904310B44F5
:10B78000191A074BA1F196029A4288BF0021054B76
:10B79000186800F0C7FA4FF0FF3010BDE019002024
:10B7A00069FFFF7FA01D002008B500F0A1FA064B3D
:10B7B000186038B972463821BDE8084043F22420A9
:10B7C000FDF7ECB808BD00BFA01D0020034B1B68AF
:10B7D000834202D0184600F0EFBA7047A01D002047
:10B7E0002DE9F84FFCF7CEFC0025DFF820A1DFF8AB
:10B7F00020B1DFF8208107462C46A946DBF800304F
:10B800004B4523D8E888FFF77DFC012809D0D8F8FC
:10B810000030A34205D17246BC2143F22420FDF73B
:10B82000BDF8FCF7AFFCD8F8003037491861596112
:10B83000002C5ED15A698A4294BF5A6159611C46F4
:10B84000E088FFF7F3FB2046BDE8F88F5AF8045B69
:10B85000D8F80030AB4247D0E888FFF753FC012806
:10B8600042D02846FFF730FB002838D0E888FFF7A1
:10B87000C5FB18B92B69DB1B002B00DA2F61002CEC
:10B8800035D022792B799A428CBF26462E46D6E9AE
:10B89000043288BF2C46134422699B1A002B1CDB00
:10B8A000327923799A421FD17279637902F03F028B
:10B8B00003F03F039A4217D9637903F03F033F2B0C
:10B8C00005D17246C82143F22420FDF767F862795A
:10B8D0006379013262F305036371344604E0E8885A
:10B8E000FFF78CFB0028C1D109F1010986E72C463E
:10B8F000FAE72269121A02D500225A61A0E7952AB6
:10B900005A6197D89CE700BF105522008419002087
:10B91000E8190020E0190020F8B51C4C23782BB161
:10B9200072464B2143F22420FDF738F8184B1B6870
:10B930002BB972464C2143F22420FDF72FF8012346
:10B940002370144E144C154DFCF792FF306800F034
:10B950004FFAFFF745FF2060FCF714FC23682860CE
:10B96000988BFDF731FA2768FB68984723683861A0
:10B970001B79FE2BE8D0FCF705FC2B68C01A236866
:10B980009A698242E0D29861DEE700BFE4190020A4
:10B99000E0190020A01D0020DC190020A41D0020BB
:10B9A0007FB51422002101A829F02EF8074B00933F
:10B9B000FE238DF804306846054B0293FFF7A6F985
:10B9C000FFF774FA07B05DF804FB00BF3C4F0300BB
:10B9D00071B70000014B1868704700BFA41D00201C
:10B9E000044B4FF6FE7100225A6019801981DA600B
:10B9F000704700BFA81D00200A4B014618884FF66B
:10BA0000FE7290420AD01889904209D1012203EBBC
:10BA1000C20023F832100023436070470022F6E78B
:10BA200000207047A81D002038B50D46044628B9EF
:10BA30007246382145F26C20FCF7B0FF72B60A4B13
:10BA40001A6801321A6062682A4362601A68013A11
:10BA50001A601B6803B962B62088FFF7A9FABDE82F
:10BA600038400020FFF7B2BE0819002010B5044688
:10BA700028B97246472145F26C20FCF78FFF72B659
:10BA8000064B1A6801321A600022606862601A6808
:10BA9000013A1A601B6803B962B610BD081900208C
:10BAA000154938B50C464FF6FE7234F8143B134D69
:10BAB0009BB2934208BF00240B8B9BB2934205D0EC
:10BAC0004CB120462C31FCF793FB04462CB9FCF713
:10BAD00083FB2C600EE001F12C04296829B92C604D
:10BAE0002046BDE83840FCF771BB2046FCF786FBDA
:10BAF0000028F4D038BD00BFBC1D0020B81D0020B8
:10BB00002DE9F04F074689B072B6254D254C2B68BC
:10BB10004FF0000901332B604E464FF6FE784FF090
:10BB2000180A34F8142C42451AD039462046FCF73E
:10BB300065FBA8B108AB03EB0913A3F1200C14E9D2
:10BB40000F008CE80F00184B24F8148C0AFB063009
:10BB500010220021043028F057FF09F1010BD946CB
:10BB600018349EB1114A00211160FFF799FF2A682D
:10BB7000013A2A602A6802B962B66C4600254D4532
:10BB800004F1100404D109B0BDE8F08F0126C8E724
:10BB900054E9030154F8102C90470135EFE700BF3A
:10BBA00008190020D01D0020BC1D0020B81D002059
:10BBB00038B50C4C20464FF6FE7520F8045B102279
:10BBC000002128F021FF102204F11C000021258310
:10BBD00028F01AFF044B054800221A60BDE83840DF
:10BBE000FCF712BBBC1D0020B81D002001BB0000EB
:10BBF000F8B50F46044628B972463B2140F6D2609C
:10BC0000FCF7CCFE23682BB972463C2140F6D2608B
:10BC1000FCF7C4FE72B6154D154A2B6801332B6034
:10BC200013884FF6FE719BB28B421BD0138B9BB2D5
:10BC30008B4219D1012318214B43D618D75294E8CF
:10BC40000F00371D87E80F00E068FCF7CBFA706142
:10BC5000FFF726FF2B68013B2B602B6803B962B608
:10BC60003046F8BD0023E6E70026F3E70819002078
:10BC7000BC1D002070B50E46044628B972465121FD
:10BC800040F6D260FCF78AFE72B60C4D2B68013389
:10BC90002B602388B3420AD120464FF6FE7320F86A
:10BCA000043B1022002128F0AFFEFFF7F9FE2B68BD
:10BCB000013B2B602B6803B962B670BD08190020E8
:10BCC0000123037088B2FFF711B900000023074A6F
:10BCD00010B518464FF6FE7422F8234002EB83019C
:10BCE00001330A2B8870F7D110BD00BFEC1D002076
:10BCF00070B50B4E00244FF6FE7336F824209A429E
:10BD000009D1FFF7E3F806EB8405002326F82400A9
:10BD1000AB70284670BD01340A2CEED10025F8E73F
:10BD2000EC1D0020F0B50F4689B0044628B97246D4
:10BD30004F2141F27110FCF731FEFFF7C7F80023E5
:10BD40008DF807300646FFF7F7F8A31CA278029398
:10BD50000DF10703039302F0FF05D2B9CFB17A1CAE
:10BD600010D0144A314604A8CDE90423CDE9066772
:10BD7000FFF73EFF054628B97246692141F271106E
:10BD8000FCF70CFEA3784BB11DB131462846FFF7F6
:10BD900071FFA0780023A37009B0F0BD3046FFF713
:10BDA000F1F808B17B1CF4D1022102A8FEF70EFCC9
:10BDB000E8E700BFC1BC000038B5054628B97246A7
:10BDC000822141F27110FCF7E9FD72B6074C23683D
:10BDD000013323600123AB702846FFF7F7FC23688B
:10BDE000013B2360236803B962B638BD08190020FF
:10BDF00010B5044628B972468D2141F27110FCF746
:10BE0000CDFD72B6064B1A6801321A600022A2708C
:10BE10001A68013A1A601B6803B962B610BD00BF08
:10BE200008190020F8B50E480E4D0D4E02F0FAFA32
:10BE300000242746294630460334AF6002F02BFB2E
:10BE40000C2C05F10C05F5D1074802F0EBFA074878
:10BE500002F0E8FABDE8F840054800F01FB800BF5E
:10BE60005C1E0020141E0020441E0020501E0020D6
:10BE7000681E002072B6084B1A6801321A6001224F
:10BE8000016802601A68013A1A601B6803B962B659
:10BE9000B1FA81F0400970470819002072B6064BCC
:10BEA0001A6801321A60002202601A68013A1A60A8
:10BEB0001B6803B962B67047081900204FF4007080
:10BEC000704708B5002019F0AFFC08BD264A0346AC
:10BED0009342084645D017D8244A934233D00BD812
:10BEE000234A93422BD0234A93422AD049F2432239
:10BEF000934232D0002070471F4A93422BD01F4AF2
:10BF00009342F7D100F0E2BB1D4A93421DD00AD8FC
:10BF10001C4A93421BD01C4A934220D01B4A934296
:10BF2000E8D101F075BB1A4A934212D002F54702DC
:10BF300002F58A4226329342DCD102F0A9B800F021
:10BF400017BB00F0AFBD02F045BA01F001B801F037
:10BF500043BE01F06BBE02F011B902F04DB900F022
:10BF6000C7BE00F03FBE00BF493BFD0138230F00B4
:10BF700061F1030036230A004DC2130015FF4E0184
:10BF800076D6CE7465C1F902B70B086E1808F202B6
:10BF9000AFD6137710B50A4904461022303028F086
:10BFA000FBFC58B10649102204F1200028F0F4FCF3
:10BFB000002814BF4FF0FF30202010BD3020FCE7D8
:10BFC000414F030070B51E4C1E4D23689AB09B690B
:10BFD000022101A898470198421C03D10020286043
:10BFE0001AB070BD23680BA91B6998470028F5D1CA
:10BFF000154B1B68DDE90C465B6902A898479DF864
:10C00000203034440BB9A4F580542B6801330CD193
:10C010003046FFF7BFFF431C05D0103032183358AD
:10C02000B3F5007F03D000232B602868D8E7516860
:10C030008E42F8D19268A41BA242F4D8F4E700BF64
:10C04000FC180020101600200019002010B50F4C1D
:10C05000236890B09B690221684698470098431C6A
:10C0600002D1002010B010BD236801A91B699847B8
:10C070000028F6D1039CFFF7A5FFB0F5007FF0D3B1
:10C080002046FFF787FF10302044EBE7FC18002024
:10C0900008B5FFF7DBFF00B1806808BD08B5FFF702
:10C0A000D5FF0346054843B1DB6833B1834204D36F
:10C0B000034A934298BF23F00F0008BD00C0002040
:10C0C0000000012030B593B028F05AFC002841D080
:10C0D000FFF778FF044600283CD04FF0804026F060
:10C0E0004BFD002836D001F089FF02F083F801F003
:10C0F00055FD00F02BFF00F035FA02F069F901F070
:10C1000093FD00F0E1FA02F038F800F0A3FC01F032
:10C110008DFA00F0EBFD00F063FD0F4B0193B4F5D9
:10C12000007F17D30D4C236802219B6902A8984712
:10C130000298431C0ED0236803A91B699847044644
:10C1400040B903A825F01EFC01AB05462246044871
:10C150002146A84713B030BD00000120FC18002084
:10C16000544F030008B528F00BFC30B1FFF72AFF4D
:10C1700018B1BDE8084001F09DBF08BD014B186033
:10C1800000207047701E0020014B1860002070478F
:10C190006C1E002006207047014B1860002070477D
:10C1A000741E0020014B1860002070477C1E002088
:10C1B0005020704702207047022070470B680360D0
:10C1C0004B6843604B6983600B690362DB08C360A3
:10C1D00091F82C3003F1FF3CDCF1000343EB0C033E
:10C1E000037491F82D30437491F82E308374CB682A
:10C1F000B3F5807F28BF0023C374CB69436191F8F6
:10C200003030037791F82F3043774B6A836191F890
:10C2100031305BB1436A8A8E5A8091F83620901E85
:10C22000424242411A714A8E1A80704743627047F7
:10C2300010B558B1012807D1002420460DF072FA3C
:10C240000DF07AFAA04203D0032010BD0124F4E7D8
:10C250000020FAE710B598B00DF1070204A90446D2
:10C260000DF1060026F08CF802A826F09BF89DF848
:10C2700007300133DBB2FF2B08BF00238DF80730F6
:10C280009DF8072002AB04A9204626F0F7F80628FF
:10C290009ABF024B185C022018B010BD604F03001B
:10C2A00080F0010027F084BC13B5044601A826F0F5
:10C2B0005FFB18B9019B236002B010BD0720FBE7AC
:10C2C00026F011BB38B5044626F00AFB054626F0D9
:10C2D00005FBC4E90050204638BD26F0FFBA000037
:10C2E00010B50B4C236896B07BB10EF0C1F80190ED
:10C2F0000EF056F902F07CF8009002A80EF05EF9FC
:10C30000DDE90021236802A8984716B010BD00BFE0
:10C310007C1E002008B5134650B149B142B10A460F
:10C320000146184626F068F8002818BF022008BD0C
:10C330000520FCE738B5044678B105780FF0ECFE2F
:10C3400085420CD8247820461CB90DF093FF204676
:10C3500038BD0DF08FFF0024F9E70424F7E703242C
:10C36000F5E700002DE9F043474B85681A6840F275
:10C3700006239A428DB0044609D8444B9D426BD1A6
:10C38000434A92E803006B4683E803000546E37BDB
:10C3900003F001069A0748BF46F00206DF0648BFD1
:10C3A00046F0100618070FD5A91C0DD002AF38466D
:10C3B00025F0F6FD97E80C0001990095284628F035
:10C3C000CCFA08B946F00806A77B012F55D8D4F857
:10C3D0000480B8F5803F52D200211C2205A8B4F891
:10C3E0000C9028F011FB236801990493284606ABB2
:10C3F00083E80300237C8DF82130637C8DF82230A4
:10C40000E37BADF8148013F0140F00958DF82070C5
:10C410008DF82360ADF8249004D0DA0622D50122ED
:10C420008DF826209B060DD5A38AADF82830E38A27
:10C4300046F020068DF82360CBB901228DF82C2020
:10C44000ADF82A3004A827F039F90E2819D8114B75
:10C45000185C0DB0BDE8F0836FF07F439D4296D12C
:10C460000D4A8EE7A27C002ADAD10B20F1E7227E6A
:10C470000AB10222E2E70322E0E70220E9E7062010
:10C48000E7E70120E5E700BF781E0020FEFFFF0080
:10C49000547D0300674F03005C7D030000B589B045
:10C4A00003680193436802690293836803930492CB
:10C4B000837D828AADF81420D0E90601069001A898
:10C4C0008DF81630ADF81C10FFF74CFF09B05DF881
:10C4D00004FB000073B50E461546044670B168466D
:10C4E00025F060FF6B4632462146284625F0C6FF00
:10C4F000062805D8034B185C02B070BD0520FBE789
:10C500000220F9E7604F030010B5044698B010B35D
:10C510000DF1070204A90DF1060025F031FF02A874
:10C5200025F040FF9DF807309DF806000133DBB28F
:10C53000FF2B08BF00238DF8073001F059FF9DF84D
:10C54000072002AB214625F099FF062805D8044BA9
:10C55000185C18B010BD0520FBE70220F9E700BF0A
:10C56000604F030001480EF0D7B900BFE1C20000E0
:10C57000A0F500730E2B0ED8094B186040F20A2369
:10C5800098420AD9074B084A40F20B21884218BF4B
:10C590001346184670470023FBE7044BF9E700BF3A
:10C5A000781E0020F84F0300784F0300B04F0300BF
:10C5B00010B5084B1C688CB0014644B102A8CDF8F8
:10C5C0002CD0FFF7FBFD02A8A0470CB010BD012046
:10C5D000FBE700BF701E00200C4B10B51A6840F23C
:10C5E0000A239A428AB0014604D90AB0BDE8104035
:10C5F000FFF7DEBF064B1C6834B16846FFF7DEFD6F
:10C600006846A0470AB010BD0120FBE7781E002055
:10C610006C1E002030B50C4C246885B08CB1089D90
:10C62000ADF80800CDE900539DF828308DF80A10C8
:10C6300068468DF80B208DF80C30A047012005B01E
:10C6400030BD2046FBE700BF741E0020002070476D
:10C65000002070470020704738B50D46044611464B
:10C6600090B9287025F08CF9013805280ED8DFE83C
:10C6700000F008040D060D030324204638BD0524F0
:10C68000FBE701232B70F8E700232B700624F4E767
:10C6900008B5014638B925F071F918B1042814BF5E
:10C6A0000620052008BD0620FCE708B540B9012199
:10C6B00025F064F918B1052814BF0620002008BD34
:10C6C0000620FCE70020704770470000B0F5017FAE
:10C6D000024607D2044B054840F203218A4208BFB4
:10C6E000184670470020704738500300445003003C
:10C6F0000A4A136810B55BB100211160084A094C61
:10C700001078094A126832B12168984700232360E3
:10C710004FF0FF3010BD1146F7E700BF881E002024
:10C72000A01E0020841E0020981E002008B503F0E3
:10C73000A9FD08B103F050FE002008BD08B5054B67
:10C740001B6823B1044B01221A7003F0CBFE0020BA
:10C7500008BD00BF881E0020A01E002008B503F001
:10C76000DBFE002008BD08B526F038FA002008BD21
:10C7700008B526F02DFA002008BD00002DE9F84389
:10C780002C492D4B2D4F1A683B6806460868D41873
:10C7900000B104604FF0000942F80390751D20239A
:10C7A000636028460C600EF0B4FDA06028460EF0D1
:10C7B000A1FDA06128460EF0A5FD207733686361D6
:10C7C0003379637728460FF0E9FAA07728460EF010
:10C7D000A7FD402828BF402004F1200849462061D9
:10C7E00040220646404628F00FF928460EF0A8FDE4
:10C7F000014618B13246404628F0DEF83B68104941
:10C80000C4F80C8003F160023A600A6801320A60E1
:10C810000C4909688A4207D00B4A1268C033934218
:10C8200005D30A4B03221A700020BDE8F8830120CB
:10C83000FBE700BF941E0020841E00209C1E0020E9
:10C84000981E00208C1E0020901E0020A01E00209C
:10C8500020B9054B1A780AB902221A70034B00213D
:10C860001868FEF78FBE00BFA01E0020801E0020AB
:10C870002DE9F84380469DF820900E4617461D4648
:10C8800026F03AF80446E8B9B9F1000F04D0B8F13F
:10C89000000F07D1042412E025F0A2FB0428F6D1F2
:10C8A00005240CE0B6F1807F08D22E60284626F0E1
:10C8B000FBF818B1384626F0F1F800B903242046F9
:10C8C000BDE8F8830724FAE730B51D4B1B6889B033
:10C8D00005469BBB03F0D6FC08B103F07DFD0123A8
:10C8E00000932A7A696803AB2846FFF7C1FF044624
:10C8F000F8B92B6841F6DC62A3F1640191421BD8C0
:10C90000D5E9041211B91AB1042412E0402A13D84F
:10C910004FF47A70434302932B89ADF81030EB68E3
:10C92000079202A8CDE9053103F062FD002808BF97
:10C930000624204609B030BD0324FAE70624F8E7B0
:10C94000881E0020F0B585B0054603F09BFC00284A
:10C9500041D1254E3368002B3DD100932A7BA96835
:10C9600003AB2846FFF784FF0446002836D12F6822
:10C97000002F32D0AA69002A2FD0696842F20F73C3
:10C9800099422ED8286942F2AC63A0F16401994221
:10C9900027D8696929B3EB695F2B22D93760134F18
:10C9A0003960134F13493A60134A0C601460134AFC
:10C9B0001360134B1C60134B1C70134B00932A7BAA
:10C9C000124B4FF47A7503A9684303F069FD28B947
:10C9D000002333603B60062400E00424204605B0B9
:10C9E000F0BD0324FAE700BF881E00208C1E002043
:10C9F000841E0020981E0020941E0020901E0020FF
:10CA00009C1E0020A01E002051C800007DC7000011
:10CA100030B585B004460D4603F034FCB0B90C4B7C
:10CA20001B689BB903930093214602AB2A4603A8D7
:10CA3000FFF71EFF044630B9294602A803F05CFD4B
:10CA4000002808BF0324204605B030BD0524FAE7BE
:10CA5000881E00207FB50E4B002119600D4B14225B
:10CA600001A8196027F0D0FF0B4B00931A238DF813
:10CA700004300A4B0293684642F210730493FEF7A7
:10CA800045F9FEF727FD064B186007B05DF804FB7B
:10CA9000881E0020841E002060500300F1C60000A4
:10CAA000801E0020B0F5007F014888BF002070473D
:10CAB0007C50030010B5044C24682468A047062865
:10CAC00028BF012010BD00BFFC18002010B5044C89
:10CAD00024686468A047062828BF012010BD00BF55
:10CAE000FC18002008B5044B1B689B689847062873
:10CAF00028BF012008BD00BFFC180020014B1B68A7
:10CB0000DB681847FC18002010B51B4B1B6890B061
:10CB10001B690C4601A998479DF83E30022B04D0B2
:10CB2000052B23D0052010B010BD002384F8313030
:10CB3000F0B9019B2360029B63609DF83C3084F850
:10CB40003030059BA360069BE360079B2361089B35
:10CB50006361099BA3610A9BE3610B9B23620C9BAE
:10CB600063620D9BA3620E9BE362DCE70123DDE7BA
:10CB7000062828BF0120D6E7FC1800202DE9F04345
:10CB8000DFF8589099B008238DF80330D9F80030B9
:10CB900080465B690F4601A80DF103019847002606
:10CBA00001AC35469DF80330B34203D83D7019B04F
:10CBB000BDE8F083D9F8003020681B6909A99847BF
:10CBC00048B99DF85E30022B01D0052B03D12368B4
:10CBD00048F82530013501360434E3E7FC1800201D
:10CBE00070470000B0F5007F014888BF0020704703
:10CBF0009C50030010B5044625F07EFE28B134B1E8
:10CC0000204601F01BFE002010BD0720FCE7042099
:10CC1000FAE770B5A2B0044625F06EFE002840D0B9
:10CC2000002C40D0E5786B1E092B36D82688731E61
:10CC3000B3F57A7F2ED2002204F10A0131F83230A6
:10CC4000013B9BB2B3F57A7F24D20132AA42F5D3DD
:10CC50008022002102A827F0D7FEA3788DF80630A5
:10CC600001ABADF804608DF8075000221846617AD8
:10CC7000597261895981217A19720132616859604A
:10CC8000D1B28D4204F1080403F10803EFD801F09A
:10CC90005BFD20B9032022B070BD0520FBE700201A
:10CCA000F9E70720F7E70420F5E710B586B004465A
:10CCB00025F022FEB0B1BCB12368009363680193F4
:10CCC000A3680293E3680393236904936846237D72
:10CCD0008DF8143001F09CFC002814BF00200320C4
:10CCE00006B010BD0720FBE70420F9E770470000FD
:10CCF000B0F5007F014888BF00207047B4500300A2
:10CD00000220704702207047014B186000207047D6
:10CD1000A41E002012280FD812281CD8DFE800F02B
:10CD20001D13171B201B1B1B1B1B1B1B1B1B1B1B58
:10CD30000A15190011207047422810D0522814BF3C
:10CD40000020932070470220704712207047032074
:10CD500070471320704700207047012070478320E0
:10CD6000704708B5FFF7D6FFBDE8084025F0DAB9EF
:10CD700082B002AB009013E9030002B025F0E8B8DE
:10CD800025F08CBE07B5B0F1807F019005D201A8D7
:10CD900025F08AFE03B05DF804FB0020FAE7F0B549
:10CDA000064685B000284FD0CC000D22214618F051
:10CDB00094F8002802DB032005B0F0BD00250C2C00
:10CDC0000DF1070028BF0C24ADF80850ADF80C5049
:10CDD00025F04CFE9DF807002A461146013282429A
:10CDE00009D08C422DD3CB0801F00701F35C0B4135
:10CDF00013F0010326D00C2AEFD1DCE7DA0803F0A8
:10CE00000705B05C103228416A4410F0010F14BFCE
:10CE100012F8040C12F8080C07FA05F149B215BF14
:10CE20000143014302F8041C02F8081C0133A34229
:10CE3000E4D102A808F080FA03A808F055FA00200F
:10CE4000BAE700230127F2E70420B5E72DE9F34113
:10CE50000A46054640B30191002127F0D5FD019A0D
:10CE60000024D7004FF00108661CF0B2019208F0D0
:10CE70008BFA10F0800F019A09D0A7420CD9E30871
:10CE800004F00704E95C08FA04F40C43EC540C2E9B
:10CE90003446E9D1002004E00021284627F0B4FD03
:10CEA000032002B0BDE8F0810420FAE730B585B078
:10CEB0000446684625F036FC042814D00C4B1A684A
:10CEC00040F205239A420CD984B16A46234604AD48
:10CED000144603CCAC4218605960224603F10803A3
:10CEE000F6D1002000E0052005B030BD2046FBE76C
:10CEF0001416002030B585B00446684625F044FC81
:10CF0000042814D00C4B1A6840F205239A420CD91D
:10CF100084B16A46234604AD144603CCAC42186083
:10CF20005960224603F10803F6D1002000E00520F5
:10CF300005B030BD2046FBE71416002008B525F0EB
:10CF4000C1FB01280CBF0720002008BD704700006E
:10CF5000A0F50073082B09D8054B064A1860064B4C
:10CF6000B0F5027F18BF1346184670470023FBE751
:10CF70001416002040510300C850030006289ABF31
:10CF8000014B185C01207047C050030037B50C46B8
:10CF9000054698B191B101A825F03AFC034640B985
:10CFA000BDF804202A80BDF806202280184603B070
:10CFB00030BD03B0BDE83040FFF7E0BF0423F5E724
:10CFC00037B50C46054698B191B101A825F0F6FB9E
:10CFD000034640B99DF804202A809DF80520228050
:10CFE000184603B030BD03B0BDE83040FFF7C6BF00
:10CFF0000423F5E708B525F079F9BDE80840FFF707
:10D00000BDBF08B528B125F04FF9BDE80840FFF7CE
:10D01000B5BF042008BD07B5ADF8040001A8ADF800
:10D02000061025F03BFC03B05DF804EBFFF7A6BF4C
:10D0300037B50C460546A8B1A1B101A825F0C4FB3F
:10D040000428034610D020B103B0BDE83040FFF7FC
:10D0500095BFBDF804202A80BDF80620228018461E
:10D0600003B030BD0423FAE70523F8E708B528B17B
:10D0700025F040FBBDE80840FFF780BF042008BD55
:10D0800008B528B125F068FBBDE80840FFF776BF7A
:10D09000042008BD08B5FFF73DFE28B124F0F2FFDB
:10D0A000BDE80840FFF76ABF032008BD13B504467A
:10D0B000B0B30DF1070025F013F80428034631D072
:10D0C00020B102B0BDE81040FFF758BF9DF807102F
:10D0D000080601F0100205D512B1522222700FE0AD
:10D0E0004222FBE701F00F01013903291CD8DFE8D8
:10D0F00001F0020A10150AB11022EFE72270134660
:10D10000184602B010BD0AB11122E7E701232370CF
:10D11000F5E70AB11222E1E70223F8E70422DDE78E
:10D120000423EDE70523EBE70123E9E708B525F044
:10D1300087FCBDE80840FFF721BF13B5044690B156
:10D140000DF1070025F092FC042803460DD020B114
:10D1500002B0BDE81040FFF711BF9DF80720227014
:10D16000184602B010BD0423FAE70523F8E7B0F132
:10D17000807F07B508D2019001A825F027FC03B0F5
:10D180005DF804EBFFF7FABE032003B05DF804FB83
:10D1900013B5044680B101A825F032FC04280346EB
:10D1A0000CD020B102B0BDE81040FFF7E7BE019AF5
:10D1B0002260184602B010BD0423FAE70523F8E701
:10D1C00008B524F025FFBDE80840FFF7D7BE13B52A
:10D1D000044690B1002301A8019324F039FF0428EC
:10D1E00003460CD020B102B0BDE81040FFF7C6BE28
:10D1F000019A2260184602B010BD0423FAE7052305
:10D20000F8E708B528B125F07DFCBDE80840FFF738
:10D21000B5BE042008BD08B525F0A4FC042805D03F
:10D22000052805D0BDE80840FFF7A8BE052008BDC9
:10D230000020FCE708B525F04BFCBDE80840FFF7EF
:10D240009DBE08B528B125F055FCBDE80840FFF7A4
:10D2500095BE042008BD000082B002AB03E90300C4
:10D26000074B1B6843B1074A1268B2F5017F38BF0C
:10D2700020F07F4002B01847184602B0704700BF48
:10D28000A41E002014160020014B1860704700BF38
:10D29000C41E0020014B1868704700BFA81E002064
:10D2A000014B1860704700BFB41E002008B50A4B40
:10D2B0001B787BB1013B022B05D8084B1868BDE8F1
:10D2C000084017F0B8BD724640F2571148F2EE70B0
:10D2D000FBF764FB002008BDB01E0020C01E00202C
:10D2E00008B5084B1B78032B02D8074AD05C08BD51
:10D2F000724648F2EE7040F23111FBF74FFB01200D
:10D30000F5E700BFB01E0020DD51030008B5FFF7B0
:10D31000E7FF022806D1044B1A6840F201239A4223
:10D3200098BF012008BD00BF1816002013B525F0D6
:10D33000E3FA002401288DF8074025D1174B18483F
:10D340001C70184B1C70FDF7FCFE1748FDF7F9FE2A
:10D350001648FDF7F6FE03F0ADFD01F083F910B1BC
:10D36000204601F0A5F90DF1070024F0B9FE0020D8
:10D370001CF0B7F925F00CFB0D4B186810B11B68B9
:10D380009847002002B010BDFFF7AAFF022803D182
:10D39000044B01221A70F4E70720F3E7B01E0020C7
:10D3A000534E0300C81E0020D3510300D851030080
:10D3B000C41E002008B508F0EBFC012003F08AFF32
:10D3C00010F096FC08B110F09BFC1CF0E0F910483E
:10D3D000FDF7AEFE0F48FDF7ABFE0F48FDF7A8FEC8
:10D3E0000E4B02221A700E4B1A680AB11B6898473E
:10D3F000FAF7BCFE0B4B1B68C01A0B4B18600B4BAB
:10D400001B781BB1BDE80840FFF790BF08BD00BF07
:10D41000D8510300D3510300534E0300B01E002027
:10D42000B41E0020AC1E0020A81E0020C81E002034
:10D4300038B5134B012200201A7004F063F8002560
:10D440000446BCB14DB101200BF02CF9BDE83840C9
:10D45000C0F130010B4817F0FDBC204604F0ACFBD6
:10D460000546204604F0A1FB2046002104F03AF8CE
:10D470000446E6E7002DE6D1BDE83840FFF79ABF45
:10D48000B01E0020BC1E0020F7B5002304460D4648
:10D490008DF80730FAF76AFE224B214618602248C1
:10D4A00017F0D8FC0DF1070024F01AFE9DF80730A4
:10D4B000033B012B32D825F01FFA1C4B621E9A4207
:10D4C00006462DD86A1F40F252239A4200D93DBB2E
:10D4D000174F2946384617F0BDFC1EB107242046D9
:10D4E00003B0F0BD20460AF0ABFB25F005FA044678
:10D4F0000028F3D10F4B10491888FDF7C1FC0CF040
:10D50000AFFF10B1FFF794FFE9E7386817F087FC29
:10D510000028F7D1094B03221A70E0E70524DEE763
:10D520000324DCE7AC1E0020C01E00207F3A090067
:10D53000B81E00201C16002040420F00B01E002024
:10D5400038B52D4D2B78032B2FD8DFE803F00902D7
:10D5500025182A4B186817F062FC58B1FFF72AFF0C
:10D56000FAF710FE2B780446032B3AD8DFE803F0D5
:10D5700040252A2504F0F8FB0028F1D1EEE70CF055
:10D580006FFF10B1FFF754FFEAE71D4B186817F063
:10D5900046FC0028F6D1E3E71A4B186817F03FFC69
:10D5A0000028DDD0FFF7C2FEDAE772464FF4D571EE
:10D5B00048F2EE70FBF7F2F9D2E700F5742000F5BF
:10D5C000107038BDFFF772FE012838BF01200346F6
:10D5D000B0F5E16F0C4828BF4FF4E16300FB034056
:10D5E000EFE7724640F21A2148F2EE70FBF7D6F9E7
:10D5F00006482044E5E700BFB01E0020BC1E002006
:10D60000B81E0020C01E002040420F0000D2496B0F
:10D61000A0F50073032B9DBF024B18600248002049
:10D62000704700BF18160020E451030030B5134DB9
:10D630000FCD87B06C460FC495E8030084E8030063
:10D640006846FDF763FB0E4B0E4A188000231370EB
:10D650000D4A0E4813600E4A13600E4A40F2032131
:10D6600011600D4A137017F0D6FB0C4817F0D3FB6E
:10D670000B4807B0BDE8304017F0CDBBA87D0300D4
:10D680001C160020B01E0020A81E0020C01E002076
:10D69000AC1E002018160020C81E0020B81E002056
:10D6A000BC1E002001299FBF034B1970034B18605B
:10D6B00094BF002003207047D41E0020D01E0020FD
:10D6C000014B186000207047D81E0020014B1860E5
:10D6D00000207047DC1E0020014B186000207047BE
:10D6E000CC1E0020022070470220704702207047A5
:10D6F000014B186000207047E01E002007B5124A59
:10D700008DF80510137883F001038DF804300023A1
:10D7100013700E4B1B68B3F5037F08D90C4B1B68C5
:10D7200013B101A90320984703B05DF804FB094B2E
:10D730001B68002BF8D0084A1278012A01D1012871
:10D74000F2D19847F0E700BFC91E0020E41E002078
:10D75000DC1E0020D01E0020D41E002007B50D4B7B
:10D760001B68B0FA80F04009B3F5037F8DF8040020
:10D7700008D9094B1B6813B101A90220984703B0CF
:10D780005DF804FB054B1B68002BF8D001A89847F7
:10D79000F5E700BFE41E0020DC1E0020D81E00209C
:10D7A000054B1B6801462BB110B10021042018471E
:10D7B0000520FCE7704700BFDC1E002008B525F0FF
:10D7C00035FD18B9024B01221A7008BD0720FCE78D
:10D7D000C91E002010B5044624F0ABFC38B1204629
:10D7E00010F044FB002814BF0020032010BD24F0DB
:10D7F000E9FB0128F3D00520F8E708B525F07CF80F
:10D8000003465A0700F0010048BF40F002009907A4
:10D8100048BF40F004001A0748BF40F00800D9068E
:10D8200048BF40F010009A0648BF40F020001B0699
:10D8300048BF40F0800008BD10B524F07AFC30B13C
:10D8400025F05AF8044640B10724204610BD24F0C4
:10D85000B9FB0128F4D00524F7E7012003F0C6FD49
:10D86000F3E710B5044688B008B301A826F006FB1C
:10D870009DF80430022B0FD12370029B6360049B40
:10D88000A3609DF8183007982373012107F0E2FB8D
:10D890006073002008B010BD5A1E534253412370DC
:10D8A00000204FF47F43C4E90100A381F2E7042084
:10D8B000F0E708B524F056FE002818BF052008BD83
:10D8C00008B528B124F06CFE002818BF052008BD5B
:10D8D0000420FCE72DE9F04F85B00546FAF746FC39
:10D8E0006C6887B225F028FB00260346B0464FF04F
:10D8F00002094FF0010A13B12A68B24204D800208D
:10D900002E6005B0BDE8F08F5A6800925A8ABA1AA4
:10D91000ADF804209A89ADF80620DA89CDE90288AD
:10D92000ADF808201A7C8DF80B205A7C8DF80C205D
:10D930009A7D12F0030205D0032A14BF4A465246CC
:10D940008DF80A209A7DC2F38102012A05D0022AAD
:10D9500014BF4A4652468DF80D2004F1100BEC46D8
:10D960000DF1100E624603CA724520606160944654
:10D9700004F10804F6D1184625F0E4FA013603460E
:10D980005C46B8E713B504460DF1060024F052FFDB
:10D99000022806D03CB1BDF806302380002002B03A
:10D9A00010BD0720FBE70420F9E7000008B5044A92
:10D9B00097214DF6AE401BF0F3FE002008BD00BFDE
:10D9C0000052030010B524F0E3FF044618B900F03C
:10D9D000B9FB204610BD0524FBE715F071BF13B558
:10D9E000044601A824F0E0FF20B92CB1019B23607C
:10D9F00002B010BD0720FBE70420F9E71FB50C4B70
:10DA00001B68B3F5037F0BD90A4C236833B1684612
:10DA1000FFF727FF236869460620984704B010BD2A
:10DA2000054B1B68002BF9D004B0BDE81040184727
:10DA3000E41E0020DC1E0020E01E00207FB5274DE4
:10DA40002B68044653B3264B8669196890F9490040
:10DA500094F94A20019640F20623994204F13003DA
:10DA600004F118011CD88DF80A00ADF8082003C98C
:10DA70000CCB26F072FF94F84E308DF80C3094F8F1
:10DA800039308DF80D3023788DF80B00023B18BF2C
:10DA900001238DF80E302B6801A8984704B070BDA3
:10DAA0008DF809008DF8082003C90CCB26F055FF2E
:10DAB00094F84E308DF80B3094F839308DF80C30E6
:10DAC00094F852308DF80E3023788DF80A00023B1E
:10DAD00018BF01238DF80D30DDE700BFCC1E0020FC
