:020000040800F2
:1080000003B40148019001BD318000080000000068
:10801000FFFFFFFFFFFFFFFFFFFFFFFFFFFFFFFF70
:10802000FFFFFFFFFFFFFFFFFFFFFFFFFFFFFFFF60
:1080300008B50446104B83F308881048104A1149CC
:10804000121A2DF07BF81048104A0021121A2DF058
:108050009CF80F4A0F4B9A6022680F4B1A606268B7
:108060000E4B1A60A2680E4B1A60E2680D4B1A6044
:1080700000F01AF8FEE700BF0016002000160020EE
:1080800018190020A0A50308181900204875002021
:108090000016002000ED00E0201B0020281B00201F
:1080A0002C1B0020241B002008B500F0E7F802F08C
:1080B000AFFE1DF0B1FF012021F0C9FB00F00EF86A
:1080C00021F0FEFB002008BD08B500F0AFF800F07D
:1080D00059F800F5742000F5107008BD7FB500F068
:1080E000B9F878B10A4B00931E238DF80430094B80
:1080F0000293094BCDE90330012368468DF8143013
:1081000002F0BEFE07B05DF804EB00F0DDBA00BF80
:1081100080550308C980000840420F00FF207047C7
:108120004FF4007307B50A490DF10602ADF80630A9
:1081300024F037F8BDF80630B3F5007F05D10228EA
:1081400008BF002003B05DF804FB0120FAE700BF80
:108150001819002072462B214BF64F2000F056BB19
:10816000014B1860704700BF181B0020014B1B68B3
:108170001B681847181B0020014B1B685B681847D9
:10818000181B0020014B1B689B681847181B002018
:10819000014B1B685B691847181B0020014B1B68CB
:1081A0009B691847181B0020014B1B68DB691847A7
:1081B000181B0020014B1B681B6A1847181B002066
:1081C000014B1B685B6A1847181B0020014B1B689A
:1081D0009B6A1847181B0020014B1B68DB6A184775
:1081E000181B0020014B1B681B6B1847181B002035
:1081F000014B1B685B6B1847181B0020014B1B6869
:108200009B6B1847181B0020014B1B68DB6B184742
:10821000181B0020014B1B681B6C1847181B002003
:108220004FF4007002F0A6B91020704738B500F086
:1082300033FEFFF79BFF064D04462B68C31AB3F5C8
:10824000E14F03D900F092F800B12C6038BD00BFB7
:108250001C1B00206420704708B5064B1B68062BCA
:1082600005D9054B1B681B689847007808BD01209D
:10827000FCE700BF201B0020241B002010B500F0ED
:1082800047FC00F065FA4FF480302E492E4A4B6EC1
:108290005066486E4FF000414AF6CD3451662B4986
:1082A00003F480334A6C0C6402F001024C6BE40767
:1082B000FCD4012426494C60244C216BC907FCD511
:1082C0002449D1F8081689075EBF4FF4802420495D
:1082D000CC6512B11D4A204911640028A2BF4FF09D
:1082E00000411E4A51661BB94FF480321B4B5A663F
:1082F00002F038F900F0CAF82022194B194883F827
:10830000222383F8232383F8262383F8252383F865
:10831000202383F81F2383F8242383F8282306F0DF
:1083200057FA00F00DF900F003FAFFF795FF38B1A6
:10833000002002F023F8FFF719FF0B4B186010BD67
:108340000120F6E700800040009000400040094016
:108350000060094000C007403254FFFF00A0004009
:1083600000E100E0218200081C1B00200120704772
:1083700070B586B001AA1546224B03F110061446CB
:1083800018685968083303C4B3422246F7D1186805
:108390001D4B20601B68072B2ED91C4C23681B68C3
:1083A0009847436843B323681B6898472A46436845
:1083B0001B6803F11006144618685968083303C493
:1083C000B3422246F7D118682060114BD3F84C21F4
:1083D00012035CBFD3F850318DF80E309DF80E407B
:1083E00001F026FB204480F308008DF80D0028469C
:1083F00001F062FA06B070BD78238DF80D308DF86B
:108400000E30E2E76CA40308201B0020241B002090
:108410000080E00F1FB5194A01AB9169506903C391
:10842000918B927F19809A70154B1B68072B21D96D
:10843000144C23681B6898474368DBB123681B68AA
:10844000984743685A6801AB5168106803C31189A3
:10845000927A19809A700C4A01A8D2F84C3113F420
:10846000802304BFD2F850218DF8053001F0E6FAE0
:1084700004B010BD25238DF80530ECE76CA403088B
:10848000201B0020241B00200080E00F002103227D
:10849000254B10B5596203F500531A624FF4803230
:1084A000224BC3F88420BFF34F8FBFF36F8F4FF47D
:1084B0008010C3F884211E4A4FF08074506645F640
:1084C0000E001C4AC2F880001B48846251671B4999
:1084D00002F5005211674FF40052C3F88420BFF335
:1084E0004F8FBFF36F8FC3F88421FFF741FFFFF772
:1084F000B3FE08B1FFF78EFF0321802001F050FB8F
:10850000FFF7AAFE28B17246692148F6897000F08B
:108510007DF92022054B83F8272383F84A2383F82B
:108520004B2383F8472310BD0080004000E100E0AA
:10853000009000400040004A0050004A0F8030F890
:108540004FF040234FF4003130B5D3F89420196731
:10855000930785B04CD412F0180F4BD195064BD42D
:1085600054074BD42B4B1340002B49D112F0400140
:1085700048D1D00703D4002A14BF0521002102A846
:1085800000F00AFB244B01A85A6A42F4E0225A6226
:108590005A6942F010025A6100238DF804308DF8B8
:1085A000053001F057FDDDE90245E20605D07246CF
:1085B0000B214AF2701000F029F9EB0624D0724624
:1085C0000C214AF2701000F021F90022124BC3F87E
:1085D000982044F00702C3F89C2005222C44013C5B
:1085E00044F00104C3F8A040C3F8942005B030BDA6
:1085F0000E21C4E70421C2E70F21C0E71021BEE726
:108600001121BCE71321BAE7002DDED172460D21FE
:10861000D7E700BF800F008000ED00E008B500F054
:1086200029FB00F017F9BFF34F8F0549054BCA68C6
:1086300002F4E0621343CB60BFF34F8F00BFFDE74E
:1086400000ED00E00400FA0570B5064603F0DEFD1B
:108650000E4D04466A0705D072464E214AF270104C
:1086600000F0D4F8630705D072464F214AF270102B
:1086700000F0CCF8A54205D3724650214AF27010A2
:1086800000F0C4F83560601B70BD00BF4875002065
:10869000014B986C704700BF0080E00F014BD86C15
:1086A000704700BF0080E00F034B5868C0F308001C
:1086B000003818BF0120704700ED00E0014801F0CC
:1086C00078BD00BF0040004B30B5144D01212D2076
:1086D00085B000F033FE6C6814F001041BD1032256
:1086E0000F4BC3F800220F4A01AB10685168128982
:1086F00003C3284601A91A8001F06CFD9DF80B30D8
:108700004BB10223084A93614FF40062EB61074BBF
:1087100083F82B435A6005B030BD00BF0040004BCA
:10872000008000408BA403080060004B00E100E0E3
:1087300008B501212D2000F001FEFFF7BFFFBDE8C5
:1087400008400021014801F020BD00BF0040004B5F
:1087500000230120134A13605A09920003F01F01FD
:1087600002F1604200FA01F102F56142C2F88011A3
:10877000C2F88010BFF34F8FBFF36F8F01334C2BC4
:10878000EAD14FF00072084BC3F88420BFF34F8F3B
:10879000BFF36F8FC3F88421602283F8392362B658
:1087A000704700BF341B002000E100E0684620F065
:1087B00007018D4631B5112082B000F01BFA114D32
:1087C00004462B682BB972464E214EF6A83000F0B5
:1087D0001DF84FF000720C4BC3F88420BFF34F8F8D
:1087E000BFF36F8FC3F884212B68019300232B60A4
:1087F000019B9847204600F0FDF902B0BDE83140EA
:1088000085467047301B002000E100E070B5064649
:1088100001200F4B14461A688DB218609AB1334686
:108820002A4621460220FFF7F9FEFFF747FF62B60E
:108830000A2002F0CBFA33462A462146BDE87040B2
:108840000220FFF7EBBEFFF72FFF0128EDD1E6E78F
:10885000381B002038B5EFF308850D4C0D4B204632
:1088600040F80C3B0C4BA9B20A1A5B1A92B29BB2AD
:108870009A4228BF1A462946228165602CF05EFC88
:10888000064B2846218923601CF06EFB608138BDB1
:108890004004002055AA55AA00160020706D7444AB
:1088A0002DE9F04F4FF0000A2A4D90F8008080F833
:1088B00000A02A68284B04469A420E4691B02DD15A
:1088C00005F10C07384629891CF04EFB6B89834261
:1088D00024D1DFF88CB00221DBF8003068469B69B8
:1088E0009847814608BBDBF8003000981B6901A956
:1088F0009847B0B9DDF80C9003F082FC00EB090357
:1089000000211648DFF85CC057F8042B12F0010F65
:108910000DD12A89043189B28A42F5D211B0BDE85D
:10892000F08F4B464FF00109EAE75346FAE78242DF
:1089300001D3624503D39145EBD89342E9D994F82A
:1089400000E046F82E2022780132D2B24245227051
:10895000DFD3E3E740040020706D7444008000081A
:10896000281B0020B8A8030838B5092000F000FA39
:108970000A2000F0FDF90B2000F0FAF9082000F0C1
:10898000F7F9114D052000F0F3F9042000F0F0F99B
:108990002A680E4B9A4215D1298905F10C001CF06A
:1089A000E3FA6B89834209D10024642002F0DCF9E8
:1089B00004342B89A4B2A342F7D203E000F09EF95D
:1089C0000428F1D038BD00BF40040020706D74440D
:1089D000EFF3088141F27C635D2209208969FFF78A
:1089E0001DFE0000EFF308840023164AC2F89430FD
:1089F000906A154B20F06040A1691861D06A002888
:108A0000BEBF186940F000401861D26A520042BFF0
:108A10001A6942F080421A610A4A48BF216BD06A43
:108A2000800742BF186940F000501861906B586190
:108A3000526B0A209A6141F27C634FF41272FFF785
:108A4000EDFD00BF00ED00E020040020EFF30883FF
:108A500000229969074BC3F89420986A064A10616E
:108A60009B6B0B20536141F27C6340F25622FFF76F
:108A7000D5FD00BF00ED00E020040020EFF30883E7
:108A800000229969064B0C20C3F894209A6A054B82
:108A90001A6141F27C6340F26222FFF7BFFD00BF22
:108AA00000ED00E020040020EFF3088141F27C6338
:108AB000742203208969FFF7B1FDEFF3088141F2C9
:108AC0007C63792203208969FFF7A8FDEFF3088111
:108AD00041F27C637E2203208969FFF79FFD00003D
:108AE000EFF3088300229969074BC3F89420986A32
:108AF000064A10615B6B0D20936141F27C634FF479
:108B00001C72FFF78BFD00BF00ED00E02004002089
:108B1000064B074A598911801989064A11805988DC
:108B2000054A11801A88054B1A80704720040020DE
:108B3000441B0020481B0020461B00203C1B00203B
:108B4000F8B572B60021104C104D23682022013375
:108B500023600F4BD5F894701846C5F894105E79D1
:108B60002CF013FB0B4AF6B2C2610522027147F6E4
:108B70008542C2804671C5F894702368013B23602A
:108B8000236803B962B6F8BD341B002000ED00E095
:108B900020040020EFBEADDE70B5124B124C06462D
:108BA000E361124B0D461A602379132B0AD847F65E
:108BB0008542E3889BB2934204D141B113290DD081
:108BC000257104E0FFF7BCFF002325716371084B9A
:108BD00030461B6833602023736070BD2379052BFA
:108BE000F5D1EDE7EFBEADDE20040020401B0020F4
:108BF00098A40308024630B572B600200B4B0C4C0B
:108C0000196892B2013119600A49D1F89450C1F83B
:108C1000940060896281C1F894501A68C0B2013A28
:108C20001A601B6803B962B630BD00BF341B002058
:108C30002004002000ED00E010B572B600240A4BBD
:108C40001A6801321A60094AD2F89410C2F89440A6
:108C5000074C2081C2F894101A68013A1A601B6808
:108C600003B962B610BD00BF341B002000ED00E068
:108C700020040020F0B572B60D4C0E4E256801356B
:108C800025600025D6F89470C6F894500A4D2871D6
:108C9000E9606A802B8047F68543EB80C6F89470C4
:108CA0002368013B2360236803B962B6F0BD00BFAF
:108CB000341B002000ED00E02004002010B572B647
:108CC0000B4B0C491A680C4801321A600022D1F88B
:108CD0009440C1F8942042790132D2B24271C1F875
:108CE00094401A68013A1A601B6803B962B610BD55
:108CF000341B002000ED00E020040020014B187917
:108D0000704700BF20040020084B1A790A2A0BD0B4
:108D10001A790B2A08D01A790C2A05D01879A0F1F3
:108D20000D0358425841704701207047200400202D
:108D3000064B1A790A2A02D01A790B2A03D118692C
:108D4000C0F3C03070470020704700BF20040020EF
:108D5000064B1A790A2A02D01A790D2A03D118690A
:108D6000C0F3C01070470020704700BF20040020EF
:108D700008B50B2828D8DFE800F030303030060680
:108D80000C30151B1F23164B1879831F584258416E
:108D900008BD144B1888013880B212288CBF0020FF
:108DA0000120F5E7104B1868003818BF0120EFE7E5
:108DB000BDE80840FFF7A8BFBDE80840FFF7B8BF0F
:108DC000BDE80840FFF7C4BF724641F27C6040F244
:108DD000CF11FFF71BFD0020DAE70120D8E700BF25
:108DE00020040020441B0020401B002008B50B2855
:108DF0003ED8DFE800F0060A0D0F12181E242629BF
:108E000030361F4B5879C0B208BD1E4B1888FBE79F
:108E10001D4BFBE71A4BD868F6E7194B1A79062A5F
:108E200024D00020F0E7164B1A79062AF9D15869A8
:108E3000EAE7164B1888431E122BF2D8E4E7144BCE
:108E4000E4E7144B1868DFE7FFF75EFF0028E8D07F
:108E50000B4B1869D8E7FFF76BFF0028E1D0084BF0
:108E6000E5E7FFF775FF0028DBD0054B9869CBE7F6
:108E7000724640F21B2141F27C60FFF7C7FCD0E74D
:108E8000200400203C1B0020461B0020441B002027
:108E9000481B0020401B0020064BDA69064B9A4213
:108EA00006D0724640F2222141F27C60FFF7AEBC50
:108EB000704700BF20040020EFBEADDE4FF040231E
:108EC000D3F88420D206FBD4D3F88400C0F38110F9
:108ED0007047000038B5174B0546D3F820310C46D3
:108EE00003F00703013B052B20D8DFE803F0030B59
:108EF000130F171B01F0B2F9052305B1286004B167
:108F0000237038BD01F0E0F90323F6E701F0E8F93A
:108F10000723F2E701F0E0F90223EEE701F09EF902
:108F20000623EAE701F0D0F90423E6E70023184618
:108F3000E3E700BF0080004038B5124B0546D3F888
:108F400028310C4603F00703013B032B17D8DFE859
:108F500003F0020E120A01F081F9052305B1286021
:108F600004B1237038BD01F0BBF90723F6E701F027
:108F7000ABF90323F2E701F0AFF90223EEE7002398
:108F80001846EBE70080004073B50D460021124AF9
:108F90000191D2F88041064604F00304022C13D05C
:108FA000032C0CD0012C14D101A8FFF793FF0F2341
:108FB0000EB1019A326005B12B7002B070BD01F0A4
:108FC0008FF907230190F3E701F086F9234601901A
:108FD000EEE70B46ECE700BF00800040002337B50A
:108FE0000193154B0546D3F820320C4603F00703D6
:108FF000013B032B1ED8DFE803F0020E13180021FB
:1090000001A8FFF799FF11230DB1019A2A6004B15D
:10901000237003B030BD01F063F907230190F3E73B
:1090200001F0A0F90A230190EEE701F0A1F909236C
:109030000190E9E70023E7E70080004038B5104BD6
:109040000546D3F840310C4603F00303022B0BD046
:10905000032B0DD0012B0FD101F084F90A2305B1A8
:10906000286004B1237038BD01F082F90923F6E7C6
:1090700001F07BF90B23F2E700231846EFE700BF6E
:1090800000800040002337B50193164B0546D3F806
:1090900060320C4603F00703013B032B1FD8DFE8C7
:1090A00003F0020E1914002101A8FFF713FF0F238C
:1090B0000DB1019A2A6004B1237003B030BD0021C4
:1090C00001A8FFF7BBFF1023F2E701F009F907231E
:1090D0000190EDE701F000F902230190E8E7002399
:1090E000E6E700BF0080004038B5134B0546D3F8D3
:1090F00000320C4603F00703013B032B18D8DFE8CE
:1091000003F0020A0E1201F02DF90A2305B12860BE
:1091100004B1237038BD01F02BF90923F6E701F003
:1091200024F90B23F2E701F0B9F80E23800AEDE7EA
:1091300000231846EAE700BF0080004038B5134B13
:109140000546D3F808320C4603F00703013B032B16
:1091500018D8DFE803F0020A0E1201F003F90A231F
:1091600005B1286004B1237038BD01F001F909236D
:10917000F6E701F0FAF80B23F2E701F08FF80E237F
:10918000800AEDE700231846EAE700BF00800040B0
:1091900038B5104B0546D3F840320C4603F00303B4
:1091A000022B0BD0032B0DD0012B0FD101F0DAF8DD
:1091B0000A2305B1286004B1237038BD01F0D8F846
:1091C0000923F6E701F0D1F80B23F2E70023184654
:1091D000EFE700BF0080004038B5104B0546D3F8DC
:1091E00050320C4603F00303022B12D0032B08D09D
:1091F000012B0AD00023184605B1286004B1237062
:1092000038BD01F0B2F80B23F6E701F0ABF80A2302
:10921000F2E701F0ADF80923EEE700BF008000405F
:1092200038B5104B0546D3F860310C4603F0030304
:10923000022B0BD0032B0DD0012B0FD101F092F894
:109240000A2305B1286004B1237038BD01F090F8FD
:109250000923F6E701F089F80B23F2E7002318460B
:10926000EFE700BF0080004070B5054614460E468B
:1092700000F07EFF296881EA040202EA06044C40FD
:109280002C60BDE8704000F077BF0000B0F5207F93
:109290001FD009D8B0F5007F15D003D868B1B0F55C
:1092A000C07F0AD000200CE0B0F5607FFAD10B4BF4
:1092B000D3F88000C0F3011003E0084B186FC0F32F
:1092C000033001307047054BD3F89000C0F30460C1
:1092D000F7E7024B186FC0F38020F2E700800040F0
:1092E0004FF4803238B50E4B05469A660020FFF7E2
:1092F000CDFF0C4B6843DC690B4D144041F67132D5
:10930000DA635A68A84222F4401203D9012918BF2F
:1093100042F480125A600CB10022DA6338BD00BFFB
:109320000090004000000340005A620208B500F0BF
:10933000C7FFBDE808400021FFF7D2BF430905D0B1
:10934000012B0DD0022B094B18BF002300F01F008A
:1093500041B103F58053012202FA00F01860704712
:10936000034BF3E703F50053F5E700BF68800040C7
:10937000648000401FB504460020B4F5807F029051
:1093800000F0F5806BD8002C00F0D580203CA3B213
:10939000602B74D8602C72D8DFE814F0CD00D000B8
:1093A000CD00D000DF00DF00DF00DF00DF00D000F5
:1093B000E4007A00FB009A007A00D000D000D000D0
:1093C0007100710071007100710071007100FB008B
:1093D000D000D000D00023010001D0007100710046
:1093E00071007100710071007100710071007100F5
:1093F000710071000501DF00CD00CD00CD00AD0092
:109400007A007A00B5000A018F00C400C400710020
:1094100071007100710071007100710071007100C4
:1094200071007100710071007100710071007100B4
:1094300071007100710071007100710071007100A4
:109440007100710071007100710071007100710094
:10945000710071007100710071007100C900B4F5F4
:10946000E06F00F09B8038D8B4F5607F70D01AD8D8
:10947000B4F5007F6CD005D8B4F5C07F5BD00298FE
:1094800004B010BDB4F5207F58D0B4F5407FF6D1BC
:1094900000F004FF02464FF42070FFF7F7FEB2FB26
:1094A000F0F0400845E0B4F5B06F5BD00AD8B4F5F1
:1094B000806F52D0B4F5A06FE1D1002102A8FFF770
:1094C0008DFDDCE7B4F5C06F63D0B4F5D06FD6D1B5
:1094D000002102A8FFF708FED1E7B4F5286F67D096
:1094E00016D8B4F5186F5ED00AD8B4F5F06F78D0FE
:1094F000B4F5106FC3D1002102A8FFF71FFEBEE72D
:10950000B4F5206FBBD1002102A8FFF7BBFDB6E781
:10951000B4F5306F56D0B2D3B4F5386F39D0B4F556
:10952000406FACD1002102A8FFF706FDA7E700F0CD
:109530009BFE0290A3E700F0B1FEFAE700F0AEFE5A
:1095400002464FF42070FFF7A1FEB2FBF0F0F0E707
:1095500000F08AFE02462046F5E7002102A8FFF748
:10956000B9FC8CE7002102A8FFF70EFD87E74FF05A
:10957000E02303901B695B0705D500F08FFE039085
:10958000039B02937BE70DF1070103A8FFF756FD4C
:10959000F6E7002102A8FFF751FD70E7002102A8BD
:1095A000FFF7F6FD6BE7002102A8FFF715FE66E75F
:1095B00000210E4B0391D3F8703203F00303012B0B
:1095C000DED1E2E7094BD3F8903203F00303012B1D
:1095D00004D0022BADD100F083FEAAE700F07CFEA0
:1095E000A7E7002102A8FFF71BFE48E70080004024
:1095F00008B58020FFF7BEFE034B98429EBF4FF494
:109600008032024B1A6708BD005A620200A0004077
:10961000002307B5B0F5807F8DF8023000F0D480CC
:1096200079D858286AD8382808D8243883B2092B22
:109630004AD99DF8020003B05DF804FB39381F28B1
:10964000F7D801A353F820F0F197000833960008EB
:109650003396000833960008FD97000847980008E5
:1096600033960008339600083396000833960008B6
:1096700033960008339600083396000833960008A6
:109680003396000833960008339600083396000896
:1096900033960008539800083D9700083396000859
:1096A0003396000833960008859700083396000823
:1096B000339600085F9800086B9800083B980008F4
:1096C000A9970008A99700080928B2D801A353F860
:1096D00020F000BF3D9700083D9700083D97000827
:1096E0003D9700083D97000833960008BD97000895
:1096F00033960008F19700085D970008802898D1FC
:109700006C4B1B6F03F00703013B032B91D8DFE881
:1097100003F0CE518890B0F5086F75D024D8B0F51D
:10972000C06F65D010D8B0F5A06F00F08680B0F59E
:10973000B06F43D0B0F5806F7FF47BAF00200DF1A8
:109740000201FFF7C7FB74E7B0F5E06F7BD0B0F51F
:10975000F06F53D0B0F5D06F7FF46BAF00200DF1F8
:109760000201FFF7C1FC64E7B0F5286F7DD00FD888
:10977000B0F5186F6DD0B0F5206F70D0B0F5106FE8
:109780007FF457AF00200DF10201FFF7D7FC50E73F
:10979000B0F5306F7CD0FFF44CAFB0F5386F27D008
:1097A000B0F5406F7FF445AF00200DF10201FFF7E7
:1097B000C3FB3EE705238DF802303AE700200DF1A8
:1097C0000201FFF7E1FB34E701934FF0E0231B694F
:1097D0005B0707D500F062FD0C238DF803309DF880
:1097E0000330E8E70DF1030101A8FFF727FCF6E7D6
:1097F00000200DF10201FFF721FC1AE700200DF116
:109800000201FFF70DFD14E72A4BD3F8003103F0F6
:109810000303022B07D0032B09D0012B0BD100F03F
:1098200053FD0323C7E700F0A3FD0923C3E700F0BE
:1098300051FD0823BFE70123BDE700200DF1020120
:10984000FFF7CCFBF5E600200DF10201FFF7A0FCCD
:10985000EFE600200DF10201FFF7BEFCE9E6002073
:109860000DF10201FFF70EFCE3E60021114B01911F
:10987000D3F8703203F00303012B04D0022B14BF82
:109880000B46142397E701A8FFF7D8FB102392E7B4
:10989000084AD2F8902202F00302012A05D0022AD7
:1098A00089D100F01DFD072385E700F015FD022397
:1098B00081E700BF0080004070B504468020FFF7BC
:1098C000A7FE032800F083804FF480124F4B504EC8
:1098D0005A6645F60E034FF0A062C6F880304D4B35
:1098E0009A624FF4803203F580539A62B56D15F495
:1098F0008035FBD1637822781B0543EA0263A279A5
:109900004FF440611343E278434843EA024322792B
:1099100043EA0233627943EA82133361B369E27A3C
:1099200003F000431343E27943EA8263227A43EA75
:109930000263627A43EA0243A27A43EA0223B361F2
:109940004FF40062FFF790FC617B336A002918BF77
:109950000825227B23F00F0343EA010343EA820335
:109960002B4A45EA030515622C4D31D1A37C916A3F
:10997000A07BDB000D4043EA4013E17B2B4343EA2D
:10998000011343F480339362254B916D33EA010157
:10999000FBD14FF080711F4881621369A57823F4D1
:1099A000700343EA055313614FF000438361237C46
:1099B0000BB91C4B9962637C1BB94FF48032194B75
:1099C0009A62E37C1BB1124B174AC3F8802070BD2A
:1099D000022909D100234FF47F4113611348936199
:1099E0004FF40852FFF740FC0949237C8A6AA07BA8
:1099F0001B062A4043EA40131343A27C43EAC203F6
:109A0000627C43EA02438B62DBE700BF00900040C8
:109A10000040004A0050004A3840004AC7FFFEFE9E
:109A2000030001000060004AF1A7FFFF3440004A34
:109A3000014B93F900007047E0170020F0B54FF498
:109A400000061B4A41788478C378057856664FF43F
:109A5000D156022702F5B8325662164E4F2977606A
:109A60004FF0010728BF4F2106F580567760166931
:109A7000F603FCD441EA052151611B01417943EA17
:109A800004230B43017943EA41039360C37981794D
:109A90001B0143EA4113417A0B43017A43EA410334
:109AA0005360837A13B16FF4D1535362F0BD00BF9A
:109AB00000900040001002400029CCBF012100218D
:109AC000FFF70EBCB0F5207F10B50C4642D008D889
:109AD000B0F5007F33D003D888B1B0F5C07F0ED089
:109AE00010BDB0F5607FFBD11F4B013CD3F8801057
:109AF00021F0300141EA0414C3F88040F0E7FFF799
:109B000015FC00F035F84FF48031184A164B1167F8
:109B1000196F013C21F4704141EA04341C6700F0E4
:109B2000BDFB0446FFF7CAF9C0F102012046FFF76A
:109B3000C3FF00F023F8BDE81040FFF759BD0A4B02
:109B4000013CD3F8901021F0F85141EA0464C3F8C5
:109B50009040C5E7044B013C196F21F4806141EA54
:109B600084241C67BCE700BF0080004000900040D8
:109B700002214FF42070FFF7A5BF000008B54FF495
:109B8000C070FFF7F7FBBDE80840044988428CBF6E
:109B9000022101214FF42070FFF794BF80F0FA02F8
:109BA000B0F5807FF8B50C4600F0538174D8582882
:109BB00066D8382804D8243883B2092B46D9F8BD92
:109BC00039381F28FBD801A353F820F0C59E0008A0
:109BD000BF9B0008BF9B0008BF9B0008E79E0008D2
:109BE0004D9F0008BF9B0008BF9B0008BF9B00085B
:109BF000BF9B0008BF9B0008BF9B0008BF9B0008DD
:109C0000BF9B0008BF9B0008BF9B0008BF9B0008CC
:109C1000BF9B0008BF9B00086F9F0008C59C000801
:109C2000BF9B0008BF9B0008BF9B0008439D000826
:109C3000BF9B0008BF9B0008D59F0008F79F000846
:109C40002B9F0008819D0008819D00080928B6D837
:109C500001A353F820F000BFC59C0008C59C000874
:109C6000C59C0008C59C0008C59C0008BF9B000857
:109C7000319E0008BF9B0008C59E0008FF9C00089D
:109C800080289CD18B1E062B00F2CF80DFE803F0EA
:109C9000CAB8CD89CDCDC700B0F5086F00F03481CA
:109CA0003ED8B0F5C06F00F00D811CD8B0F5A06FA4
:109CB00000F03B81B0F5B06F00F0BA80B0F5806F76
:109CC0007FF47DAF023CE4B2052C8CBF0021B04B89
:109CD000B04A98BF195DD2F8203123F007030B4337
:109CE000C2F820316BE7B0F5E06F00F02F81B0F5DE
:109CF000F06F00F0F880B0F5D06F7FF460AF093CF2
:109D0000E4B2052C8CBF0021A34BA24A98BF195D79
:109D1000D2F8003223F007030B43C2F800324EE7BB
:109D2000B0F5286F00F067811CD8B0F5186F00F00F
:109D30001E81B0F5206F00F04D81B0F5106F7FF4FB
:109D40003EAF093CE4B2052C8CBF0021934B914AF5
:109D500098BF195DD2F8083223F007030B43C2F80D
:109D600008322CE7B0F5306F00F05681FFF427AFD2
:109D7000B0F5386F00F0A680B0F5406F7FF41FAFEC
:109D8000023CE4B2052C8CBF0021854B814A98BF70
:109D9000195DD2F8283123F007030B43C2F82831AC
:109DA0000DE7002502264FF480370121022000F044
:109DB0005DF9FFF7BBFAFFF7DBFE7A4B754A1F67C9
:109DC000136F23F007033343136700F067FA064667
:109DD000FFF774F8C0F102013046FFF76DFE012174
:109DE000002000F083F9FFF7C9FEFFF701FC002D0A
:109DF0007FF4E5AE032C7FF4E2AE6B4B9F62DEE6B0
:109E00004FF48012674B03265A664FF48032674B3B
:109E10009D6A03F58053C5F300659A62C3E7002588
:109E20000426C0E700250126BDE700252E46BAE737
:109E3000023CE4B20D2C8CBF00215D4B554A98BF0B
:109E4000195DD2F8803123F003030B43C2F880314F
:109E5000B5E60C2920D01BD8A1F10904022C3FF64D
:109E6000AEAE4FF480324B4B5249586E03F58053DF
:109E70005A664B6A43F001034B62C1035CBF4E4B11
:109E80005A664FF0E022136923F00403136196E64B
:109E900010297FF494AEE4E74FF480323D4B4549FE
:109EA000586E03F580535A664B6A23F001034B62E8
:109EB000C3035CBF404B5A664FF0E022136943F086
:109EC0000403E3E7093CE4B2022C8CBF00213B4BC6
:109ED000304A98BF195DD2F8403123F003030B4399
:109EE000C2F840316BE6093CE4B2022C8CBF002181
:109EF000334B284A98BF195DD2F8603123F0030331
:109F00000B43C2F860315AE6CC1EE4B2062C8CBF7B
:109F100000212C4B1F4A98BF195DD2F8003123F065
:109F200003030B43C2F8003149E6073CE4B20A2CB4
:109F30008CBF0021244B174A98BF195DD2F82032FC
:109F400023F007030B43C2F8203238E6093CE4B2A1
:109F5000022C8CBF00211D4B0E4A98BF195DD2F810
:109F6000403223F003030B43C2F8403227E6093C9A
:109F7000E4B2022C8CBF0021154B064A98BF195D34
:109F8000D2F8503223F003030B43C2F8503216E6E6
:109F90009755030800800040A0550308A05503080A
:109FA000B8550308009000400060004A0040004A95
:109FB0008955030800C0074000A000409D550308D4
:109FC0009D550308A6550308AD5503089D55030884
:109FD0009D550308023CE4B20E2C8CBF0021174BA8
:109FE000174A98BF195DD2F8603223F007030B437C
:109FF000C2F86032E3E5102C0CD0142C14BF002101
:10A0000002210F4AD2F8703223F003030B43C2F847
:10A010007032D4E50121F4E702290CD0072914BFDE
:10A0200000210221064AD2F8903223F003030B43A9
:10A03000C2F89032C3E50121F4E700BFBE55030822
:10A0400000800040024A536B0342FCD1704700BFBE
:10A05000004009404FF04022536F417823F4407391
:10A0600043EA01235367704770470000F8B5044680
:10A070004FF04023D3F88420D106FBD4D3F88430AA
:10A08000C3F381139C422DD000F0EEF8012C06465C
:10A0900002D12146FFF710FD00F06AF84FF0007280
:10A0A000114B07465A662046FFF7DEFF4FF48063E8
:10A0B0004FF04025621E93402B676B6E9A0103D4CC
:10A0C000D5F884309B060AD5384600F055F8022CA6
:10A0D00008D13046BDE8F8400021FFF7EDBCD5F8C7
:10A0E0008430EAE7F8BD00BF0060004007B518B94A
:10A0F000019100F0B9F80199064B1B7843B1064B6A
:10A10000984205D8012003B05DF804EBFFF7AEBF1D
:10A110000220F8E74A1B0020005A62024FF000427A
:10A120000F4B70B55D6E03F580535A664AF6CD331A
:10A1300004460C4980204E6C0B64FFF783FF0B6ACA
:10A1400023F4F85343EA04230B62F30744BF064B9E
:10A150000B64002DA2BF4FF00042044B5A6670BD45
:10A1600000800040004009403254FFFF00A0004042
:10A17000EFF3108072B6704700B962B67047EFF324
:10A18000108072B67047FFF7F7BF4369002B0FDBF3
:10A1900051B9436ADA07FCD4012200F500535A6032
:10A1A00043689B07FCD47047012300F5805043604F
:10A1B0007047436810B5DA0704460AD5FFF7DFFF9A
:10A1C000636ADB075CBF0123E360BDE81040FFF773
:10A1D000DABF10BDF8B5436805460C464BB16B6A53
:10A1E000002BFCD1012205F500535A606B689B07D8
:10A1F000FCD46378227A002BA37814BF4FF0200C94
:10A200004FF0000C002BE37814BF04270027002B2D
:10A21000237914BF08260026002B637A14BF102070
:10A220000020002B14BF4FF480710021E379120746
:10A2300042EA0362A37942EA034343EA0C033B4345
:10A24000334303430B43AB6028462178FFF79DFF60
:10A2500063790BB100232B62F8BD0000014B186835
:10A26000704700BFE8170020084B1B6F03F007037F
:10A27000022B04D0032B05D0012B05D0FEE7044BA5
:10A2800018687047034BFBE70348704700800040A5
:10A29000E8170020EC170020002D310108B5FFF76A
:10A2A000E3FF054B1B6FC3F303330133B0FBF3F044
:10A2B000024B186008BD00BF00800040E41700207A
:10A2C0000048704700B4C404014B1868704700BFD1
:10A2D000EC1700200020704700487047002D310126
:10A2E0004FF094439868C0F304400C2822D8DFE86C
:10A2F00000F0092121212121071719211B1D1F0011
:10A300000F4870479B6803F04073B3F1807F13D010
:10A31000B3F1007F12D00B4A002B08BF10467047E4
:10A32000094870470948704709487047094870470D
:10A330000948704700207047084870470848704730
:10A34000405DC60000093D000024F400C0EA210180
:10A3500080BA8C010048E801005A620280841E0025
:10A3600040420F004FF4004070474FF47A7070473E
:10A37000014B1868704700BFF017002038B1012862
:10A3800007D0724629214DF61430FEF73FBA00F08F
:10A3900095B800F03FB880B584B000AF0346FB80AD
:10A3A00000F0C0FA0346FB6000BF00F0BBFA0246B3
:10A3B000FB68D21AFB889A42F7D300BF00BF103760
:10A3C000BD4680BD08B500F0AFFA0023014A2AF06F
:10A3D00035FF08BD40420F0008B500F0A5FA00188F
:10A3E00043F609524FF0000349412AF027FF08BD08
:10A3F00010B500F099FA0446090143F6095200230A
:10A40000200141EA14712AF019FF10BD00F08ABA48
:10A4100000F088BA08B500F06DFA00F0E9FB00F032
:10A420000BFB022000F0A6F8BDE808400148FDF74C
:10A4300097BE00BFD055030808B500F029FAC00B3D
:10A4400040EA414008BD08B500F022FA000A40EA9F
:10A45000016008BD08B500F01BFA400940EAC16080
:10A4600008BD13B500F05EFA044601A800F032FA08
:10A4700000F04AF8019B2044C01A02B010BD08B594
:10A4800000F006FABDE8084000F03EB813B500F051
:10A4900049FA044601A800F01DFA00F04BF8019AB1
:10A4A000131BC01A61F1000102B010BD08B500F025
:10A4B000EFF9BDE8084000F03DB8000008B500F035
:10A4C00019FA00F0E3F800F093FB00F0B5FABDE8EC
:10A4D00008400148FDF744BE145603080246002315
:10A4E00013B5084CCDE90023DDE90001A0FB0423EE
:10A4F00004FB0133CDE90023DDE90023180902B094
:10A5000010BD00BF05BD378613B5094CCDE900016C
:10A51000DDE90001A0FB042304FB0133CDE90023A6
:10A52000DDE90023900E40EA831002B010BD00BFA9
:10A530000000127A024613B543F60954C1F316031C
:10A54000CDE90023DDE90001A0FB042304FB013376
:10A55000CDE90023DDE90023500A40EAC350590A3F
:10A5600002B010BD0022014B1A6070474C1B002046
:10A570007047000072B6074B07491A6801321A602B
:10A580000A68104308601A68013A1A601B6803B928
:10A5900062B67047341B00204C1B002072B6084B7B
:10A5A00008491A6801321A600A6822EA0000086045
:10A5B0001A68013A1A601B6803B962B6704700BF97
:10A5C000341B00204C1B002013B5EFF310830193C4
:10A5D000012383F310880F4B1A6800238B420DD19F
:10A5E0000D4B92B11A6922F004021A61BFF34F8F2A
:10A5F00030BF019B83F3108802B010BD50F8234098
:10A600002478002CF5D10133E8E71A6942F00402FE
:10A61000EBE700BF4C1B002000ED00E0034B5A6845
:10A62000D20702D5DA69002AF9D1704700800A40C2
:10A63000054B9A689107FCD45A689207F9D4DA69F5
:10A64000002AF6D1704700BF00800A4070B50C4662
:10A6500016460546FFF7E2FF0B4B01469A690020BC
:10A6600002F59C52083200F005F92146002000F066
:10A67000F1F829463246002000F0FCF82146BDE8FA
:10A680007040002000F0E0B800800A40F0B50025DE
:10A69000402787B0174B02AC0FCB84E80F00164B56
:10A6A000164E1D60164B8DF804501D60C6F888705C
:10A6B000BFF34F8FBFF36F8F44F27672114B1A6264
:10A6C00000F076F8FFF7B4FF00F096F8FFF7B0FF60
:10A6D0003023C6F8887101A886F84633B76000F0C9
:10A6E0007BF82146284600F08DF800F055F807B0B9
:10A6F000F0BD00BFA0A40308501B002000E100E053
:10A70000541B002000800A4007B5024621B1019089
:10A710002020FFF72FFF019A0421012003B05DF8EC
:10A7200004EBFFF793BF7047024602210020FFF7BA
:10A730008DBF704708B5FFF771FF014B986908BDE1
:10A7400000800A40684620F007018D4631B5102090
:10A75000FEF750FA0546002000F082F88207044612
:10A7600001D500F0DBFA630701D500F037FA28467F
:10A77000FEF740FABDE8314085467047054B9A68C0
:10A780009107FCD45A689207F9D4DA69002AF6D105
:10A79000704700BF00800A4008B5FFF7EFFF0122B5
:10A7A000024B03F580514A601A6108BD00800A40DF
:10A7B000074B5A68012A0AD15A68D20702D5DA69CA
:10A7C000002AF9D102221A610122024B5A60704715
:10A7D00000800A4000A00A4010B5064CFFF7CEFFEB
:10A7E0006368012B03D1FFF7E3FFFFF7C7FF03788F
:10A7F000E36010BD00800A400122014B9A6070475F
:10A8000000800A40E8B94A680B7812B1127843EA2E
:10A81000C2034A78002A14BF0222002213438A6826
:10A8200012B1127843EA82138A78002A14BF0422F4
:10A8300000221343CA6812B1127843EA4223014A44
:10A840009364704700800A4008B9014B596470470F
:10A8500000900A4008B9014B1964704700A00A40F3
:10A8600020B9034B5A6C186C104070470020704799
:10A8700000800A4040B911B1012903D07047034B51
:10A88000DA647047014B1A65704700BF00800A40C8
:10A8900010B572B60B4C236801332360FFF74AFFF3
:10A8A00009490B688342094B82BF1A6801321A605A
:10A8B000086019682368013B2360236803B962B606
:10A8C00010BD00BF341B0020541B0020501B002073
:10A8D000401A704738B50446FFF72CFF0546FFF7CE
:10A8E00029FF8542FBD000F01DF82060BDE838400C
:10A8F000FFF7CEBF08B50023084A01201360084ABD
:10A90000136021F05DF838B97246BDE808402F2188
:10A9100042F65160FDF77ABF08BD00BF581B00200A
:10A920005C1B002021F073BC10B572B60B4C236881
:10A930000133236021F06BFC09490B688342094B0A
:10A9400082BF1A6801321A60086019682368013BE7
:10A950002360236803B962B610BD00BF341B00201A
:10A960005C1B0020581B002013B5044621F04FFC4F
:10A97000241A0120FFF7FEFD0B4821F052F80023B6
:10A98000012200930848094B24EAE47121F03CF8C5
:10A9900040B172466F2142F6516002B0BDE81040EE
:10A9A000FDF734BF02B010BD601B0020C9A900082C
:10A9B00008B5044821F035F8BDE808400120FFF74C
:10A9C000EDBD00BF601B002008B5FFF7F1FFBDE83B
:10A9D000084000F0BBB9000013B5044621F017FC95
:10A9E000241A0C4821F01DF8002301220093094885
:10A9F000094B24EAE47121F007F840B17246912135
:10AA000042F6516002B0BDE81040FDF7FFBE02B053
:10AA100010BD00BF781B002029AA0008014821F0C2
:10AA200000B800BF781B002008B5FFF7F7FFBDE8AE
:10AA3000084000F0D3B8000008B5FFF774FEFFF738
:10AA4000EDFF0023034A1360034A1360034A1360B7
:10AA500008BD00BF901B0020981B0020941B002005
:10AA600070B5044672B6154D154E2B6801332B6038
:10AA7000FFF759FE2368134A33601360FFF75AFE4D
:10AA8000044630682146FFF723FF00280CDA013422
:10AA9000012134603068FFF737FE2B68013B2B60E3
:10AAA0002B6803B962B670BD032804D801282CBFF7
:10AAB00024180134ECE70021ECE700BF341B002030
:10AAC000901B0020981B002070B5054672B60E4CF6
:10AAD0000E4E236801332360FFF7A0FF2B680C4D57
:10AAE0002B603360FFF71EFF33681B1A002BBCBFBF
:10AAF000783028602868FFF76FFF2368013B2360E8
:10AB0000236803B962B670BD341B0020981B002077
:10AB1000901B002010B572B6074C236801332360E8
:10AB2000FFF701FEFFF77AFF2368013B23602368EC
:10AB300003B962B610BD00BF341B0020094B10B52D
:10AB40009842044605D972467F214FF20640FDF730
:10AB50005DFE2046FFF7C2FC0446FFF7EBFD2044F4
:10AB600010BD00BFC17F841E6FF00043984210B536
:10AB7000044605D3724691214FF20640FDF746FE8A
:10AB8000FFF7D0FE204410BD38B504460D460068DE
:10AB90000968FFF79DFE35EA200028BF204638BD32
:10ABA000431A10EA230038BF0846704700680B6854
:10ABB000C31A58425841704772B6064B1A680132A0
:10ABC0001A60054A10601A68013A1A601B6803B9D6
:10ABD00062B67047341B0020941B0020024B1B6898
:10ABE0000BB1024818477047941B0020981B0020A7
:10ABF00008B5FFF7DDFEFFF79CFD0023024A136056
:10AC0000024A1360536008BD9C1B0020A01B00205B
:10AC100072B6064B1A6801321A60054A10601A684B
:10AC2000013A1A601B6803B962B67047341B0020F2
:10AC30009C1B002073B5054672B61D4E033D33685C
:10AC40001C4C01333360FFF7B3FEFFF772FD28465B
:10AC5000FFF744FC0021FFF757FC206020682D1A05
:10AC600001A86560FFF736FE0546FFF74DFC236837
:10AC7000181A1BD49A2812D86368019A1844606085
:10AC80006368134463606068FFF76EFE01203368F9
:10AC9000013B3360336803B962B602B070BDFFF7A1
:10ACA0001DFC04384019FFF73FFDEFE70020EEE7F9
:10ACB000341B0020A01B002038B5054672B60C4C92
:10ACC000236801332360FFF773FEFFF72BFE281A7A
:10ACD00000280ADB2846FFF747FE01202368013BD6
:10ACE0002360236803B962B638BD0020F6E700BFD1
:10ACF000341B002010B572B6074C23680133236063
:10AD0000FFF756FEFFF715FD2368013B236023681C
:10AD100003B962B610BD00BF341B002037B50A4C22
:10AD200001A8FFF7D7FD2568FFF7EEFB6368281A37
:10AD30000028A8BF1B1863606068019B184401903D
:10AD4000FFF712FE03B030BDA01B0020024B1A68B3
:10AD50000AB11B68184770479C1B00200123037031
:10AD600088B200F07DB9000030B5B0F5FA7F044636
:10AD700087B005D880B207B0BDE83040FDF74ABAC9
:10AD80006FF00043984217D200F05AF900230546AD
:10AD90000D4A8DF803300DF10303CDE90404CDE92C
:10ADA0000223019300F082F9294602A800F0D8FF9F
:10ADB000284600F0A1F908B107B030BD012101A873
:10ADC000FFF702FCF4E700BF5DAD00084FF47A73B3
:10ADD0005843FFF7C9BF10B50446FDF7CDF9201A57
:10ADE000BDE81040FFF7C0BFF8B506460025074C88
:10ADF0006F01304639592AF0B1FB20B10135162DCB
:10AE0000F6D10020F8BDE019FCE700BF101C0020BF
:10AE100008B501F0BFF800F083FF01F00FF800F073
:10AE2000EDFC00F095FE00F04FFA00F001FC4FF44D
:10AE3000307200210C482AF0A8F9002158220B4852
:10AE40002AF0A3F900230A4A13600A4A137000F09B
:10AE50005FFE094B1860094B186000F05FFDBDE80C
:10AE60000840FFF785BB00BF101C0020A81B002076
:10AE70000C1C0020081C0020041C0020001C0020CA
:10AE80002DE9F84F404B06461B782BB172465221F4
:10AE90004BF21D00FDF7BAFCDFF8F880D8F800305F
:10AEA000152B05D9724653214BF21D00FDF7AEFC60
:10AEB0002EB9724654214BF21D00FDF7A7FC3568F0
:10AEC000D8F80040314F28464FEA441947F8095056
:10AED0002AF04EFB014628461AF046F8002507EBFB
:10AEE0004414A08333792371B368E3603369A561A7
:10AEF0006361FDF741F9F368D8F800B01844337D79
:10AF00001FFA8BFAA377224B20611E4665712572CA
:10AF1000A4F806A0AB4502D146F82B4011E053F847
:10AF2000042B21791279681C91422AD2ABEB0502DD
:10AF3000920006EB850106EB80002AF00CF946F83A
:10AF400025400BF10103C8F800304FF6FF739A4516
:10AF500005D1724666214BF21D00FDF757FC07EB49
:10AF60000903DA884FF6FE739A4205D172466721CB
:10AF70004BF21D00FDF74AFC07EB0903D888BDE83A
:10AF8000F88F0546C6E700BF081C0020101C0020F3
:10AF9000A81B00200C1C0020054B1B6898423FBFDB
:10AFA000044B03EB40108177012028BF002070473D
:10AFB0000C1C0020101C0020044B1B68834283BF24
:10AFC000034B03EB4010807F002070470C1C0020D7
:10AFD000101C0020054B1B6898423FBF044B03EB3D
:10AFE00040104161012028BF002070470C1C002048
:10AFF000101C002038B5084B04461B680D469842CB
:10B0000008D2FDF7BFF8054B284403EB4414206138
:10B01000012038BD0020FCE70C1C0020101C002083
:10B02000044B1B6898423ABF034B03EB40100020CF
:10B03000704700BF0C1C0020101C0020807F704750
:10B0400010B5064C23682BB97246AB214BF21D009C
:10B05000FDF7DCFB2368D88810BD00BF001C002072
:10B0600038B5054672B60E4C2368013323600D4B8C
:10B070001B68984205D37246B8214BF21D00FDF7BC
:10B08000C5FB094800EB4510437943F08003437149
:10B090002368013B2360236803B962B638BD00BF53
:10B0A000341B00200C1C0020101C002038B5054665
:10B0B00072B60E4C2368013323600D4B1B68984217
:10B0C00005D37246C0214BF21D00FDF79FFB0948D6
:10B0D00000EB451043796FF3C71343712368013BBD
:10B0E0002360236803B962B638BD00BF341B00205B
:10B0F0000C1C0020101C0020084B10B51B680446D7
:10B10000984205D37246C7214BF21D00FDF77EFB26
:10B11000034800EB44146079C00910BD0C1C0020EA
:10B12000101C002038B5054672B60E4C236801335A
:10B1300023600D4B1B68984205D37246CE214BF21B
:10B140001D00FDF763FB094800EB4510437943F010
:10B15000400343712368013B2360236803B962B64F
:10B1600038BD00BF341B00200C1C0020101C002028
:10B17000094B10B51B680446984205D37246DD2181
:10B180004BF21D00FDF742FB044800EB44146079CC
:10B19000C0F3801010BD00BF0C1C0020101C00204C
:10B1A0000E4B10B51B680446984205D37246E32146
:10B1B0004BF21D00FDF72AFB72B6094B09481A68CD
:10B1C00000EB441401321A60002262711A68013ADD
:10B1D0001A601B6803B962B610BD00BF0C1C0020CA
:10B1E000341B0020101C00200E4B10B51B680446B9
:10B1F000984205D37246EB214BF21D00FDF706FB8A
:10B2000072B6094B09481A6800EB441401321A60FF
:10B21000012222721A68013A1A601B6803B962B6E9
:10B2200010BD00BF0C1C0020341B0020101C00208F
:10B230000E4B10B51B680446984205D37246F321A5
:10B240004BF21D00FDF7E2FA72B6094B09481A6885
:10B2500000EB441401321A60002222721A68013A8B
:10B260001A601B6803B962B610BD00BF0C1C002039
:10B27000341B0020101C0020084B10B51B6804462E
:10B28000984205D37246FB214BF21D00FDF7BEFA32
:10B29000034800EB4414207A10BD00BF0C1C0020B2
:10B2A000101C002008B5FFF79FFD18B1C088FFF7FC
:10B2B0009BFF012008BD08B5FFF796FD18B1C088B7
:10B2C000FFF7B6FF012008BD2DE9F843394FDFF83D
:10B2D00000813846FDF7B8F9374C02460646002192
:10B2E000C8F80000386829F050FF182200212046D5
:10B2F00029F04BFFD8210122304DC4E903122B68FD
:10B30000DC339E422B6005D27246AA214FF2171001
:10B31000FDF77CFAD8F800E000224FF01808296801
:10B320002748AEEB010C03781BBB02B129602B68E8
:10B330009E4505D27246BD214FF21710FDF766FA01
:10B340001D483D68002603F025F91B4F2369B342D1
:10B3500027D8656103B9E36000241A4B07211A4816
:10B360001C701AF033F82146BDE8F84317481AF06C
:10B370002DB8013B08FB0343DA68023002F10409EF
:10B38000BCFBF9F610F8012CB24228BF32461E6908
:10B3900016441E6109FB02F301221944ACEB030CB5
:10B3A000C1E72946384603F005F9E368013604335E
:10B3B0001D44CBE7D41E0020E01E0020DC1E002030
:10B3C00058560308D01E0020F81E0020001F002041
:10B3D000D81E002038B5134B051F1B68AB4206D999
:10B3E00072464FF480714FF21710FDF70FFA0E48B6
:10B3F00043699D4207D372464FF217104FF486718E
:10B40000FDF704FA002072B6084C29462368013380
:10B41000236003F0F8F82368013B2360236803B935
:10B4200062B638BDD41E0020E01E0020341B002070
:10B430000949CB6883420CD372B6084B88681A68F6
:10B4400001321A601A68013A1A601B6813B962B6B1
:10B4500070470020704700BFE01E0020341B002012
:10B46000034BDA6882422CBF18690020704700BF86
:10B47000E01E002038B5284D04462B6833B97246CB
:10B480004FF49C714FF21710FDF7C0F9042C1ED831
:10B49000DFE804F0260A030F08002048BDE8384022
:10B4A00019F0B0BF1E48F9E71C48BDE838401AF053
:10B4B00027B872B61B4B1A6801321A601A4A107804
:10B4C0001A68013A1A601B6823BB62B622E0724612
:10B4D0004FF217104FF4B071FDF798F9002019E002
:10B4E00072B6104B11491A688C6801321A601A68DA
:10B4F000013A1A601B6803B962B6C8682B68043049
:10B5000060431B090001B0FBF3F0FF2828BFFF20B8
:10B51000C043C0B238BD00BFDC1E0020F81E0020B2
:10B52000001F0020341B0020D01E0020E01E002041
:10B5300003280DD172B60021064B1A6801321A6039
:10B54000054A11701A68013A1A601B6803B962B69D
:10B55000704700BF341B0020D01E0020014819F0A6
:10B56000CCBF00BFF81E002007B50020FFF782FF08
:10B5700001460190044819F053FF0199034803B0B4
:10B580005DF804EB19F04CBFF81E0020001F0020EE
:10B5900072B60B4B0B491A6801321A600A78FF2AFF
:10B5A0001CBF01320A701A68013A1A601B6803B99D
:10B5B00062B60B78012B01D1FDF776B8704700BF5A
:10B5C000341B0020D01E0020D82838B5044605D9E9
:10B5D0007246DE214FF21710FDF718F91148C368C3
:10B5E000A34203D2FFF7D4FF00201AE072B60E4D3B
:10B5F0002B6801332B6003F03BF82B680446013BBA
:10B600002B602B6803B962B6002CEBD0074B1B688C
:10B61000A34205D97246EC214FF21710FDF7F6F858
:10B62000201D38BDE01E0020341B0020D41E002049
:10B630000B234FF6FE71034A013B918102F1100288
:10B64000FAD17047081F0020152870B5064605D9A5
:10B6500072462E2140F6E820FDF7D8F872B6144D58
:10B66000144A2B68144601332B604FF6FE710023F9
:10B670009089884214D104EB0314204602F08AFF1B
:10B68000A6812B68013B2B602B6803B962B62CB9ED
:10B690007246402140F6E820FDF7B8F8204670BD1C
:10B6A00001330B2B02F11002E2D10024E9E700BFC5
:10B6B000341B0020081F002038B5054628B9724603
:10B6C000462140F6E820FDF7A1F872B6094C236840
:10B6D00028460133236002F0CBFF2368013B23603F
:10B6E000236803B962B600B938BDFFF773FE72B6BE
:10B6F000EDE700BF341B002038B5044628B90846E2
:10B7000011B1FFF767FE204638BD61B172B60A4D30
:10B710002B6801332B6002F04DFF2B68013B2B603F
:10B720002B6803B962B6A089FFF7FCFC002000F08B
:10B7300007F90120E8E700BF341B002038B50546B3
:10B7400028B97246792140F6E820FDF75FF872B615
:10B75000064C284623680133236002F089FF2368E2
:10B76000013B2360236803B962B638BD341B002057
:10B7700010B5044628B97246842140F6E820FDF74A
:10B7800045F872B6054BA0681A6801321A601A684B
:10B79000013A1A601B6803B962B610BD341B002061
:10B7A000084B10B51B780C462BB17246972140F61A
:10B7B000E820FDF72BF8044B2146BDE8104018683F
:10B7C00000F068BB081C0020C41F00200022084BAA
:10B7D00010B51C681A600122064B07481A7000F069
:10B7E00015FC1CB12346BDE81040184710BD00BF32
:10B7F000C01F0020B81F0020BC1F002008B5002378
:10B80000054A06481370064A136000F0FFFBBDE8C6
:10B8100008400448FCF7C8BCB81F0020BC1F00202B
:10B82000C01F0020CDB7000870B5064608480D4679
:10B8300000F0D8FB044648B1064B28461E60FCF7D2
:10B84000B9FC044610B9024800F0E0FB204670BD88
:10B85000BC1F0020C01F002013B5064C01942378A4
:10B860001BB10023237002B010BD012101A8FEF717
:10B87000ABFEF4E7B81F002072B60021064B1A6831
:10B8800001321A60054A11701A68013A1A601B6881
:10B8900003B962B6704700BF341B0020B81F0020F8
:10B8A000014B1878704700BFB81F002010B572B662
:10B8B000094C236801332360FCF782FC074800F041
:10B8C000A5FB0022064B1A602368013B2360236816
:10B8D00003B962B610BD00BF341B0020BC1F00209E
:10B8E000C01F00200A4B10B51C68FCF74BFCD4E9C4
:10B8F00004310B44191A074BA1F196029A4288BFF2
:10B900000021054B186800F0C5FA4FF0FF3010BD5C
:10B91000041C002069FFFF7FC41F002008B500F051
:10B920009FFA064B186038B97246BDE808403821C6
:10B9300043F22420FCF76ABF08BD00BFC41F0020EB
:10B94000034B1B68834202D0184600F0EDBA7047E3
:10B95000C41F00202DE9F84FFCF714FC0025074612
:10B960002C46A946DFF814A1DFF814B1DFF81481E2
:10B97000DBF800304B4523D8E888FFF77DFC012831
:10B9800009D0D8F80030A34205D17246BC2143F259
:10B990002420FCF73BFFFCF7F5FBD8F800303649D4
:10B9A00018615961002C5DD11C465A698A4294BFC6
:10B9B0005A615961E088FFF7F3FB2046BDE8F88F34
:10B9C0005AF8045BD8F80030AB4246D0E888FFF75D
:10B9D00053FC012841D02846FFF730FB002837D020
:10B9E000E888FFF7C5FB18B92B69DB1B002B00DAD1
:10B9F0002F61002C34D022792B799A428ABF2646B7
:10BA00002E462C46D6E90432134422699B1A002B99
:10BA10001CDB327923799A421FD17279637902F063
:10BA20003F0203F03F039A4217D9637903F03F03C3
:10BA30003F2B05D17246C82143F22420FCF7E6FED5
:10BA400062796379013262F305036371344604E07D
:10BA5000E888FFF78DFB0028C2D109F1010987E7CB
:10BA60002C46FAE72269121A02D500225A61A1E790
:10BA7000952A5A6198D89DE710552200A81B0020EE
:10BA80000C1C0020041C0020F8B51C4C23782BB1A2
:10BA900072464B2143F22420FCF7B8FE184B1B687A
:10BAA0002BB972464C2143F22420FCF7AFFE012350
:10BAB000144E2370144D154CFCF700FE306800F056
:10BAC0004FFAFFF747FF2060FCF75CFB2368286014
:10BAD000988BFDF7B1F82768FB68984723683861B1
:10BAE0001B79FE2BE8D0FCF74DFB2B68C01A2368AE
:10BAF0009A698242E0D29861DEE700BF081C00200C
:10BB0000041C0020C41F0020C81F0020001C0020AF
:10BB10007FB51422002101A829F037FB074B6846A6
:10BB20000093FE238DF80430054B0293FFF7A8F92C
:10BB3000FFF776FA07B05DF804FB00BF5C56030818
:10BB4000E5B80008014B1868704700BFC81F002007
:10BB50004FF6FE710022034B5A6019801981DA609A
:10BB6000704700BFCC1F00204FF6FE72094B014604
:10BB7000188890420AD01889904209D1012203EB1B
:10BB8000C20023F832100023436070470022F6E71A
:10BB900000207047CC1F002038B50D46044628B958
:10BBA0007246382145F26C20FCF730FE72B60A4B23
:10BBB0001A6801321A6062682A4362601A68013AA0
:10BBC0001A601B6803B962B62088FFF7ABFABDE8BC
:10BBD00038400020FFF7B4BE341B002010B50446E7
:10BBE00028B97246472145F26C20FCF70FFE72B669
:10BBF000064B1A6801321A600022606862601A6897
:10BC0000013A1A601B6803B962B610BD341B0020EC
:10BC1000154938B50C464FF6FE7234F8143B134DF7
:10BC20009BB2934208BF00240B8B9BB2934205D07A
:10BC30004CB120462C31FCF7DBFA04462CB9FCF75A
:10BC4000CBFA2C600EE001F12C04296829B92046BA
:10BC50002C60BDE83840FCF7B9BA2046FCF7CEFAB4
:10BC60000028F4D038BD00BFE01F0020DC1F0020FA
:10BC70002DE9F04F074689B072B64FF000094FF634
:10BC8000FE784E464FF0180A214D224C2B680133A6
:10BC90002B6034F8142C42451AD039462046FCF764
:10BCA000ADFAA8B108AB03EB0913A3F1200C14E91A
:10BCB0000F008CE80F00184B10220AFB0630002101
:10BCC00009F1010B24F8148C043029F05EFAD946EE
:10BCD00018349EB10021114A1160FFF799FF2A68BC
:10BCE000013A2A602A6802B962B66C4600254D45C1
:10BCF00004F1100404D109B0BDE8F08F0126C8E7B3
:10BD000054F8102C54E9030190470135EFE700BFC8
:10BD1000341B0020F41F0020E01F0020DC1F002047
:10BD200038B50C4C4FF6FE7520461022002120F845
:10BD3000045B29F02AFA102204F11C00002125835B
:10BD400029F023FA0022044B04481A60BDE8384069
:10BD5000FCF75ABAE01F0020DC1F002071BC00086D
:10BD6000F8B50F46044628B972463B2140F6D2602A
:10BD7000FCF74CFD23682BB972463C2140F6D2609B
:10BD8000FCF744FD72B64FF6FE71144D144A2B6851
:10BD900001332B6013889BB28B421BD0138B9BB259
:10BDA0008B4219D1012318214B43D618D752371D86
:10BDB00094E80F0087E80F00E068FCF713FA706161
:10BDC000FFF726FF2B68013B2B602B6803B962B697
:10BDD0003046F8BD0023E6E70026F3E7341B0020D9
:10BDE000E01F002070B50E46044628B97246512166
:10BDF00040F6D260FCF70AFD72B60C4D2B68013399
:10BE00002B602388B3420AD14FF6FE7320461022DE
:10BE1000002120F8043B29F0B8F9FFF7F9FE2B6860
:10BE2000013B2B602B6803B962B670BD341B002048
:10BE30000123037088B2FFF713B90000002310B587
:10BE400018464FF6FE74054A22F8234002EB8301A0
:10BE500001330A2B8870F7D110BD00BF10200020DD
:10BE600070B54FF6FE730024094E36F824209A422E
:10BE700009D1FFF7E5F8002306EB840526F8240036
:10BE8000AB70284670BD01340A2CEED10025F8E7CE
:10BE900010200020F0B50F46044689B028B972463C
:10BEA0004F2141F27110FCF7B1FCFFF7C9F80023F4
:10BEB00006468DF80730FFF7F9F8A31CA278029325
:10BEC0000DF10703039302F0FF05D2B9CFB17A1C3D
:10BED00010D0144A314604A8CDE90423CDE9066701
:10BEE000FFF73EFF054628B97246692141F27110FD
:10BEF000FCF78CFCA3784BB11DB131462846FFF707
:10BF000071FF0023A078A37009B0F0BD3046FFF7A1
:10BF1000F3F808B17B1CF4D1022102A8FEF754FB10
:10BF2000E8E700BF31BE000838B5054628B97246BB
:10BF3000822141F27110FCF769FC72B6074C284669
:10BF40002368013323600123AB70FFF7F9FC2368FA
:10BF5000013B2360236803B962B638BD341B00205F
:10BF600010B5044628B972468D2141F27110FCF7D4
:10BF70004DFC72B6064B1A6801321A600022A2709C
:10BF80001A68013A1A601B6803B962B610BD00BF97
:10BF9000341B0020F8B500240D4802F0FBFA2746B8
:10BFA0000C4D0B4E294630460334AF6002F02BFB9C
:10BFB0000C2C05F10C05F5D1074802F0EBFA074807
:10BFC00002F0E8FABDE8F840054800F01FB800BFED
:10BFD00080200020382000206820002074200020CD
:10BFE0008C20002072B6084B1A6801321A600122B8
:10BFF000016802601A68013A1A601B6803B962B6E8
:10C00000B1FA81F040097047341B002072B6064B2C
:10C010001A6801321A60002202601A68013A1A6036
:10C020001B6803B962B67047341B00204FF40070E0
:10C03000704708B5002019F0ABFC08BD0346264A3E
:10C040000846934245D017D8244A934233D00BD8A0
:10C05000234A93422BD0234A93422AD049F24322C7
:10C06000934232D0002070471F4A93422BD01F4A80
:10C070009342F7D100F0E2BB1D4A93421DD00AD88B
:10C080001C4A93421BD01C4A934220D01B4A934225
:10C09000E8D101F075BB1A4A934212D002F547026B
:10C0A00002F58A4226329342DCD102F0A9B800F0B0
:10C0B00017BB00F0AFBD02F045BA01F001B801F0C6
:10C0C00043BE01F06BBE02F011B902F04DB900F0B1
:10C0D000C7BE00F03FBE00BF493BFD0138230F0043
:10C0E00061F1030036230A004DC2130015FF4E0113
:10C0F00076D6CE7465C1F902B70B086E1808F20245
:10C10000AFD6137710B5102204460949303029F014
:10C1100005F858B11022064904F1200028F0FEFF6E
:10C12000002814BF4FF0FF30202010BD3020FCE766
:10C130006156030870B51E4C9AB0236802219B69B2
:10C1400001A8984701981B4D421C03D1002028608C
:10C150001AB070BD23680BA91B6998470028F5D158
:10C16000DDE90C46144B02A81B6834445B69984710
:10C170009DF820300BB9A4F580542B6801330CD105
:10C180003046FFF7BFFF431C05D01030335832183C
:10C19000B3F5007F03D000232B602868D8E75168EF
:10C1A0008E42F8D19268A41BA242F4D8F4E700BFF3
:10C1B000281B0020F41700202C1B002010B50F4C6A
:10C1C00090B0236802219B69684698470098431CF9
:10C1D00002D1002010B010BD236801A91B69984747
:10C1E0000028F6D1039CFFF7A5FFB0F5007FF0D340
:10C1F0002046FFF787FF10302044EBE7281B002084
:10C2000008B5FFF7DBFF00B1806808BD08B5FFF790
:10C21000D5FF0346054843B1DB6833B1834204D3FD
:10C22000034A934298BF23F00F0008BD00C00020CE
:10C23000F8FF002030B593B028F064FF002841D00B
:10C24000FFF778FF044600283CD04FF0804027F0ED
:10C2500057F8002836D001F089FF02F083F801F08A
:10C2600055FD00F02BFF00F035FA02F069F901F0FE
:10C2700093FD00F0E1FA02F038F800F0A3FC01F0C1
:10C280008DFA00F0EBFD00F063FD0F4BB4F5007F7D
:10C29000019317D30D4C0221236802A89B6998478C
:10C2A0000298431C0ED0236803A91B6998470446D3
:10C2B00040B903A825F0EEFE224605462146044873
:10C2C00001ABA84713B030BDF8FF0020281B0020A9
:10C2D0007456030808B528F015FF30B1FFF72AFFA0
:10C2E00018B1BDE8084001F09DBF08BD014B1860C2
:10C2F0000020704794200020014B186000207047F8
:10C300009020002006207047014B186000207047E5
:10C3100098200020014B186000207047A0200020CA
:10C320005020704702207047022070470B6803605E
:10C330004B6843604B6983600B690362DB08C36031
:10C3400091F82C3003F1FF3CDCF1000343EB0C03CC
:10C35000037491F82D30437491F82E308374CB68B8
:10C36000B3F5807F28BF0023C374CB69436191F884
:10C370003030037791F82F3043774B6A836191F81F
:10C3800031305BB1436A8A8E5A8091F83620901E14
:10C39000424242411A714A8E1A8070474362704786
:10C3A00010B558B1012807D1002420460DF06EFACF
:10C3B0000DF076FAA04203D0032010BD0124F4E76B
:10C3C0000020FAE710B598B00DF1070204A9044661
:10C3D0000DF1060026F098FB02A826F0A7FB9DF8B9
:10C3E000073020460133DBB2FF2B08BF00238DF856
:10C3F00007309DF8072002AB04A926F003FC0628AD
:10C400008EBF0220014B185C18B010BD8056030887
:10C4100080F0010027F090BF13B5044601A826F074
:10C420006BFE18B9019B236002B010BD0720FBE72B
:10C4300026F01DBE38B5044626F016FE054626F049
:10C4400011FEC4E90050204638BD26F00BBE0000A6
:10C4500010B50B4C96B023687BB10EF0BDF801907F
:10C460000EF052F902F07CF8009002A80EF05AF992
:10C47000DDE90021236802A8984716B010BD00BF6F
:10C48000A020002008B5134650B149B142B10A4678
:10C490000146184626F074FB002818BF022008BD8C
:10C4A0000520FCE738B5044678B105780FF0E8FEC2
:10C4B00085420CD8247820461CB90DF08FFF204609
:10C4C00038BD0DF08BFF0024F9E70424F7E70324BF
:10C4D000F5E70000484B2DE9F0431A6840F20623C7
:10C4E0009A42044685688DB009D8444B9D426BD171
:10C4F000434A6B4692E80300054683E80300E37B6A
:10C5000003F001069A0748BF46F00206DF0648BF5F
:10C5100046F0100618070FD5A91C0DD002AF3846FB
:10C5200026F002F997E80C0028460199009528F0BA
:10C53000D6FD08B946F00806A77B012F55D8D4F8D8
:10C540000480B8F5803F52D200211C2205A8B4F81F
:10C550000C9028F01AFE284623680199049306AB34
:10C5600083E80300237CADF814808DF82130637CD0
:10C5700000958DF82230E37B8DF8207013F0140FB6
:10C580008DF82360ADF8249004D0DA0622D501227C
:10C590008DF826209B060DD5A38A46F02006ADF81F
:10C5A0002830E38A8DF82360CBB901228DF82C2046
:10C5B000ADF82A3004A827F045FC0E2819D8114BF5
:10C5C000185C0DB0BDE8F0836FF07F439D4296D1BB
:10C5D0000D4A8EE7A27C002ADAD10B20F1E7227EF9
:10C5E0000AB10222E2E70322E0E70220E9E706209F
:10C5F000E7E70120E5E700BF9C200020FEFFFF00E9
:10C6000054A40308875603085CA4030800B5036814
:10C6100089B001934368026902938368049203938B
:10C62000828A837DD0E90601069001A8ADF8142026
:10C630008DF81630ADF81C10FFF74CFF09B05DF80F
:10C6400004FB000073B50E461546044670B16846FB
:10C6500026F06CFA6B4632462146284626F0D2FA7E
:10C66000062805D8034B185C02B070BD0520FBE717
:10C670000220F9E78056030810B5044698B010B3BD
:10C680000DF1070204A90DF1060026F03DFA02A8FB
:10C6900026F04CFA9DF807309DF806000133DBB216
:10C6A000FF2B08BF00238DF8073001F059FF21460A
:10C6B0009DF8072002AB26F0A5FA062805D8044B02
:10C6C000185C18B010BD0520FBE70220F9E700BF99
:10C6D0008056030801480EF0D3B900BF51C40008CA
:10C6E000A0F500730E2B0ED8094B186040F20A23F8
:10C6F00098420AD940F20B21064B074A884218BFDC
:10C700001346184670470023FBE7044BF9E700BFC8
:10C710009C2000201857030898560308D056030899
:10C7200010B5084B01461C688CB044B102A8CDF886
:10C730002CD0FFF7FBFD02A8A0470CB010BD0120D4
:10C74000FBE700BF942000200C4B10B51A6840F2A4
:10C750000A239A4201468AB004D90AB0BDE81040C3
:10C76000FFF7DEBF064B1C6834B16846FFF7DEFDFD
:10C770006846A0470AB010BD0120FBE79C200020BE
:10C780009020002030B50C4C85B024688CB1089DF9
:10C79000ADF80800CDE900539DF8283068468DF8C3
:10C7A0000A108DF80B208DF80C30A047012005B041
:10C7B00030BD2046FBE700BF9820002000207047D6
:10C7C000002070470020704738B50D4604461146DA
:10C7D00090B9287025F05CFC013805280ED8DFE8F8
:10C7E00000F008040D060D030324204638BD05247F
:10C7F000FBE701232B70F8E700232B700624F4E7F6
:10C80000014608B538B925F041FC18B1042814BF19
:10C810000620052008BD0620FCE708B540B9012127
:10C8200025F034FC18B1052814BF0620002008BDEF
:10C830000620FCE70020704770470000B0F5017F3C
:10C84000024607D240F20321034B04488A4208BF44
:10C85000184670470020704758570308645703086C
:10C860000A4A10B513685BB100211160084A094CEF
:10C870001078094A126832B1216898470023236072
:10C880004FF0FF3010BD1146F7E700BFAC2000208D
:10C89000C4200020A8200020BC20002008B503F000
:10C8A000A7FD08B103F04EFE002008BD08B5054BFA
:10C8B0001B6823B10122044B1A7003F0C9FE00204B
:10C8C00008BD00BFAC200020C420002008B503F044
:10C8D000D9FE002008BD08B526F044FD002008BDA3
:10C8E00008B526F039FD002008BD00002DE9F84309
:10C8F0002C492D4B2D4F1A6806463B680868D41802
:10C9000000B104604FF0000942F803902023751D28
:10C91000636028460C600EF0B0FDA06028460EF063
:10C920009DFDA06128460EF0A1FD207733682846C2
:10C930006361337904F1200863770FF0E3FAA0779D
:10C9400028460EF0A1FD402828BF4020494640223D
:10C9500020610646404628F018FC28460EF0A4FD4B
:10C96000014618B13246404628F0E8FB3B681049C2
:10C9700003F160023A600A68C4F80C8001320A6070
:10C980000C4909688A4207D00B4AC03312689342A7
:10C9900005D30322094B1A700020BDE8F88301205B
:10C9A000FBE700BFB8200020A8200020C020002006
:10C9B000BC200020B0200020B4200020C420002093
:10C9C00020B9054B1A780AB902221A70034B0021CC
:10C9D0001868FEF791BE00BFC4200020A4200020EC
:10C9E0002DE9F84380460E4617461D469DF82090D7
:10C9F00026F046FB0446E8B9B9F1000F04D0B8F1BF
:10CA0000000F07D1042412E025F0AEFE0428F6D171
:10CA100005240CE0B6F1807F08D228462E6026F06F
:10CA200007FC18B1384626F0FDFB00B90324204668
:10CA3000BDE8F8830724FAE730B51D4B05461B68AF
:10CA400089B09BBB03F0D4FC08B103F07BFD01234C
:10CA5000284600932A7A696803ABFFF7C1FF0446B2
:10CA6000F8B941F6DC622B68A3F1640191421BD84E
:10CA7000D5E9041211B91AB1042412E0402A13D8DE
:10CA80004FF47A70434302932B8902A8ADF810301B
:10CA9000EB680792CDE9053103F060FD002808BF7F
:10CAA0000624204609B030BD0324FAE70624F8E73F
:10CAB000AC200020F0B585B0054603F099FC0028B5
:10CAC00041D1254E3368002B3DD1009328462A7B67
:10CAD000A96803ABFFF784FF0446002836D12F680E
:10CAE000002F32D0AA69002A2FD042F20F73696852
:10CAF00099422ED842F2AC632869A0F164019942B0
:10CB000027D8696929B3EB695F2B22D93760134FA6
:10CB10003960134F13493A60134A0C601460134A8A
:10CB200003A91360124B1C60124B1C70124B009334
:10CB30002A7B4FF47A75114B684303F067FD28B9DF
:10CB4000002333603B60062400E00424204605B047
:10CB5000F0BD0324FAE700BFAC200020B020002085
:10CB6000A8200020BC200020B8200020B4200020F5
:10CB7000C0200020C4200020C1C90008EDC8000862
:10CB800030B585B004460D4603F032FCB0B90C4B0D
:10CB90001B689BB92146039300932A4602AB03A866
:10CBA000FFF71EFF044630B9294602A803F05AFDDC
:10CBB000002808BF0324204605B030BD0524FAE74D
:10CBC000AC2000207FB500210D4B142219600D4BC5
:10CBD00001A8196028F0D9FA0B4B684600931A2374
:10CBE0008DF80430094B029342F210730493FEF760
:10CBF00047F9FEF729FD064B186007B05DF804FB06
:10CC0000AC200020A82000208057030861C800083D
:10CC1000A4200020B0F5007F014888BF00207047A5
:10CC20009C57030810B5044C24682468A0470628C4
:10CC300028BF012010BD00BF281B002010B5044CE8
:10CC400024686468A047062828BF012010BD00BFE3
:10CC5000281B002008B5044B1B689B6898470628D2
:10CC600028BF012008BD00BF281B0020014B1B6806
:10CC7000DB681847281B002010B51B4B90B01B68C1
:10CC80000C461B6901A998479DF83E30022B04D041
:10CC9000052B23D0052010B010BD002384F83130BF
:10CCA000F0B9019B2360029B63609DF83C3084F8DF
:10CCB0003030059BA360069BE360079B2361089BC4
:10CCC0006361099BA3610A9BE3610B9B23620C9B3D
:10CCD00063620D9BA3620E9BE362DCE70123DDE749
:10CCE000062828BF0120D6E7281B002008232DE9AD
:10CCF000F0430026DFF8549099B08DF80330D9F84E
:10CD0000003080460F465B690DF1030101A898478A
:10CD1000354601AC9DF80330B34203D83D7019B0DD
:10CD2000BDE8F083D9F8003020681B6909A998474D
:10CD300048B99DF85E30022B01D0052B03D1236842
:10CD400048F82530013501360434E3E7281B00207C
:10CD500070470000B0F5007F014888BF0020704791
:10CD6000BC57030810B5044626F08AF928B134B13F
:10CD7000204601F019FE002010BD0720FCE704202A
:10CD8000FAE770B5A2B0044626F07AF9002840D040
:10CD9000002C40D0E5786B1E092B36D82688731EF0
:10CDA000B3F57A7F2ED2002204F10A0131F8323035
:10CDB000013B9BB2B3F57A7F24D20132AA42F5D36C
:10CDC0008022002102A828F0E0F9A37800228DF843
:10CDD000063001AB1846ADF804608DF80750617A53
:10CDE00001325972618908335980217A08341970E7
:10CDF00054F8041C43F8041CD1B28D42EFD801F062
:10CE00005BFD20B9032022B070BD0520FBE70020A8
:10CE1000F9E70720F7E70420F5E710B586B00446E8
:10CE200026F02EF9B0B1BCB1236868460093636860
:10CE30000193A3680293E368039323690493237D1A
:10CE40008DF8143001F09CFC002814BF0020032052
:10CE500006B010BD0720FBE70420F9E7704700008B
:10CE6000B0F5007F014888BF00207047D457030801
:10CE70000220704702207047014B18600020704765
:10CE8000C820002012280FD812281CD8DFE800F094
:10CE90001D13171B201B1B1B1B1B1B1B1B1B1B1BE7
:10CEA0000A15190011207047422810D0522814BFCB
:10CEB0000020932070470220704712207047032003
:10CEC000704713207047002070470120704783206F
:10CED000704708B5FFF7D6FFBDE8084025F0E6BC6F
:10CEE00082B0009002AB13E9030002B025F0F4BB5E
:10CEF00026F098B907B5B0F1807F019005D201A85E
:10CF000026F096F903B05DF804FB0020FAE7F0B5CF
:10CF1000064685B000284FD0CC000D22214618F0DF
:10CF200092F8002802DB032005B0F0BD00250C2C90
:10CF30000DF1070028BF0C24ADF80850ADF80C50D7
:10CF400026F058F92A469DF8070011460132824220
:10CF500009D08C422DD3CB08F35C01F007010B41C3
:10CF600013F0010326D00C2AEFD1DCE7DA08B05C1D
:10CF700003F007052841103210F0010F6A4414BF76
:10CF800012F8040C12F8080C07FA05F149B215BFA3
:10CF90000143014302F8041C02F8081C0133A342B8
:10CFA000E4D102A808F07CFA03A808F051FA0020A6
:10CFB000BAE700230127F2E70420B5E72DE9F341A2
:10CFC0000A46054640B300244FF0010801910021B4
:10CFD00028F0DBF8019AD700661CF0B2019208F045
:10CFE00087FA10F0800F019A09D0A7420CD9E30804
:10CFF000E95C04F0070408FA04F40C43EC540C2E2A
:10D000003446E9D1002004E00021284628F0BDF88C
:10D01000032002B0BDE8F0810420FAE730B585B006
:10D020000446684625F042FF042814D00C4B1A68C9
:10D0300040F205239A420CD984B16A46234604ADD6
:10D04000144603CCAC4218605960224603F1080331
:10D05000F6D1002000E0052005B030BD2046FBE7FA
:10D06000F817002030B585B00446684625F050FF1B
:10D07000042814D00C4B1A6840F205239A420CD9AC
:10D0800084B16A46234604AD144603CCAC42186012
:10D090005960224603F10803F6D1002000E0052084
:10D0A00005B030BD2046FBE7F817002008B525F095
:10D0B000CDFE01280CBF0720002008BD70470000EE
:10D0C000A0F50073082B09D8054B064A1860064BDB
:10D0D000B0F5027F18BF1346184670470023FBE7E0
:10D0E000F817002060580308E857030806289ABF7D
:10D0F000014B185C01207047E057030837B50C4618
:10D10000054698B191B101A825F046FF034640B904
:10D11000BDF804202A80BDF806202280184603B0FE
:10D1200030BD03B0BDE83040FFF7E0BF0423F5E7B2
:10D1300037B50C46054698B191B101A825F002FF1C
:10D14000034640B99DF804202A809DF805202280DE
:10D15000184603B030BD03B0BDE83040FFF7C6BF8E
:10D160000423F5E708B525F085FCBDE80840FFF786
:10D17000BDBF08B528B125F05BFCBDE80840FFF74E
:10D18000B5BF042008BD07B5ADF8040001A8ADF88F
:10D19000061025F047FF03B05DF804EBFFF7A6BFCC
:10D1A00037B50C460546A8B1A1B101A825F0D0FEBF
:10D1B0000428034610D020B103B0BDE83040FFF78B
:10D1C00095BFBDF804202A80BDF8062022801846AD
:10D1D00003B030BD0423FAE70523F8E708B528B10A
:10D1E00025F04CFEBDE80840FFF780BF042008BDD5
:10D1F00008B528B125F074FEBDE80840FFF776BFFA
:10D20000042008BD08B5FFF73DFE28B125F0FEFA61
:10D21000BDE80840FFF76ABF032008BD13B5044608
:10D22000B0B30DF1070025F01FFB0428034631D0F1
:10D2300020B102B0BDE81040FFF758BF9DF80710BD
:10D24000080601F0100205D512B1522222700FE03B
:10D250004222FBE701F00F01013903291CD8DFE866
:10D2600001F0020A10150AB11022EFE722701346EE
:10D27000184602B010BD0AB11122E7E7012323705E
:10D28000F5E70AB11222E1E70223F8E70422DDE71D
:10D290000423EDE70523EBE70123E9E708B525F0D3
:10D2A00093FFBDE80840FFF721BF13B5044690B1D6
:10D2B0000DF1070025F09EFF042803460DD020B194
:10D2C00002B0BDE81040FFF711BF9DF807202270A3
:10D2D000184602B010BD0423FAE70523F8E7B0F1C1
:10D2E000807F07B508D2019001A825F033FF03B075
:10D2F0005DF804EBFFF7FABE032003B05DF804FB12
:10D3000013B5044680B101A825F03EFF042803466A
:10D310000CD020B102B0BDE81040FFF7E7BE019A83
:10D320002260184602B010BD0423FAE70523F8E78F
:10D3300008B525F031FABDE80840FFF7D7BE13B5B0
:10D34000044690B1002301A8019325F045FA042872
:10D3500003460CD020B102B0BDE81040FFF7C6BEB6
:10D36000019A2260184602B010BD0423FAE7052393
:10D37000F8E708B528B125F089FFBDE80840FFF7B8
:10D38000B5BE042008BD08B525F0B0FF042805D0BF
:10D39000052805D0BDE80840FFF7A8BE052008BD58
:10D3A0000020FCE708B525F057FFBDE80840FFF76F
:10D3B0009DBE08B528B125F061FFBDE80840FFF724
:10D3C00095BE042008BD000082B002AB03E9030053
:10D3D000074B1B6843B1074A1268B2F5017F38BF9B
:10D3E00020F07F4002B01847184602B0704700BFD7
:10D3F000C8200020F8170020014B1860704700BFBC
:10D40000E8200020014B1868704700BFCC200020A6
:10D41000014B1860704700BFD820002008B50A4BA8
:10D420001B787BB1013B022B05D8084B1868BDE87F
:10D43000084017F0B6BD724640F2571148F2EE7040
:10D44000FBF7E4F9002008BDD4200020E4200020F0
:10D4500008B5084B1B78032B02D8074AD05C08BDDF
:10D46000724648F2EE7040F23111FBF7CFF901201D
:10D47000F5E700BFD4200020FD58030808B5FFF7EA
:10D48000E7FF022806D1044B1A6840F201239A42B2
:10D4900098BF012008BD00BFFC17002013B525F080
:10D4A000EFFD002401288DF8074025D1174B1848BF
:10D4B0001C70184B1C70FDF7FEFE1748FDF7FBFEB5
:10D4C0001648FDF7F8FE03F0ABFD01F083F910B14B
:10D4D000204601F0A5F90DF1070025F0C5F900205F
:10D4E0001CF0B5F925F018FE0D4B186810B11B683B
:10D4F0009847002002B010BDFFF7AAFF022803D111
:10D500000122044B1A70F4E70720F3E7D42000202F
:10D5100083550308EC200020F3580308F85803084B
:10D52000E820002008B508F0E7FC012003F088FFA0
:10D5300010F092FC08B110F097FC1CF0DEF91048D6
:10D54000FDF7B0FE0F48FDF7ADFE0F48FDF7AAFE50
:10D5500002220E4B1A700E4B1A680AB11B689847CC
:10D56000FAF704FE0B4B1B68C01A0B4B18600B4BF1
:10D570001B781BB1BDE80840FFF790BF08BD00BF96
:10D58000F8580308F358030883550308D4200020F3
:10D59000D8200020D0200020CC200020EC2000202B
:10D5A000012238B5124B00201A7004F061F80025F2
:10D5B0000446BCB14DB101200BF028F9BDE838405C
:10D5C000C0F130010B4817F0FBBC204604F0AAFB69
:10D5D0000546204604F09FFB2046002104F038F861
:10D5E0000446E6E7002DE6D1BDE83840FFF79ABFD4
:10D5F000D4200020E02000200023F7B504460D468B
:10D600008DF80730FAF7B2FD224B21461860224808
:10D6100017F0D6FC0DF1070025F026F99DF807302C
:10D62000033B012B32D825F02BFD1C4B621E9A4286
:10D6300006462DD840F252236A1F9A4200D93DBBBC
:10D64000174F2946384617F0BBFC1EB10724204669
:10D6500003B0F0BD20460AF0A5FB25F011FD0446FD
:10D660000028F3D10F4B10491888FDF7C3FC0CF0CC
:10D67000ABFF10B1FFF794FFE9E7386817F085FCBE
:10D680000028F7D10322094B1A70E0E70524DEE7F2
:10D690000324DCE7D0200020E42000207F3A0900AA
:10D6A000DC2000200018002040420F00D420002081
:10D6B00038B52D4D2B78032B2FD8DFE803F0090266
:10D6C00025182A4B186817F060FC58B1FFF72AFF9D
:10D6D000FAF758FD2B780446032B3AD8DFE803F01D
:10D6E00040252A2504F0F6FB0028F1D1EEE70CF0E6
:10D6F0006BFF10B1FFF754FFEAE71D4B186817F0F6
:10D7000044FC0028F6D1E3E71A4B186817F03DFCFB
:10D710000028DDD0FFF7C2FEDAE772464FF4D5717C
:10D7200048F2EE70FBF772F8D2E700F5742000F5CE
:10D73000107038BDFFF772FE012838BF0120B0F528
:10D74000E16F034628BF4FF4E1630B4800FB034041
:10D75000EFE7724640F21A2148F2EE70FBF756F8F6
:10D7600006482044E5E700BFD4200020E020002048
:10D77000DC200020E420002040420F0000D2496B52
:10D78000A0F50073032B9DBF024B186002480020D8
:10D79000704700BFFC1700200459030830B587B05C
:10D7A0006C46124D0FCD0FC495E8030084E80300CA
:10D7B0006846FDF765FB0E4B40F2032118800023FD
:10D7C0000C4A0D4813700D4A13600D4A13600D4A40
:10D7D00011600D4A137017F0D4FB0C4817F0D1FB01
:10D7E0000B4807B0BDE8304017F0CBBBB0A403082E
:10D7F00000180020D4200020E4200020CC200020AD
:10D80000D0200020FC170020EC200020DC2000208D
:10D81000E020002001299FBF034B1970034B1860C3
:10D8200094BF002003207047F8200020F42000203F
:10D83000014B186000207047FC200020014B18604D
:10D840000020704700210020014B18600020704725
:10D85000F02000200220704702207047022070470D
:10D86000014B1860002070470421002007B5124AC0
:10D870008DF80510137883F001038DF80430002330
:10D8800013700E4B1B68B3F5037F08D90C4B1B6854
:10D8900013B1032001A9984703B05DF804FB094BBD
:10D8A0001B68002BF8D0084A1278012A01D1012800
:10D8B000F2D19847F0E700BFED20002008210020BA
:10D8C00000210020F4200020F820002007B5B0FA45
:10D8D00080F00C4B40091B688DF80400B3F5037F02
:10D8E00008D9094B1B6813B1022001A9984703B05E
:10D8F0005DF804FB054B1B68002BF8D001A8984786
:10D90000F5E700BF0821002000210020FC200020B6
:10D91000054B01461B682BB110B1002104201847AC
:10D920000520FCE7704700BF0021002008B526F065
:10D9300041F818B90122024B1A7008BD0720FCE714
:10D94000ED20002010B5044624F0B7FF38B1204682
:10D9500010F040FB002814BF0020032010BD24F06D
:10D96000F5FE0128F3D00520F8E708B525F088FB7F
:10D97000034600F001005A0748BF40F00200990733
:10D9800048BF40F004001A0748BF40F00800D9061D
:10D9900048BF40F010009A0648BF40F020001B0628
:10D9A00048BF40F0800008BD10B524F086FF30B1BC
:10D9B00025F066FB044640B10724204610BD24F044
:10D9C000C5FE0128F4D00524F7E7012003F0C4FDCB
:10D9D000F3E710B5044688B008B301A826F012FE9C
:10D9E0009DF80430022B0FD12370029B012163604C
:10D9F000049B0798A3609DF81830237307F0DEFBA3
:10DA00006073002008B010BD5A1E534253410020DD
:10DA100023704FF47F43C4E90100A381F2E704209F
:10DA2000F0E708B525F062F9002818BF052008BD09
:10DA300008B528B125F078F9002818BF052008BDE1
:10DA40000420FCE72DE9F04F85B00546FAF78EFB80
:10DA500000266C6887B225F033FEB04603464FF0CF
:10DA600002094FF0010A13B12A68B24204D800201B
:10DA70002E6005B0BDE8F08F5A68CDE902880092AB
:10DA80005A8ABA1AADF804209A89ADF80620DA89C4
:10DA9000ADF808201A7C8DF80B205A7C8DF80C20EC
:10DAA0009A7D12F0030205D0032A14BF4A4652465B
:10DAB0008DF80A209A7DC2F38102012A05D0022A3C
:10DAC00014BF4A4652468DF80D20EC4604F1100B67
:10DAD0000DF1100E624603CA7245206061609446E3
