:020000040800f2
:1000000000000120050400080d0400080d0400088c
:100010000d0400080d0400080d0400080d0400087c
:100020000d0400080d0400080d0400080d0400086c
:100030000d0400080d0400080d0400080d0400085c
:100040000d0400080d0400080d0400080d0400084c
:100400000a0000000048004725040008bff34f8f92
:10041000024903480860bff34f8ffee70ced00e090
:100420000400fa0500b51648164c174d241a91b071
:100430002246294603f070fc1448154a0021121a7e
:1004400003f077fc1348144a2919121a03f064fccc
:100450001248134a0021121a03f06bfc02f078fdd7
:100460000121684602f0bef9009801a902f06bf97b
:1004700020b9039b0b4843f00103984701f0a4fc0b
:100480001800002058010020f03f0008580100200b
:10049000100200200015002018150020181500205b
:1004a00078380020383e0008074b07b518689a884e
:1004b0009b7900906846adf804208df8063000f076
:1004c0009bf803b05df804fbd23f0008024a536b6f
:1004d0000342fcd1704700bf004009407047000054
:1004e000f8b504464ff04023d3f88420d106fbd45e
:1004f000d3f88430c3f381139c422dd001f0dafb92
:10050000012c064602d1214600f014fe01f03ef90e
:10051000124b4ff00072074620464ff040255a66b6
:10052000fff7dcff621e4ff4806393402b676b6e16
:100530009a0103d4d5f884309b060ad5384601f0d9
:1005400029f9022c08d130460021bde8f84000f01e
:10055000f1bdd5f88430eae7f8bd00bf0060004087
:1005600007b518b9019101f0a5fb0199064b1b785d
:1005700043b1064b984205d8012003b05df804eb67
:10058000fff7aebf0220f8e718150020005a6202fc
:10059000154b4ff00042154910b55a664af6cd3357
:1005a0004c6c0b6404f0010478b90120fff78eff56
:1005b0004b68db0704d50e4b58600b6bd807fcd596
:1005c00014b10a4b0b4a1a6410bd0b6b1a07fcd40a
:1005d000074b20229a620122a3f580535a60034af6
:1005e000936a9b06fcd5ebe7009000400040094071
:1005f000006009403254ffff38b54ff00042164bff
:10060000164c01465a664af6cd33656c4ff04022cf
:10061000236443780b205b0043f00103d363fff7af
:1006200055ff63688a7823f4f87343ea0213636022
:10063000ca784b7943ea0223a3600a798b7943eaab
:10064000022323610878fff7a3ffeb074ff00100b7
:1006500044bf034b236438bd009000400040094074
:100660003254ffff4ff04023d3f88420d206fbd44e
:10067000d3f88400c0f38110704700002e4b9842dd
:100680004ad022d82d4b984240d014d82c4b9842b7
:1006900039d00ad82b4b984232d02b4b98422fd0ce
:1006a0002a4b98422cd000207047294b9842fad10f
:1006b000284b186f7047284b98422ad0274b9842f6
:1006c000f1d1244bd3f880007047254b98422bd0b2
:1006d00009d8244b984223d0234b9842e3d11d4b99
:1006e000d3f88c007047214b984221d003f5740356
:1006f00003f510539842d6d1164bd3f898007047a3
:10070000144b986d7047134b586e7047114b586fd0
:100710007047104b986f70470e4bd3f884007047aa
:100720000c4bd3f8880070470a4bd3f89000704701
:10073000084bd3f8940070470048e8010024f40007
:10074000c0cf6a0080841e0000093d0040420f00b7
:10075000405dc6000080e00fc0ea210180ba8c0134
:10076000007e560380d54302006cdc020090d0036b
:1007700038b5174b05460c46d3f8203103f0070374
:10078000013b052b20d8dfe803f0030b130f171be9
:1007900001f084fa052305b1286004b1237038bd47
:1007a00001f0b8fa0323f6e701f0c0fa0723f2e7f5
:1007b00001f0b8fa0223eee701f070fa0623eae747
:1007c00001f0a8fa0423e6e700231846e3e700bf98
:1007d0000080004038b5124b05460c46d3f828314e
:1007e00003f00703013b032b17d8dfe803f0020ee9
:1007f000120a01f053fa052305b1286004b12370f1
:1008000038bd01f093fa0723f6e701f083fa0323da
:10081000f2e701f087fa0223eee700231846ebe740
:100820000080004073b5134a0d4600210646019131
:10083000d2f8804104f00304022c13d0032c0cd016
:10084000012c14d101a8fff793ff0f230eb1019ad9
:10085000326005b12b7002b070bd01f067fa07235a
:100860000190f3e701f05efa23460190eee70b46b4
:10087000ece700bf00800040002337b50193054638
:10088000144b0c46d3f8203203f00703013b032b33
:100890001ed8dfe803f0020e1318002101a8fff7ad
:1008a00099ff11230db1019a2a6004b1237003b09e
:1008b00030bd01f03bfa07230190f3e701f078fa2d
:1008c0000a230190eee701f079fa09230190e9e7a4
:1008d0000023e7e70080004038b5104b05460c4682
:1008e000d3f8403103f00303022b0bd0032b0dd0c0
:1008f000012b0fd101f05cfa0a2305b1286004b185
:10090000237038bd01f05afa0923f6e701f053fad3
:100910000b23f2e700231846efe700bf00800040fa
:10092000002337b501930546154b0c46d3f86032ca
:1009300003f00703013b032b1fd8dfe803f0020e8f
:100940001914002101a8fff713ff0f230db1019a1d
:100950002a6004b1237003b030bd002101a8fff765
:10096000bbff1023f2e701f0e1f907230190ede767
:1009700001f0d8f902230190e8e70023e6e700bf81
:100980000080004038b5134b05460c46d3f80032c2
:1009900003f00703013b032b18d8dfe803f0020a3a
:1009a0000e1201f005fa0a2305b1286004b1237084
:1009b00038bd01f003fa0923f6e701f0fcf90b2337
:1009c000f2e701f091f90e23800aede700231846c3
:1009d000eae700bf0080004038b5134b05460c46df
:1009e000d3f8083203f00703013b032b18d8dfe8e4
:1009f00003f0020a0e1201f0dbf90a2305b12860a8
:100a000004b1237038bd01f0d9f90923f6e701f0ec
:100a1000d2f90b23f2e701f067f90e23800aede724
:100a200000231846eae700bf0080004038b5104bad
:100a300005460c46d3f8403203f00303022b0bd0db
:100a4000032b0dd0012b0fd101f0b2f90a2305b110
:100a5000286004b1237038bd01f0b0f90923f6e72e
:100a600001f0a9f90b23f2e700231846efe700bfd6
:100a70000080004038b5104b05460c46d3f8503284
:100a800003f00303022b12d0032b08d0012b0ad052
:100a90000023184605b1286004b1237038bd01f069
:100aa0008af90b23f6e701f083f90a23f2e701f054
:100ab00085f90923eee700bf0080004038b5104bf0
:100ac00005460c46d3f8603103f00303022b0bd02c
:100ad000032b0dd0012b0fd101f06af90a2305b1c8
:100ae000286004b1237038bd01f068f90923f6e7e6
:100af00001f061f90b23f2e700231846efe700bf8e
:100b000000800040b0f5207f1fd009d8b0f5007fed
:100b100015d003d868b1b0f5c07f0ad000200ce032
:100b2000b0f5607ffad10b4bd3f88000c0f3011011
:100b300003e0084b186fc0f3033001307047054bda
:100b4000d3f89000c0f30460f7e7024b186fc0f3ce
:100b50008020f2e70080004038b54ff480320e4b21
:100b6000054600209a66fff7cdff0c4b68430c4dfd
:100b7000dc69a84204ea020441f67132da635a6879
:100b800022f4401203d9012918bf42f480125a609e
:100b90000cb10022da6338bd009000400000034031
:100ba000005a620208b501f0b1f80021bde8084022
:100bb000fff7d2bf430905d0012b0dd0022b094b03
:100bc00018bf002300f01f0041b103f5805301223c
:100bd00002fa00f018607047034bf3e703f5005387
:100be000f5e700bf68800040648000401fb5044600
:100bf0000020b4f5807f029000f0f5806bd8002cc7
:100c000000f0d580203ca3b2602b74d8602c72d841
:100c1000dfe814f0cd00d000cd00d000df00df0011
:100c2000df00df00df00d000e4007a00fb009a0064
:100c30007a00d000d000d000710071007100710006
:100c4000710071007100fb00d000d000d0002301c2
:100c50000001d0007100710071007100710071001d
:100c60007100710071007100710071000501df00f9
:100c7000cd00cd00cd00ad007a007a00b5000a01ac
:100c80008f00c400c4007100710071007100710018
:100c900071007100710071007100710071007100cc
:100ca00071007100710071007100710071007100bc
:100cb00071007100710071007100710071007100ac
:100cc000710071007100710071007100710071009c
:100cd00071007100c900b4f5e06f00f09b8038d856
:100ce000b4f5607f70d01ad8b4f5007f6cd005d809
:100cf000b4f5c07f5bd0029804b010bdb4f5207f7e
:100d000058d0b4f5407ff6d100f0eeff02464ff424
:100d10002070fff7f7feb2fbf0f0400845e0b4f5b5
:100d2000b06f5bd00ad8b4f5806f52d0b4f5a06f25
:100d3000e1d1002102a8fff79ffddce7b4f5c06f09
:100d400063d0b4f5d06fd6d1002102a8fff71afe08
:100d5000d1e7b4f5286f67d016d8b4f5186f5ed018
:100d60000ad8b4f5f06f78d0b4f5106fc3d1002174
:100d700002a8fff731febee7b4f5206fbbd100211a
:100d800002a8fff7cdfdb6e7b4f5306f56d0b2d369
:100d9000b4f5386f39d0b4f5406facd1002102a85a
:100da000fff718fda7e700f085ff0290a3e700f02a
:100db0009bfffae700f098ff02464ff42070fff720
:100dc000a1feb2fbf0f0f0e700f074ff024620460f
:100dd000f5e7002102a8fff7cbfc8ce7002102a871
:100de000fff720fd87e74ff0e02303901b695b07c7
:100df00005d500f079ff0390039b02937be70df18b
:100e0000070103a8fff768fdf6e7002102a8fff736
:100e100063fd70e7002102a8fff708fe6be70021e1
:100e200002a8fff727fe66e700210e4b0391d3f8d7
:100e3000703203f00303012bded1e2e7094bd3f854
:100e4000903203f00303012b04d0022badd100f04c
:100e50006dffaae700f066ffa7e7002102a8fff7f1
:100e60002dfe48e70080004008b58020fff7befe59
:100e7000034b98429ebf034b4ff480321a6708bd64
:100e8000005a620200a000400023b0f5807f07b541
:100e90008df8023000f0d48079d858286ad83828e4
:100ea00008d8243883b2092b4ad99df8020003b030
:100eb0005df804fb39381f28f7d801a353f820f058
:100ec00069100008ab0e0008ab0e0008ab0e00085e
:100ed00075100008bf100008ab0e0008ab0e00082c
:100ee000ab0e0008ab0e0008ab0e0008ab0e0008fe
:100ef000ab0e0008ab0e0008ab0e0008ab0e0008ee
:100f0000ab0e0008ab0e0008ab0e0008cb100008bb
:100f1000b50f0008ab0e0008ab0e0008ab0e0008c2
:100f2000fd0f0008ab0e0008ab0e0008d71000083c
:100f3000e3100008b3100008211000082110000879
:100f40000928b2d801a353f820f000bfb50f00085c
:100f5000b50f0008b50f0008b50f0008b50f000861
:100f6000ab0e000835100008ab0e00086910000831
:100f7000d50f0008802898d16c4b1b6f03f0070336
:100f8000013b032b91d8dfe803f0ce518890b0f5f8
:100f9000086f75d024d8b0f5c06f65d010d8b0f503
:100fa000a06f00f08680b0f5b06f43d0b0f5806fd1
:100fb0007ff47baf0df102010020fff7d9fb74e74e
:100fc000b0f5e06f7bd0b0f5f06f53d0b0f5d06fd7
:100fd0007ff46baf0df102010020fff7d3fc64e753
:100fe000b0f5286f7dd00fd8b0f5186f6dd0b0f583
:100ff000206f70d0b0f5106f7ff457af0df1020184
:101000000020fff7e9fc50e7b0f5306f7cd0fff42b
:101010004cafb0f5386f27d0b0f5406f7ff445afd7
:101020000df102010020fff7d5fb3ee705238df807
:1010300002303ae70df102010020fff7f3fb34e73d
:1010400001934ff0e0231b695b0707d500f04cfece
:101050000c238df803309df80330e8e70df1030110
:1010600001a8fff739fcf6e70df102010020fff7b8
:1010700033fc1ae70df102010020fff71ffd14e712
:101080002a4bd3f8003103f00303022b07d0032bc4
:1010900009d0012b0bd100f03dfe0323c7e700f080
:1010a0008dfe0923c3e700f03bfe0823bfe70123c1
:1010b000bde70df102010020fff7defbf5e60df1c3
:1010c00002010020fff7b2fcefe60df10201002063
:1010d000fff7d0fce9e60df102010020fff720fc4c
:1010e000e3e60021114b0191d3f8703203f00303c2
:1010f000012b04d0022b14bf0b46142397e701a841
:10110000fff7eafb102392e7084ad2f8902202f098
:101110000302012a05d0022a89d100f007fe072325
:1011200085e700f0fffd022381e700bf008000405b
:1011300000f0b4bd0029ccbf01210021fff70cbd98
:10114000b0f5207f10b50c4642d008d8b0f5007f2e
:1011500033d003d888b1b0f5c07f0ed010bdb0f544
:10116000607ffbd11f4b013cd3f8801021f0300190
:1011700041ea0414c3f88040f0e7fff713fd013c97
:1011800000f034f8174b184a4ff480311167196f8b
:1011900021f4704141ea04341c6700f0a5fd0446c7
:1011a000fff760fac0f102012046fff7c3ff00f02d
:1011b00023f8bde81040fff757be0a4b013cd3f8b7
:1011c000901021f0f85141ea0464c3f89040c5e75b
:1011d000044b013c196f21f4806141ea84241c67af
:1011e000bce700bf008000400090004002214ff4a7
:1011f0002070fff7a5bf000008b54ff4c070fff7df
:10120000f5fc0549bde8084088428cbf0221012158
:101210004ff42070fff794bf80f0fa02b0f5807fa2
:10122000f8b50c4600f04e8174d8582866d8382896
:1012300004d8243883b2092b46d9f8bd39381f2881
:10124000fbd801a353f820f0371500083b12000823
:101250003b1200083b12000857150008b71500089c
:101260003b1200083b1200083b1200083b1200082a
:101270003b1200083b1200083b1200083b1200081a
:101280003b1200083b1200083b1200083b1200080a
:101290003b120008d7150008411300083b12000854
:1012a0003b1200083b120008bb1300083b12000869
:1012b0003b1200083d1600085d160008971500084f
:1012c000f7130008f71300080928b6d801a353f84c
:1012d00020f000bf4113000841130008411300082b
:1012e00041130008411300083b120008a514000830
:1012f0003b120008371500087913000880289cd19c
:101300008b1e062b00f2cb80dfe803f0c6b4c98544
:10131000c9c9c300b0f5086f00f02d813cd8b0f505
:10132000c06f00f008811bd8b0f5a06f00f03381ca
:10133000b0f5b06f00f0b680b0f5806f7ff47daf90
:10134000023cad4ae4b2052c96bfac4b0021195dbe
:10135000d2f8203123f007030b43c2f820316ce7a9
:10136000b0f5e06f00f02781b0f5f06f00f0f3808a
:10137000b0f5d06f7ff461af093c9f4ae4b2052c11
:1013800096bf9f4b0021195dd2f8003223f007036e
:101390000b43c2f8003250e7b0f5286f00f05e81d1
:1013a0001bd8b0f5186f00f01681b0f5206f00f073
:1013b0004581b0f5106f7ff440af093c8e4ae4b22e
:1013c000052c96bf8f4b0021195dd2f8083223f00f
:1013d00007030b43c2f808322fe7b0f5306f00f077
:1013e0004e81fff42aafb0f5386f00f0a480b0f55d
:1013f000406f7ff422af023c7f4ae4b2052c96bfd7
:10140000814b0021195dd2f8283123f007030b43eb
:10141000c2f8283111e70025022601210220fff73a
:101420005ff84ff48037fff7bdfbfff7dffe724a2e
:10143000764b1f67136f23f007033343136700f0e6
:1014400053fc0646fff70ef9c0f102013046fff7e4
:1014500071fe01210020fff783f8fff7cdfefff7b3
:1014600003fd002d7ff4e9ae032c7ff4e6ae684b5c
:101470009f62e2e6654b4ff4801203265a664ff4f2
:101480008032644b9d6a03f58053c5f300659a6210
:10149000c3e700250426c0e700250126bde7002597
:1014a0002e46bae7023c544ae4b20d2c96bf5a4b82
:1014b0000021195dd2f8803123f003030b43c2f8f9
:1014c0008031bae60c2920d01bd8a1f10904022ce6
:1014d0003ff6b3ae484b4ff480325049586e03f597
:1014e00080535a664b6a43f001034b62c1035cbff1
:1014f0004b4b5a664ff0e022136923f0040313614b
:101500009be610297ff499aee4e73b4b4ff4803221
:101510004249586e03f580535a664b6a23f0010323
:101520004b62c3035cbf3e4b5a664ff0e022136927
:1015300043f00403e3e7093c2f4ae4b2022c96bfd0
:10154000384b0021195dd2f8403123f003030b43df
:10155000c2f8403171e6093c274ae4b2022c96bf3a
:10156000314b0021195dd2f8603123f003030b43a6
:10157000c2f8603161e6cc1e1f4ae4b2062c96bf69
:101580002a4b0021195dd2f8003123f003030b43ed
:10159000c2f8003151e6073c174ae4b20a2c96bf64
:1015a000234b0021195dd2f8203223f007030b43af
:1015b000c2f8203241e6093c0f4ae4b2022c96bf41
:1015c0001c4b0021195dd2f8403223f003030b437a
:1015d000c2f8403231e6093c074ae4b2022c96bf19
:1015e000154b0021195dd2f8503223f003030b4351
:1015f000c2f8503221e600bf008000408e3d000856
:10160000973d0008973d0008af3d0008009000405e
:101610000060004a0040004a803d000800c00740ca
:1016200000a00040943d0008943d00089d3d000846
:10163000a43d0008943d0008943d0008023c184a6f
:10164000e4b20e2c96bf174b0021195dd2f8603220
:1016500023f007030b43c2f86032eee5102c0cd0e8
:10166000142c14bf002102210d4ad2f8703223f04d
:1016700003030b43c2f87032dfe50121f4e70229ce
:101680000cd0072914bf00210221054ad2f890325c
:1016900023f003030b43c2f89032cee50121f4e7b7
:1016a00000800040b53d000870b54ff4c0220546eb
:1016b000fef7e4ff304b04465a6603f598335a6848
:1016c000012a04d12d494a605a689207fcd480202f
:1016d000fff7dafb052807d1fff764fafff786fd6d
:1016e000254b4ff480321a67254b24f040749d42fd
:1016f00037d0244b9d4237d000f0d0fa85420646c1
:1017000003d901212846fef72bff1f4bda6812f0a0
:10171000060ffbd199689c6004f4f8149a6802f4ef
:10172000f812944223d1284600f0befa8020fff739
:10173000abfb05280dd100f0d7fa0446fef792ff67
:10174000c0f102012046fff7f5fcfff755fdfff75a
:101750008bfbb5420ed801210020bde87040fef79a
:10176000ffbe44f00074c7e744f08074c4e7354618
:101770009960dbe770bd00bf0090004000e00140d1
:1017800040420f0080841e0000000140eff31080f3
:1017900072b6704700b962b67047eff3108072b648
:1017a0007047fff7f7bf08b5fef77efe00e000bf09
:1017b00000e000bf08bd000000487047c43d0008bd
:1017c000034ad2f8a03023f01003c2f8a0307047cb
:1017d00000c00340034ad2f8a03043f01003c2f81f
:1017e000a030704700c00340054b9a695106fcd5f4
:1017f000d8639a699206fcd5586ac0b2704700bf98
:1018000000c0054008b54ff080620b4b5a664ff49c
:1018100000725a6600f040f90520fff7d1fffff78c
:10182000e3ffff20fff7e0ffff20fff7ddff00f001
:101830000100fff7cfff08bd0090004008b506206b
:10184000fff7befffff7d0fffff7c4fffff7daff98
:101850000028fbd10520fff7b3fffff7c5ffff20ee
:10186000fff7c2ffff20fff7bfffc0f34000fff705
:10187000b1ff08bd784b4ff08062012170b55a6608
:101880004ff4007286b05a6603f54c33d3f89420b7
:1018900022f4702242f48022c3f89420d3f8a020ce
:1018a00042f01002c3f8a020d3f8942022f0f002f6
:1018b00042f04002c3f89420d3f8a02022f00202a4
:1018c000c3f8a020d3f8942022f4706242f480720e
:1018d000c3f89420d3f8a02022f00402c3f8a0207b
:1018e000d3f8942022f4704242f48042c3f894204a
:1018f000d3f8a02022f00802c3f8a02003f500339b
:10190000564a516040f6aa6255495a6100221a614e
:10191000da64544a916440f201429a6041f205024d
:10192000da6001aa504b03f110051868083353f828
:10193000041c1446ab4203c42246f6d11b78237024
:101940004a4b1b6f03f00703032b79d0424b4ff434
:1019500080225a66464a9368c3f30443102b71d819
:10196000183344496b4413f8143c4b4342498b42af
:1019700003d19268c2f30162d3403c4a3f49126fdf
:10198000c2f303320132b3fbf2f33d4a013bb3fb36
:10199000f2f33c4a1b02d361102353613a4bc3f864
:1019a000b0174ff00211c3f8a81701f58031c3f842
:1019b000ac171c21c3f89817052353614af2a053b2
:1019c0000193019b002b3fd1ab20fff7f9fefff7fe
:1019d0000bfffff7fffe2d4b0093009cbcbb9f202d
:1019e000fff7eefefff700ffff20fff7fdfe0646c4
:1019f000ff20fff7f9fe0546ff20fff7f5fefff792
:101a0000e9fec22e26d1282d24d1142822d1fff799
:101a100015fff8b10120fff7d3fefff7e5fe2046e2
:101a2000fff7e2fe2046fff7dffe0220fff7dcfeb5
:101a3000fff7d0fefff7e6fe0028fbd106b070bd31
:101a4000134b9ae7134b98e7019b013bb8e7009bc8
:101a5000013bc1e70120f1e70090004000d00540c4
:101a6000ffff010000e00540d93f00080080004072
:101a70000000014040420f0000093d00020001004b
:101a80000024f40000c0054000c00340e0f0010065
:101a900000f04902c0ea2101044b9a6840f2014378
:101aa0009a4201d0fff7e6be704700bf00c0054074
:101ab000f7b51e4b15464ff0806206460c465a6637
:101ac0004ff400725a66fff7e7fffff79bfe40bb3b
:101ad0006319b3f5801f26d803238df8074001afa3
:101ae0008df80430230c8df80530230a04248df87a
:101af0000630fff765fe013c17f8010bfff774fe97
:101b000014f0ff04f7d13544ae4204d1fff762fe72
:101b1000204603b0f0bdff20fff766fe06f8010b7c
:101b2000f2e70224f4e70424f2e700bf009000404b
:101b3000f7b5244b15464ff0806204460e465a66b0
:101b40004ff400725a66fff7a7fffff75bfe98bbe2
:101b500024f0ff03621903f580739a422ed8b2f580
:101b6000801f2bd8b5f5807f28d8fff767fe38b3e4
:101b700002238df8074001af8df80430230c8df857
:101b80000530230a04248df80630fff719fe013cc6
:101b900017f8010bfff728fe14f0ff04f7d13544c6
:101ba000ae4204d1fff716fe204603b0f0bd16f892
:101bb000010bfff719fef3e70224f5e70424f3e72e
:101bc0000124f1e700900040f7b5214b4ff080620f
:101bd000046805465a664ff400720e465a66fff7cf
:101be0005bfffff70ffe68bbc4f30e0363bb04f596
:101bf0000043b3f5801f27d8fff720fe30b35223f0
:101c00008df8074001af8df80430230c8df80530b6
:101c1000230a04248df80630fff7d2fd013c17f8a3
:101c2000010bfff7e1fd14f0ff04f7d1fff7d2fd40
:101c30002b6803f500432b603368013b336020467b
:101c400003b0f0bd0224fae70424f8e70124f6e724
:101c500000900040094a034630b502f128051446b9
:101c6000083303ccac4243f8080c43f8041c22466a
:101c7000f5d120681860002030bd00bfd43d0008b9
:101c8000044b054a9a60d3f8882042f47002c3f8e6
:101c90008820704700ed00e000000000014b18684c
:101ca000704700bf04150020014b1860704700bf4b
:101cb00004150020084b1b6f03f00703022b04d010
:101cc000032b05d0012b05d0fee7044b18687047a5
:101cd000034bfbe7034870470080004004150020d9
:101ce00008150020002d310108b5fff7e3ff054b73
:101cf0001b6fc3f303330133b0fbf3f0024b1860e7
:101d000008bd00bf0080004000150020004870475b
:101d100000b4c404014b1868704700bf08150020c8
:101d20000020704700487047002d31014ff0944368
:101d30009868c0f304400c2822d8dfe800f009219d
:101d400021212121071719211b1d1f000f48704752
:101d50009b6803f04073b3f1807f13d0b3f1007f31
:101d600012d00b4a002b08bf104670470948704735
:101d70000948704709487047094870470948704743
:101d8000002070470848704708487047405dc6000b
:101d900000093d000024f400c0ea210180ba8c0152
:101da0000048e801005a620280841e0040420f0091
:101db0004ff4004070474ff47a707047014b186839
:101dc000704700bf0c150020bff34f8f0549064b2d
:101dd000ca6802f4e0621343cb60bff34f8f00bfc9
:101de000fde700bf00ed00e00400fa0508b5fff7cd
:101df000ebff01f0d1b808b5fff742fffff7d3fcc6
:101e000000f00efcbde8084000f016b908b500f07f
:101e100015ff18b1bde8084000f08abf08bd0000fa
:101e20000023044a1370044a1360044a1360044aee
:101e300013707047040200200002002008020020f6
:101e40000502002030b5164b91b0186801a900f0ca
:101e50007afcf8b9134b02991b78134c134a13b14f
:101e60002060116016e0039d05f110032d699db1fe
:101e70002d0711d19d6801350ed01d7bff2d0bd094
:101e80005d7bff2d08d09d7bff2d05d01b69236056
:101e9000cb1a136011b030bd00232360e1e700bf0f
:101ea0005c01002058010020640100206001002036
:101eb000f0b5234b87b01b78002b3ed10124214f76
:101ec000214ecde90047214a10231268306802a94b
:101ed00000f0b5fc20b105221d4b1a7007b0f0bd13
:101ee00010221c4802a901f007ff18b9184b1c70fa
:101ef0000120f3e71022184802a901f0fdfe18b1f5
:101f00000222134b1a70f3e7cde90047134d144a30
:101f1000102329461268306800f091fc10b10522a8
:101f20000b4befe72b680f4aa3f14001914201d818
:101f30001b07d3d00322064be4e70720cee700bf00
:101f400004020020a08601005c010020fc010020aa
:101f5000f8010020143e0008253e0008dc010020a6
:101f6000d8010020c0ff0f002de9f04f2c4c834614
:101f7000237885b0002b50d105232370fff798fffd
:101f8000054638b9dff8ac90d9f80c30022b08d1ef
:101f900003232370284623788bf8003005b0bde872
:101fa000f08f032b01d10423f3e74ff6ff761d4b8f
:101fb000d9f800801a68a2eb080ab8f1000f05d121
:101fc000b9f80430b34224d10623e2e747460023a0
:101fd000702f28bf7027144a1448cde900321449e5
:101fe0003b465246006800f02afc78b9104bba44d0
:101ff000a8eb07081f4413f8011b3046039301f0b8
:1020000035f8039b0646bb42f5d1d6e74ff6ff767f
:10201000d6e7042307252370bce70025bae700bff5
:10202000f8010020d8010020a08601005c010020fa
:1020300068010020dc01002038b51a4c042120463c
:1020400000f0d0fb184de0b92368013319d001220c
:10205000164b1a70fff7f6fe0446e8b9144b154a02
:102060001b6812681344144aa3f110011160134a4b
:10207000203b1360fff7d4fe28700b48fff774ff76
:102080000de00221074800f0adfb28b923680133b9
:1020900002d0064b1870dde7052301242b70204683
:1020a00038bd00bf5c010020f8010020580100206d
:1020b0006401002060010020fc010020d801002004
:1020c0002de9f347314b15461a7806460c46002a8f
:1020d00055d12f4b1b78062b51d1dff8cc80d8f887
:1020e000003020338b424cd95b1aab4249d30028d5
:1020f00047d01f292ed8dff8a8a0264fcde9002a07
:10210000dff8a090244a102339461268d9f800005d
:1021100000f095fb80bb1023cde9000a1f4ad9f8d7
:1021200000001268f91800f08afb28bbc4f12009ee
:10213000a94528bfa9464ff000404ff0ff33391999
:10214000c7e906034a46304601f0e6fd4c44a5ebdc
:1021500009054e44bdb1114b11491a68d8f8003039
:10216000203ad21a0023cde900310e482b463146e1
:102170000068224400f063fb02b0bde8f08707204e
:10218000fae70420f8e72846f6e700bf040200203b
:10219000f801002068010020fc010020d801002087
:1021a000a08601005c010020dc0100202de9f04741
:1021b000254e96b0254f054607a9306800f0c3fab2
:1021c0003b78012b2dd04ff00109dff89080204a99
:1021d0000c9bd8f8004012685b421a400f34dff8bd
:1021e00080a002921c40029ba3421cd9194b03ac55
:1021f00003f11005224618685968083303c2ab4240
:102200001446f7d10024144bd8f80010cde9004350
:102210003068102303aa00f087fb01233b70fff70f
:10222000fffd00200de0cdf80c9005b1a84700237c
:102230003068cdf800a003aa02a900f0bffb002877
:10224000d1d016b0bde8f0875c010020f801002075
:1022500064010020003e000820a10700fc010020ce
:1022600080841e0038b504465f2c0d46104601d808
:10227000012038bd2307fbd1084b1b68a342f7d3cd
:10228000fff794ff0028f3d10122054b1a70054b8c
:102290001860054b1c60054b1d70eae760010020cb
:1022a0000402002000020020080200200502002095
:1022b0002de9f04f1e46674b07461c7889461546a8
:1022c00085b044b9fff7acfd0323042433702046e6
:1022d00005b0bde8f08fdff8b0b1dbf80020824236
:1022e00004d0fff79dfd04243470f0e7a80703d065
:1022f000fff796fd0523e8e7702df9d8564b1b68cc
:102300009342eed39a1aaa42f2d319b9fff788fd85
:102310000723dae7012c68d1c7f1200aaa4528bfb4
:10232000aa46dff85081524608eb07005744039352
:1023300001f0f2fc1f2f039bcbf8007001d80024a2
:10234000d2e7102240464549039301f0d5fc039b98
:1023500020b1fff765fd06233370b8e7d8f81010f9
:102360003f4aa1f140009042f3d8d8f8182001f07c
:102370000f0022f000420243ebd1d8f81c000130dc
:10238000e7d120318b42e4d14ff00043c8f8183038
:10239000344b354c1b78354988f81630344bdff810
:1023a000e4801a70cde900281023324a09682068b9
:1023b00000f0bafa18b108230124337087e7cde999
:1023c00000082d4910232d4a0968206800f0acfa56
:1023d0000028f0d12a4c294aa5eb0a050fca84e847
:1023e0000f0002231b4ad1441370002da7d02a46a8
:1023f0004946204801f090fc1f4b224a1968204ba7
:1024000020391b681848c91a0023cde90032394425
:102410002b46184a006800f087fa0028cbd10e4bf3
:10242000dbf800201b681544114f9d423870cbf833
:10243000005084d1fff7f4fc38703846fff794fd64
:10244000044610b93b78062b01d00223b4e70123e0
:1024500082e700bf0402002008020020253e000899
:10246000c0ff0f00050200205c010020fc010020dd
:10247000f801002068010020d80100207801002028
:10248000dc01002020a107000002002030b5044636
:102490001d4d91b0fff7d6fc2b6823601b4b1a68cb
:1024a0002032a260d3e902215b686161c4e9033292
:1024b000174b01a91b782376164b186800f043f9d7
:1024c000c8b9069a2b680d99b3fbf2f30a9a0a442d
:1024d00053436360104b1b6823f0ff03b3f1405f6d
:1024e0000cd1002363760d4b1b68e3610c4b1b681a
:1024f000236211b030bd4ff0ff33eae7094a93423f
:102500000cbf0123ff23ede760010020dc01002068
:10251000580100205c010020ec010020f0010020a7
:10252000f40100200001003030b5144b89b00df1ea
:102530000f001d68fff718fd0446e8b99df80f303d
:10254000062b19d10e4b9a688ab10fcb0df1200cd6
:102550000ce90f000b4b0c48cde9004306aa0423fd
:10256000006805f10801069400f0def910b9fff7e4
:102570009ffc002009b030bd0720fbe7d8010020f8
:10258000dc01002020a107005c01002070b5114b88
:102590000446da6886b030ea020519d10e4a0df118
:1025a000180c16680fcb0ce90f000c4b0c48cde94a
:1025b000005305aa0423006806f10c01059400f0fd
:1025c000b3f9044608b9fff773fc204606b070bda6
:1025d0000724fae7dc010020d801002020a1070031
:1025e0005c010020034b1860034b1960034b1a6019
:1025f000704700bfec010020f0010020f401002032
:1026000000220146054883688b4206d00132082a21
:1026100000f11000f7d14ff0ff307047007c000848
:1026200010b500f0dffc0446fff724f9002c18bfba
:10263000204610bd73b516460d460193fff7e0ff27
:10264000421c04461ad0019a4168b3188b4217d82d
:10265000b5b1c3689b0709d500f0b0fc21682846d6
:10266000019a3144fff724fa02b070bd0168284690
:10267000314402b0bde8704000f0c0bc0520f3e773
:102680000420f1e737b50d4601920093fff7b8ff3c
:10269000421c04461cd0009a4068ab18834219d8eb
:1026a0000199b9b1e3689b070bd5cde9001200f0a1
:1026b00085fcdde9001220682844fff739fa03b0f1
:1026c00030bd2068284403b0bde8304001f048bb6d
:1026d0000520f4e70420f2e730b585b001920d46fd
:1026e000fff78eff421c04461ad002682b6801993e
:1026f0001344039391b1c3689b070bd500f05efcb4
:10270000019903a8fff760fa2268039b9b1a2b60cc
:1027100005b030bd03a801f02bfbf5e70420f3e77b
:102720000520f5e708b5fff76bff421c09d0c36829
:102730009b0702d5fff766f808bdbde8084000f02a
:1027400067bc0020f8e7f0b58db00c46fff758ffe6
:10275000421c05462ed0c36801a89b0727d5fff76a
:1027600079fa0246ab6804f10c0623606b680df140
:102770002c0c63602b68a36001ab1f4603cf674539
:10278000306071603b4606f10806f6d1386830606b
:10279000eb68c3f3400184f8381003f001019b0893
:1027a00084f8391084f83a3010460db0f0bd00f0ce
:1027b00031fcd6e70522f7e7002370b5084ca56881
:1027c000dab26e1c09d00e781034964288bf40f8f9
:1027d00023500133082bf2d11a460a7070bd00bf96
:1027e000007c00080823f0b599b08df803304ff055
:1027f000ff33054603600f4601a80df10301fff703
:10280000dbff00269df80330f4b2a34201d801207b
:102810000fe018ab03eb840454f85c0c09a9fff734
:1028200092ff40b99df85e30bb4204d154f85c3c45
:102830002b6019b0f0bd0136e4e7082070472de9a0
:10284000f04f91b0894601a9074692469b461b9ed0
:10285000fff779ff044608bbddf838809df8685023
:10286000464505f101052cbf26f0004628f000463c
:10287000edb25b46524649463846fff7dbfe04465a
:1028800040b93846fff74effa6eb080630b1002ee0
:10289000f7dc0624013d15f0ff05ead1204611b012
:1028a000bde8f08f30b589b005460c46fff7a8fead
:1028b000431c34d0c368d80702d4012009b030bd0e
:1028c000012318491022cde900312846142303a919
:1028d000fff7b5ff0028f1d1039b002bedd01a07bd
:1028e000ebd1059a0132e8d09df81850ff2de4d0c5
:1028f0009df81910ff29e0d09df81a20ff2adcd09e
:1029000020332360bdf81030e571a3809df81230ac
:102910002172a3719df81b306272a372cee705206d
:10292000cce700bfa08601002de9f04f95b01d4611
:102930009df878300c4605a9804617460393fff7ab
:1029400002ff064678bb129b0193019a1f9b93429c
:1029500038bf1346029335b3099addf80c90534201
:1029600023401344029a22f0004a62199a4294bf0b
:10297000ab46a3eb040b5b463a4621464046fff7c5
:1029800081fe50b94046fff7cdfe019baaeb030a3a
:1029900078b1baf1000ff5dc062009f1ff32b9f188
:1029a000000f04d10646304615b0bde8f08f9146c1
:1029b000e1e75c445f44a5eb0b05cce72de9f0476c
:1029c00090b00f4601a9064690461c46ddf860907f
:1029d000fff7b9fe0546f0b9ddf838a00134d1455e
:1029e0002cbf29f000492af00049e4b2424639469a
:1029f0003046fff771fe054648b93046fff792feb4
:102a0000a9eb0a0938b1b9f1000ff6dc0625013c43
:102a100014f0ff04ead1284610b0bde8f08730b5c5
:102a2000026a836a04469a4287b009d2c36a0f2bae
:102a300014d94169102202a8fff742fb054610b1e4
:102a40004ff0ff3011e0102300902246206902a9c8
:102a500000f0b1fb6369e56210336361236a0133ff
:102a60002362e36a5a1ce262e05c07b030bd0000fa
:102a70001fb5436a8b4203d84ff0ff3004b010bd3e
:102a8000c3695c1c19d0026bcc438a4203d98369a9
:102a90001a44105df2e71a44002309490948cde9b8
:102aa00000312244012300680df10f01fff7c7fe3a
:102ab0000028e1d19df80f00e0e70020dee700bf2d
:102ac000a0860100501500202de9f047002506469c
:102ad00014460f4692b000f071fa184bdff8609080
:102ae000cde90053324623463946d9f80000fff7b6
:102af0001bff8046e8b9d9f80090dff848a00cb970
:102b0000012017e0402c254628bf40253a462b4699
:102b10004846cde9008a02a9fff791fe48b92a4646
:102b2000304602a901f0e8f818b92e442f44641b7e
:102b3000e5e7002012b0bde8f08700bf20a1070044
:102b400050150020a0860100c36910b5013304466a
:102b500016d0036b8269581c2063d154d4e90c321f
:102b600093420dd3d4e90601fff7aeff10b9a36b72
:102b70000133a363e369626b1344e36100232363be
:102b8000636a00200133636210bd0000f0b51e4689
:102b9000234b9fb007460c46186869461546fff759
:102ba000d2fd20b36b1c37d14ff4005304931d4b5f
:102bb0000022cde913371c4bcde91722cde915359d
:102bc00023681a4919934ff0ff33cde91a32049b59
:102bd0000fa8cde91c32164b164a00f039fd164af3
:102be0001d9b11680b44136050b1052012e0049b3b
:102bf000b3f5005fd8d8dae7ff210fa8fff7a4ffed
:102c00001b980028f8d1189bb34207d8169a0132b6
:102c100000d023601fb0f0bd0820fbe70620f9e7d5
:102c2000501500201c15002054150020492b0008c9
:102c3000712a00081f2a0008543500200022224b68
:102c400013b51a6005230df107008df80730fff763
:102c50008bf99df80730da1e012a17d9062b17d1f8
:102c60001a4c2046fff712fc90b9236983b96369b7
:102c7000092b0dd9fff7bdf89df80730032b0ad1ba
:102c80000220fff783fcfff7b1f8fee70028f1d13f
:102c9000002002b010bd042b05d10320fff776fc05
:102ca000fff7a4f8fee74ff400520949074800f087
:102cb000d3fd084b186028b90420fff767fcfff725
:102cc00095f8fee70120e4e7543500205835002050
:102cd000541500204c150020f0b50124124e95b07b
:102ce000054605a930680394fff72dfd88b9c5b1e5
:102cf0000a9b013d5b420d4f1d40049000f05ef9c0
:102d000000233068009703aa04a90394fff756fe36
:102d100008b1002003e0049bab42efd9012015b0bd
:102d2000f0bd2046fbe700bf5015002040420f00d9
:102d30002de9f04fc5b01022302135a8fff7c0f9ba
:102d4000002864d14ff040087a4bdff8fc911968f5
:102d5000794835aa00f098f9d9f80870774edff86d
:102d6000ecb1403f002f72d01022414603a8fff77c
:102d7000a7f908f1100a0446002840f0d780394628
:102d800003a800f045fd002800f0d280dff8a8c1bc
:102d90001aadbce80f000fc5bce80f000fc59ce8da
:102da0000f0085e80f000398049b5845029330609c
:102db00004d14ff0ff333360ff2315e026a9fff75e
:102dc000c2fc38bb99f81800279c9df8d23058b93e
:102dd000022b09d1d9f80820944238bf04462b9819
:102de00028bfa41a40420440063b012b22d86ff0b2
:102df0008052d9f8140020f0805393420ed1184627
:102e0000fff7c4fb5146049a3068fff7ebfb45b06f
:102e1000bde8f08f4ff0ff343460cde76ff04053e2
:102e2000984205d14ff0ff3333600024254620e05f
:102e300009280bd014b933680133f6d023464ff07c
:102e4000ff32504602a9fff7a1feb8b107463c4b3e
:102e50001b68002b0cbf38460120fff797fbfef7dd
:102e6000c5fffee735aa10231146009500f0a3f92f
:102e70001034029b3048a342f4d800243368013355
:102e80004fd02046fff728ff00284fd02a4d0df1e4
:102e9000680cbce80f000fc5bce80f000fc59ce82c
:102ea0000f0085e80f0023460022504602a9fff7d5
:102eb0006dfe0028cad19df8d130002b31d011a869
:102ec000fff7e4fa139b3068203b0793149b35a966
:102ed0000893059b09900a93029b0b93fff733fc21
:102ee000f8b9369b232b1cd90123164a3068cde94b
:102ef00000320ca914231022fff7a1fc88b9142278
:102f00000cab13f8011bff290bd1013af9d11422a4
:102f1000102107a8fff7d8fd18b9094a1368013333
:102f20001360049b10339844ff1a1be708208de7b9
:102f300007208be74c1500201c15002050150020a1
:102f400054350020a0860100583500202f367c0221
:102f500038b5fef7edf804468020fdf795ff0546ed
:102f60000c48fef7a1fb05218020fef757f900f081
:102f7000f3fcfef740fffef749ff29468020fef7ed
:102f80004df92046fef790fbbde8384000214f2068
:102f9000fdf710be80d5430208b501214f20fdf793
:102fa00009fe054a002153684f2043f00403536093
:102fb000bde80840fdf7febd00400340034b5b6edb
:102fc0009b0402d5024800f0ebbc70470080004033
:102fd0000040004b024ad369db07fcd4704700bfb6
:102fe0000000034041f67132034b0020da63da68d7
:102ff00022f00102da6070470000034010b5eff3e1
:10300000108472b600f088fe04b962b6002010bdcc
:10301000002070470246034670b5124c04f12806a2
:10302000254603cdb542186059602c4603f10803cc
:10303000f6d10121286818600b48c3689bb29b0237
:10304000136083680a3303f01f0301fa03f353602c
:10305000836800200a3303f01f0301fa03f393602f
:1030600070bd00bf943e00080080e00f40ba80b2ff
:103070004140c1f30310414081ea0131480100f4ad
:10308000ff5089b248407047034630b501f1100443
:1030900051f8045ba14243f8045bf9d1103002f10e
:1030a000100352f8041b9a4240f8041bf9d130bdba
:1030b000002230b501f1100300f1100513f8014da5
:1030c00042ea440205f8012d93f900408b424fea91
:1030d000d472f3d1002cbebfc37b83f08703c373cc
:1030e00030bd2de9f74f9df838801f46dde90c35de
:1030f000b8f1010f0446164605d891b9c0e9081188
:103100000022c4e90a2204f1100b04f120096db970
:103110003a46304604f1200103b0bde8f04f00f01c
:10312000fbbd0a6802624a684262e9e7102d29463f
:1031300028bf102104f10f026d1a03eb010a13f8e6
:10314000010b534502f8010ff9d1edb9b8f1000fa9
:1031500002d0b8f1030f17d1102929d08023481cc1
:103160000bf80130c1f10f025844002100f0e1fddd
:1031700004f140035a46043b116853f8040f4140e0
:1031800042f8041b4a45f7d15b4653f8041bda6842
:103190004b4582ea010243f8042cf6d15b468022bb
:1031a00021460120cdf8009000f092fc5346aee796
:1031b00004f13003dee72de9f74304460e461746d7
:1031c0001d4600f1100915b903b0bde8f08304f104
:1031d00020084b46802221460120cdf8008000f0d7
:1031e00077fc23690133236153b96269013262615b
:1031f00032b9a2690132a26112b9e3690133e36114
:10320000102d2b4628bf10233946ed1af0188642a0
:1032100001d11f44d7e716f8012b18f801cb82ea39
:103220000c0201f8012bf2e730b50d4d87b02a46ac
:103230000446fff729ff012302aa294620460093ee
:103240001023fff7b8ff04f1300004f12001fff76d
:103250002fff014604f14000fff72aff07b030bd01
:103260007c350020f0b5036805460e461846144626
:103270000021202289b000f05cfd00220346a2421a
:1032800023dbb3f90020a24239d01a4619460120a7
:1032900003f11e0c31f9027fd7eb400013d48c45ab
:1032a000f8d100211c33adf802100df10201b1f983
:1032b000007032f802cf6744934221f8027ff6d1c2
:1032c0000023a3420adb09b0f0bd36f91200013237
:1032d00033f81010013123f81010d0e736f913201d
:1032e0005ab108af07eb420232f9207c696807f156
:1032f000010c22f820cc21f817300133e1e700203f
:10330000e1e770b504460d4606696369ab4209db27
:103310000120a84026fa05f25b1b01382261636197
:10332000304070bda36820689847002804da012166
:1033300004f1180000f00cfd6369c0b29840083336
:1033400006436361e1e72de9f84f00260f46b046da
:10335000b3464ff001090a680546d0e9040402f1ba
:10336000020a64b9d9f1100432d0ab6828689847d2
:10337000002828da012105f1180000f0e9fc00f02e
:10338000010242ea0b0b3af9022b4008abeb0201b7
:1033900041450eda6b69abeb080ba3eb090303f0b5
:1033a00007036b617b685e44286133f91600bde852
:1033b000f88f16444244013c4fea42084fea4b0b57
:1033c00009f10109cde7082ca8bf0824c0b2c8e75d
:1033d0006ff00900ebe700002de9f84f82460e463a
:1033e0001746dff8cc9031465046fff7acff041e7d
:1033f0000cdbff2c0ddcdaf80430002bf3d0daf80c
:103400000000e1b298470028edda01242046bde82b
:10341000f88fb4f5807f01d10024f7e76ff4807353
:103420001c441c2c38dc1f4b504633f914501e4be7
:1034300033f91410fff765ff394683465046fff70e
:1034400082ff041ee2db194a504632f9141039f9a2
:103450001480fff756ffdaf804201ab9b4f5807f1c
:10346000c1d1d9e708eb0003ab445d1ebbf1000fef
:10347000f4d02946daf80c30daf800009847011e3b
:103480000ddbdaf80430daf80000c9b298470028fa
:103490000bf1ff3beadab8e76ff00904b6e76ff02b
:1034a0000a04b3e7383f0008723f0008c03e000836
:1034b000fc3e00082de9f04fadf24c5d06ab0293e7
:1034c00025ab03930eab0521049316ab059305467c
:1034d000fff717ff052100f201172846fff711ff3c
:1034e000042100f101082846fff70bffb7f58f7f95
:1034f000044600f1040300f39380b8f11e0f00f3bb
:103500008f80dff848a14ff00009d346b4ae99454b
:1035100041db6ff003029442b8bf14460023221d22
:10352000132a45d1314602a8fff79cfe00287ad124
:10353000044607eb0809a14540dcb6f90032002b30
:103540007ad03a46314602a8fff78cfe002808d010
:1035500075db029ab2f90030b2f902201344bb4283
:103560006dd1424606eb470104a8fff77bfe002819
:1035700008d067db049ab2f90030b2f90220134494
:1035800043455fd1284604aa02a9fff725ff0df2a3
:103590004c5dbde8f08f032128460193fff7b1fe93
:1035a0003af9022b019b26f8120009f10109aee756
:1035b0003bf91210013226f81130b1e7284602a972
:1035c000fff7c1fe0028e2db0f2804dc631c26f8ad
:1035d00014001c46afe7102812d13cb3631e022131
:1035e000284636f913a0fff78cfe033023184b450d
:1035f0001fdc06eb44040138ebd324f802abfae7f6
:10360000112807d103212846fff77bfe03304ff036
:10361000000aebe707212846fff773fe0b30f6e7b9
:103620006ff00200b3e76ff00300b0e76ff0040043
:10363000ade76ff00500aae76ff00800a7e76ff0ad
:103640000600a4e76ff00700a1e700bfac3f000849
:103650002de9f04fadf5317dcde905230023cde90e
:10366000030109a8cde9073300f06cfb06460028ea
:1036700040f0b480dff88ca15d4fdff88c8103aca3
:1036800001212046fff73dfe022101902046fff771
:1036900038fe002847d1c4e90400a3682068984791
:1036a000051ec0f29b80a268206890475ffa85f9ea
:1036b000051ec0f29380a36820689847dff84cb1dc
:1036c00000280bea052545ea0905adb2c0f286805f
:1036d000a2685ffa80f92068904700287edb0bea39
:1036e000002b4bea090b6fea0b0b1ffa8bfb5d45b6
:1036f00076d16368a3b9019b002bc0d030460df58d
:10370000317dbde8f08fa36820689847011e65db16
:1037100063682068c9b29847013d0028adb262dbfa
:10372000002df0d1e7e7012852d1daf80030002b64
:1037300046d0304b20acc8f800302f4b2246c8f89a
:1037400004302e4b08213b602d4b7b603346013308
:10375000902b22f8021bfad1092120aa22f813107b
:103760000133b3f5807ff9d1072220a921f8132076
:103770000133b3f58c7ff9d108234ff49072a1f88f
:103780003032a1f83232a1f83432a1f83632a1f841
:103790003832a1f83a32a1f83c32a1f83e32404624
:1037a000fff760fd3246052301321e2a24f8023b52
:1037b000fad1384620a9fff755fd0023caf800309a
:1037c0003a46414603a8fff707fe002893d096e744
:1037d00002280ad12046fff76dfef6e702208ee7a9
:1037e0006ff001008be7012089e74ff0ff3086e79b
:1037f000ac350020f0350020183600208c35002034
:10380000b4350020101500201036002000ffff0006
:103810000f2909d9436810338b4205d8c0680f2897
:103820008cbf0020012070470020704700234ff01c
:10383000ff3210b50144884201d1012010bd10f8bb
:10384000014b944218bf00230133042b01d02246c0
:10385000f1e70020f2e700002de9f04f836807460a
:103860002f2b88469146a3b003d8002023b0bde893
:10387000f08f1022202106a8fef722fc0028f4d1a8
:103880004ff0ff360446dff8a8a0bd685146303d32
:103890000ea8fff7c9fca9452cbf002301234ff058
:1038a000300b75b10593fff789fba9454a4628bf40
:1038b0002a46594640460492fef702fcdde90423fd
:1038c00010b3102206a90aa800f016fa002808bfb3
:1038d000264601341c2c0af1200ad6d1731cc4d010
:1038e000124d301d4401102105eb4010fff79effe3
:1038f0000028bad010342c4410212046fff796ff40
:103900000028b2d02046b1e7ad1a934402d1022b71
:1039100008bf0323cde9012300211023cdf8008047
:103920000aaa0ea8fff7ddfb0223bae7007c000815
:10393000807c0008bff34f8f0549064bca6802f42c
:10394000e0621343cb60bff34f8f00bffde700bfc2
:1039500000ed00e00400fa051fb500f032f808b1f0
:10396000fff7e8ff0d4800f081f80028f8d10b4878
:1039700001a900f071f90028f2d19df8063023b9b1
:10398000064800f05bf90028ead1044800f078f816
:1039900000f019f805b05df804fb00bf58380020ae
:1039a000436810b5da0704460ad5fdf7f6fe636ae8
:1039b000db075cbf0123e360bde81040fdf7f1be0b
:1039c00010bd0020704700207047b0f5802f24d034
:1039d00010d8b0f5003f22d006d828b3b0f5803f0c
:1039e00014bf012048207047b0f5403f14bf0120ac
:1039f0002c207047b0f5302f13d008d8b0f5e02f49
:103a000011d0b0f5202f14bf012010207047b0f561
:103a10007f0f14bf0120062070474b2070472a20db
:103a200070471120704721207047000008b5b0b1e1
:103a30004ff480620b4b9a6600f040f94ff09843c8
:103a40005a6cd202fcd54ff48062586d064b10f4cc
:103a500070209a6604d0bde80840fff7b6bf212069
:103a600008bd00bf0090004000a0004008b528b18c
:103a70002022002100f05df9002008bd2120fce794
:103a800008b1fff7f3bf2120704773b506460d4616
:103a900000f058f81428044615d1684600f07cf868
:103aa0004ff0884303225a631e601d619a63da6bec
:103ab0009207fcd1142c02d1684600f07bf800f08c
:103ac00065f8044601e00028ead0204602b070bd47
:103ad00030b5c02a93b033d0b2f5807f04d0802aad
:103ae0002bd0292013b030bd4ff482740194019c77
:103af00080f00100204301901698012502901024c7
:103b00002120039504940590069301ab0795089432
:103b100009900a9306ab0b9304230c9311230d9386
:103b20000aab0e910f9340f61103d20802a90ea81a
:103b300010921193fff7a9ffd4e74ff48074d5e7f3
:103b40000f20cfe70f4b5a6e42f004025a66d3f8ab
:103b5000802242f00102c3f880220b4b5b68c3f362
:103b600008033bb14ff08842d36b13f0430ffbd1f6
:103b7000142070474ff08843d86b10f04300fbd1fe
:103b8000704700bf0080004000ed00e0014b0020c6
:103b90005b68704700ed00e010b50446fdf7f6fde8
:103ba0004ff088431a6822601b696360fdf7f2fddd
:103bb000002010bd10b50446fdf7e8fd4ff0884326
:103bc00022681a6062681a61fdf7e4fd002010bdea
:103bd00001f001038370c1f340030370c1f380035c
:103be0004370c1f34013c37081f04003c3f38013eb
:103bf000037281f08003c3f3c013437281f48073b6
:103c0000c3f30023837281f40073c3f34023c372b0
:103c100081f48063c3f38023037181f40063c3f3f1
:103c2000c023437181f4805381f40051c3f3003306
:103c3000c1f340318371c1717047000038b1002277
:103c400004498260c0e90012c261fff7efbe212083
:103c5000704700bf00000c4330b50d46044685b0e8
:103c6000e0b1d9b1002301220093cdf804d0029233
:103c70000b4a836003920b4ac361c0e9002301a988
:103c800000f012f82046fff7d1fe024618b9284688
:103c90000099fff79dff104605b030bd2122fae7dd
:103ca0000400002000001143836813b9816070474d
:103cb0005b685a68012afbd159607047c369042bbd
:103cc00015d84ff09842116cc902fcd504339b0003
:103cd00013650168103b116041680c30116050f8a9
:103ce000041c034411604ff09842984200d1704781
:103cf00050f8041b1160f8e70139024410b59042f6
:103d000001d1002005e0037811f8014fa34201d052
:103d1000181b10bd0130f2e70a44431e914200d146
:103d2000704710b511f8014b914203f8014ff9d1da
:103d300010bd02440346934200d1704703f8011bb3
:103d4000f9e70000ec46a0e8f05f4ff00000704794
:103d5000b0e8f05fe546080008bf0120704700bfeb
:103d600001b40248844601bc604700bf190000202e
:103d700001b40248844601bc604700bf990000209e
:103d80000200000000030000000000000001030228
:103d90000601050402010302010300000401000002
:103da0000000030202000403000000000000010301
:103db00002000100040300000000040000000000f5
:103dc0000000010200010000cc3d00083801002085
:103dd0004c010020000010000001000000800000e5
:103de0000100000064000000a00f000060e3160066
:103df0002b0000004e020000280000000a00000016
:103e0000534352319a933082ffffffffffffffffc2
:103e100000000000534352319a933082ffffffffae
:103e2000ffffffff00534352319a933082d9eb0ad0
:103e3000fc3121e3370000000a000000503e00087a
:103e4000743e00084c3e000800000000b91700084e
:103e50003526000885260008d926000825270008f1
:103e600047270008b9270008e5270008a52800080b
:103e70003b280008691f0008c1200008ad21000888
:103e800065220008b12200088d24000829250008b9
:103e90008d25000800001000000800000008000048
:103ea000040000000000000000000000000000000e
:103eb0005200000002a00000ba88000002000000ca
:103ec00000000000000000000100010002000200ec
:103ed00003000300040004000500050006000600be
:103ee0000700070008000800090009000a000a008e
:103ef0000b000b000c000c000d000d000100020077
:103f0000030004000500070009000d00110019005e
:103f100021003100410061008100c10001018101e7
:103f200001020103010401060108010c011001183e
:103f3000012001300140016003000400050006007b
:103f40000700080009000a000b000d000f00110017
:103f5000130017001b001f0023002b0033003b0041
:103f600043005300630073008300a300c300e30019
:103f7000020100000000000000000000000000003e
:103f80000000010001000100010002000200020027
:103f90000200030003000300030004000400040007
:103fa00004000500050005000500000010001100d8
:103fb0001200000008000700090006000a000500c2
:103fc0000b0004000c0003000d0002000e000100b5
:103fd0000f00010310010103030400000700000d9e
:103fe0001013001a20263038405000000000000056
:103ff0002de9f84340ea020515f0030533d1960890
:10400000eff3108772b64ff00408184ce36843f0e2
:104010000103e360b54207d3e36823f00103e360e3
:1040200007b962b600201fe000eb85036361c3f3ac
:104030000c03c3f500539b08721b934228bf134621
:104040001d4401eb8309494504d1c4f8108000f0f8
:1040500057f8dfe70b68e2691207fcd5a36104316a
:1040600000f04ef8efe70420bde8f88300000340bd
:1040700030b504468db001a80d4600f039f8039b19
:104080002268591e11422ed1296801fb0320019993
:1040900001f10061884226d81a44d11a4bb9002098
:1040a0002368039a134423602b68013b2b600db0f7
:1040b00030bd0968043b0131efd0eff3108172b6d7
:1040c0000a48c36843f00103c360236843610223c5
:1040d000036100f015f8c36823f00103c3600029f1
:1040e000ddd162b6dbe70420e1e700bf000003405a
:1040f00001b40248844601bc604700bf1530000887
:1041000001b40248844601bc604700bfd52f0008b7
:104110000b0c030000202000036a6a3c0000000032
:1041200000000000023f0400000100000000000049
:10413000c0ea2101c0ea2101c0175302008000003b
:08414000010000000000000076
:020000040800f2
:107c000000000008008000001001001000000000cb
:107c10000080000800c00300100100000500000003
:107c200000c0070800400000130000200c00000006
:107c300000400408008002001320ec8c09000000c2
:107c400000c0060800000100ba73e58a14000000b5
:107c5000000000000080050010000030120000004d
:107c60000080050000800a0080e20a8616000000fd
:020000040800f2
:107c8000123456789abcdef0123456789abcdef084
:107c9000123456789abcdef0123456789abcdef074
:020000040800f2
:1080000003b40148019001bd318000080000000068
:10801000f0ffffffffffff00100100000505005a01
:1080200000400300ffffffffffffffffffffffff19
:1080300008b50446104b83f308881048104a1149cc
:10804000121a2df07bf81048104a0021121a2df058
:108050009cf80f4a0f4b9a6022680f4b1a606268b7
:108060000e4b1a60a2680e4b1a60e2680d4b1a6044
:1080700000f01af8fee700bf0016002000160020ee
:1080800018190020a0a50308181900204875002021
:108090000016002000ed00e0201b0020281b00201f
:1080a0002c1b0020241b002008b500f0e7f802f08c
:1080b000affe1df0b1ff012021f0c9fb00f00ef86a
:1080c00021f0fefb002008bd08b500f0aff800f07d
:1080d00059f800f5742000f5107008bd7fb500f068
:1080e000b9f878b10a4b00931e238df80430094b80
:1080f0000293094bcde90330012368468df8143013
:1081000002f0befe07b05df804eb00f0ddba00bf80
:1081100080550308c980000840420f00ff207047c7
:108120004ff4007307b50a490df10602adf80630a9
:1081300024f037f8bdf80630b3f5007f05d10228ea
:1081400008bf002003b05df804fb0120fae700bf80
:108150001819002072462b214bf64f2000f056bb19
:10816000014b1860704700bf181b0020014b1b68b3
:108170001b681847181b0020014b1b685b681847d9
:10818000181b0020014b1b689b681847181b002018
:10819000014b1b685b691847181b0020014b1b68cb
:1081a0009b691847181b0020014b1b68db691847a7
:1081b000181b0020014b1b681b6a1847181b002066
:1081c000014b1b685b6a1847181b0020014b1b689a
:1081d0009b6a1847181b0020014b1b68db6a184775
:1081e000181b0020014b1b681b6b1847181b002035
:1081f000014b1b685b6b1847181b0020014b1b6869
:108200009b6b1847181b0020014b1b68db6b184742
:10821000181b0020014b1b681b6c1847181b002003
:108220004ff4007002f0a6b91020704738b500f086
:1082300033fefff79bff064d04462b68c31ab3f5c8
:10824000e14f03d900f092f800b12c6038bd00bfb7
:108250001c1b00206420704708b5064b1b68062bca
:1082600005d9054b1b681b689847007808bd01209d
:10827000fce700bf201b0020241b002010b500f0ed
:1082800047fc00f065fa4ff480302e492e4a4b6ec1
:108290005066486e4ff000414af6cd3451662b4986
:1082a00003f480334a6c0c6402f001024c6be40767
:1082b000fcd4012426494c60244c216bc907fcd511
:1082c0002449d1f8081689075ebf4ff4802420495d
:1082d000cc6512b11d4a204911640028a2bf4ff09d
:1082e00000411e4a51661bb94ff480321b4b5a663f
:1082f00002f038f900f0caf82022194b194883f827
:10830000222383f8232383f8262383f8252383f865
:10831000202383f81f2383f8242383f8282306f0df
:1083200057fa00f00df900f003fafff795ff38b1a6
:10833000002002f023f8fff719ff0b4b186010bd67
:108340000120f6e700800040009000400040094016
:108350000060094000c007403254ffff00a0004009
:1083600000e100e0218200081c1b00200120704772
:1083700070b586b001aa1546224b03f110061446cb
:1083800018685968083303c4b3422246f7d1186805
:108390001d4b20601b68072b2ed91c4c23681b68c3
:1083a0009847436843b323681b6898472a46436845
:1083b0001b6803f11006144618685968083303c493
:1083c000b3422246f7d118682060114bd3f84c21f4
:1083d00012035cbfd3f850318df80e309df80e407b
:1083e00001f026fb204480f308008df80d0028469c
:1083f00001f062fa06b070bd78238df80d308df86b
:108400000e30e2e76ca40308201b0020241b002090
:108410000080e00f1fb5194a01ab9169506903c391
:10842000918b927f19809a70154b1b68072b21d96d
:10843000144c23681b6898474368dbb123681b68aa
:10844000984743685a6801ab5168106803c31189a3
:10845000927a19809a700c4a01a8d2f84c3113f420
:10846000802304bfd2f850218df8053001f0e6fae0
:1084700004b010bd25238df80530ece76ca403088b
:10848000201b0020241b00200080e00f002103227d
:10849000254b10b5596203f500531a624ff4803230
:1084a000224bc3f88420bff34f8fbff36f8f4ff47d
:1084b0008010c3f884211e4a4ff08074506645f640
:1084c0000e001c4ac2f880001b48846251671b4999
:1084d00002f5005211674ff40052c3f88420bff335
:1084e0004f8fbff36f8fc3f88421fff741fffff772
:1084f000b3fe08b1fff78eff0321802001f050fb8f
:10850000fff7aafe28b17246692148f6897000f08b
:108510007df92022054b83f8272383f84a2383f82b
:108520004b2383f8472310bd0080004000e100e0aa
:10853000009000400040004a0050004a0f8030f890
:108540004ff040234ff4003130b5d3f89420196731
:10855000930785b04cd412f0180f4bd195064bd42d
:1085600054074bd42b4b1340002b49d112f0400140
:1085700048d1d00703d4002a14bf0521002102a846
:1085800000f00afb244b01a85a6a42f4e0225a6226
:108590005a6942f010025a6100238df804308df8b8
:1085a000053001f057fddde90245e20605d07246cf
:1085b0000b214af2701000f029f9eb0624d0724624
:1085c0000c214af2701000f021f90022124bc3f87e
:1085d000982044f00702c3f89c2005222c44013c5b
:1085e00044f00104c3f8a040c3f8942005b030bda6
:1085f0000e21c4e70421c2e70f21c0e71021bee726
:108600001121bce71321bae7002dded172460d21fe
:10861000d7e700bf800f008000ed00e008b500f054
:1086200029fb00f017f9bff34f8f0549054bca68c6
:1086300002f4e0621343cb60bff34f8f00bffde74e
:1086400000ed00e00400fa0570b5064603f0defd1b
:108650000e4d04466a0705d072464e214af270104c
:1086600000f0d4f8630705d072464f214af270102b
:1086700000f0ccf8a54205d3724650214af27010a2
:1086800000f0c4f83560601b70bd00bf4875002065
:10869000014b986c704700bf0080e00f014bd86c15
:1086a000704700bf0080e00f034b5868c0f308001c
:1086b000003818bf0120704700ed00e0014801f0cc
:1086c00078bd00bf0040004b30b5144d01212d2076
:1086d00085b000f033fe6c6814f001041bd1032256
:1086e0000f4bc3f800220f4a01ab10685168128982
:1086f00003c3284601a91a8001f06cfd9df80b30d8
:108700004bb10223084a93614ff40062eb61074bbf
:1087100083f82b435a6005b030bd00bf0040004bca
:10872000008000408ba403080060004b00e100e0e3
:1087300008b501212d2000f001fefff7bfffbde8c5
:1087400008400021014801f020bd00bf0040004b5f
:1087500000230120134a13605a09920003f01f01fd
:1087600002f1604200fa01f102f56142c2f88011a3
:10877000c2f88010bff34f8fbff36f8f01334c2bc4
:10878000ead14ff00072084bc3f88420bff34f8f3b
:10879000bff36f8fc3f88421602283f8392362b658
:1087a000704700bf341b002000e100e0684620f065
:1087b00007018d4631b5112082b000f01bfa114d32
:1087c00004462b682bb972464e214ef6a83000f0b5
:1087d0001df84ff000720c4bc3f88420bff34f8f8d
:1087e000bff36f8fc3f884212b68019300232b60a4
:1087f000019b9847204600f0fdf902b0bde83140ea
:1088000085467047301b002000e100e070b5064649
:1088100001200f4b14461a688db218609ab1334686
:108820002a4621460220fff7f9fefff747ff62b60e
:108830000a2002f0cbfa33462a462146bde87040b2
:108840000220fff7ebbefff72fff0128edd1e6e78f
:10885000381b002038b5eff308850d4c0d4b204632
:1088600040f80c3b0c4ba9b20a1a5b1a92b29bb2ad
:108870009a4228bf1a462946228165602cf05efc88
:10888000064b2846218923601cf06efb608138bdb1
:108890004004002055aa55aa00160020706d7444ab
:1088a0002de9f04f4ff0000a2a4d90f8008080f833
:1088b00000a02a68284b04469a420e4691b02dd15a
:1088c00005f10c07384629891cf04efb6b89834261
:1088d00024d1dff88cb00221dbf8003068469b69b8
:1088e0009847814608bbdbf8003000981b6901a956
:1088f0009847b0b9ddf80c9003f082fc00eb090357
:1089000000211648dff85cc057f8042b12f0010f65
:108910000dd12a89043189b28a42f5d211b0bde85d
:10892000f08f4b464ff00109eae75346fae78242df
:1089300001d3624503d39145ebd89342e9d994f82a
:1089400000e046f82e2022780132d2b24245227051
:10895000dfd3e3e740040020706d7444008000081a
:10896000281b0020b8a8030838b5092000f000fa39
:108970000a2000f0fdf90b2000f0faf9082000f0c1
:10898000f7f9114d052000f0f3f9042000f0f0f99b
:108990002a680e4b9a4215d1298905f10c001cf06a
:1089a000e3fa6b89834209d10024642002f0dcf9e8
:1089b00004342b89a4b2a342f7d203e000f09ef95d
:1089c0000428f1d038bd00bf40040020706d74440d
:1089d000eff3088141f27c635d2209208969fff78a
:1089e0001dfe0000eff308840023164ac2f89430fd
:1089f000906a154b20f06040a1691861d06a002888
:108a0000bebf186940f000401861d26a520042bff0
:108a10001a6942f080421a610a4a48bf216bd06a43
:108a2000800742bf186940f000501861906b586190
:108a3000526b0a209a6141f27c634ff41272fff785
:108a4000edfd00bf00ed00e020040020eff30883ff
:108a500000229969074bc3f89420986a064a10616e
:108a60009b6b0b20536141f27c6340f25622fff76f
:108a7000d5fd00bf00ed00e020040020eff30883e7
:108a800000229969064b0c20c3f894209a6a054b82
:108a90001a6141f27c6340f26222fff7bffd00bf22
:108aa00000ed00e020040020eff3088141f27c6338
:108ab000742203208969fff7b1fdeff3088141f2c9
:108ac0007c63792203208969fff7a8fdeff3088111
:108ad00041f27c637e2203208969fff79ffd00003d
:108ae000eff3088300229969074bc3f89420986a32
:108af000064a10615b6b0d20936141f27c634ff479
:108b00001c72fff78bfd00bf00ed00e02004002089
:108b1000064b074a598911801989064a11805988dc
:108b2000054a11801a88054b1a80704720040020de
:108b3000441b0020481b0020461b00203c1b00203b
:108b4000f8b572b60021104c104d23682022013375
:108b500023600f4bd5f894701846c5f894105e79d1
:108b60002cf013fb0b4af6b2c2610522027147f6e4
:108b70008542c2804671c5f894702368013b23602a
:108b8000236803b962b6f8bd341b002000ed00e095
:108b900020040020efbeadde70b5124b124c06462d
:108ba000e361124b0d461a602379132b0ad847f65e
:108bb0008542e3889bb2934204d141b113290dd081
:108bc000257104e0fff7bcff002325716371084b9a
:108bd00030461b6833602023736070bd2379052bfa
:108be000f5d1ede7efbeadde20040020401b0020f4
:108bf00098a40308024630b572b600200b4b0c4c0b
:108c0000196892b2013119600a49d1f89450c1f83b
:108c1000940060896281c1f894501a68c0b2013a28
:108c20001a601b6803b962b630bd00bf341b002058
:108c30002004002000ed00e010b572b600240a4bbd
:108c40001a6801321a60094ad2f89410c2f89440a6
:108c5000074c2081c2f894101a68013a1a601b6808
:108c600003b962b610bd00bf341b002000ed00e068
:108c700020040020f0b572b60d4c0e4e256801356b
:108c800025600025d6f89470c6f894500a4d2871d6
:108c9000e9606a802b8047f68543eb80c6f89470c4
:108ca0002368013b2360236803b962b6f0bd00bfaf
:108cb000341b002000ed00e02004002010b572b647
:108cc0000b4b0c491a680c4801321a600022d1f88b
:108cd0009440c1f8942042790132d2b24271c1f875
:108ce00094401a68013a1a601b6803b962b610bd55
:108cf000341b002000ed00e020040020014b187917
:108d0000704700bf20040020084b1a790a2a0bd0b4
:108d10001a790b2a08d01a790c2a05d01879a0f1f3
:108d20000d0358425841704701207047200400202d
:108d3000064b1a790a2a02d01a790b2a03d118692c
:108d4000c0f3c03070470020704700bf20040020ef
:108d5000064b1a790a2a02d01a790d2a03d118690a
:108d6000c0f3c01070470020704700bf20040020ef
:108d700008b50b2828d8dfe800f030303030060680
:108d80000c30151b1f23164b1879831f584258416e
:108d900008bd144b1888013880b212288cbf0020ff
:108da0000120f5e7104b1868003818bf0120efe7e5
:108db000bde80840fff7a8bfbde80840fff7b8bf0f
:108dc000bde80840fff7c4bf724641f27c6040f244
:108dd000cf11fff71bfd0020dae70120d8e700bf25
:108de00020040020441b0020401b002008b50b2855
:108df0003ed8dfe800f0060a0d0f12181e242629bf
:108e000030361f4b5879c0b208bd1e4b1888fbe79f
:108e10001d4bfbe71a4bd868f6e7194b1a79062a5f
:108e200024d00020f0e7164b1a79062af9d15869a8
:108e3000eae7164b1888431e122bf2d8e4e7144bce
:108e4000e4e7144b1868dfe7fff75eff0028e8d07f
:108e50000b4b1869d8e7fff76bff0028e1d0084bf0
:108e6000e5e7fff775ff0028dbd0054b9869cbe7f6
:108e7000724640f21b2141f27c60fff7c7fcd0e74d
:108e8000200400203c1b0020461b0020441b002027
:108e9000481b0020401b0020064bda69064b9a4213
:108ea00006d0724640f2222141f27c60fff7aebc50
:108eb000704700bf20040020efbeadde4ff040231e
:108ec000d3f88420d206fbd4d3f88400c0f38110f9
:108ed0007047000038b5174b0546d3f820310c46d3
:108ee00003f00703013b052b20d8dfe803f0030b59
:108ef000130f171b01f0b2f9052305b1286004b167
:108f0000237038bd01f0e0f90323f6e701f0e8f93a
:108f10000723f2e701f0e0f90223eee701f09ef902
:108f20000623eae701f0d0f90423e6e70023184618
:108f3000e3e700bf0080004038b5124b0546d3f888
:108f400028310c4603f00703013b032b17d8dfe859
:108f500003f0020e120a01f081f9052305b1286021
:108f600004b1237038bd01f0bbf90723f6e701f027
:108f7000abf90323f2e701f0aff90223eee7002398
:108f80001846ebe70080004073b50d460021124af9
:108f90000191d2f88041064604f00304022c13d05c
:108fa000032c0cd0012c14d101a8fff793ff0f2341
:108fb0000eb1019a326005b12b7002b070bd01f0a4
:108fc0008ff907230190f3e701f086f9234601901a
:108fd000eee70b46ece700bf00800040002337b50a
:108fe0000193154b0546d3f820320c4603f00703d6
:108ff000013b032b1ed8dfe803f0020e13180021fb
:1090000001a8fff799ff11230db1019a2a6004b15d
:10901000237003b030bd01f063f907230190f3e73b
:1090200001f0a0f90a230190eee701f0a1f909236c
:109030000190e9e70023e7e70080004038b5104bd6
:109040000546d3f840310c4603f00303022b0bd046
:10905000032b0dd0012b0fd101f084f90a2305b1a8
:10906000286004b1237038bd01f082f90923f6e7c6
:1090700001f07bf90b23f2e700231846efe700bf6e
:1090800000800040002337b50193164b0546d3f806
:1090900060320c4603f00703013b032b1fd8dfe8c7
:1090a00003f0020e1914002101a8fff713ff0f238c
:1090b0000db1019a2a6004b1237003b030bd0021c4
:1090c00001a8fff7bbff1023f2e701f009f907231e
:1090d0000190ede701f000f902230190e8e7002399
:1090e000e6e700bf0080004038b5134b0546d3f8d3
:1090f00000320c4603f00703013b032b18d8dfe8ce
:1091000003f0020a0e1201f02df90a2305b12860be
:1091100004b1237038bd01f02bf90923f6e701f003
:1091200024f90b23f2e701f0b9f80e23800aede7ea
:1091300000231846eae700bf0080004038b5134b13
:109140000546d3f808320c4603f00703013b032b16
:1091500018d8dfe803f0020a0e1201f003f90a231f
:1091600005b1286004b1237038bd01f001f909236d
:10917000f6e701f0faf80b23f2e701f08ff80e237f
:10918000800aede700231846eae700bf00800040b0
:1091900038b5104b0546d3f840320c4603f00303b4
:1091a000022b0bd0032b0dd0012b0fd101f0daf8dd
:1091b0000a2305b1286004b1237038bd01f0d8f846
:1091c0000923f6e701f0d1f80b23f2e70023184654
:1091d000efe700bf0080004038b5104b0546d3f8dc
:1091e00050320c4603f00303022b12d0032b08d09d
:1091f000012b0ad00023184605b1286004b1237062
:1092000038bd01f0b2f80b23f6e701f0abf80a2302
:10921000f2e701f0adf80923eee700bf008000405f
:1092200038b5104b0546d3f860310c4603f0030304
:10923000022b0bd0032b0dd0012b0fd101f092f894
:109240000a2305b1286004b1237038bd01f090f8fd
:109250000923f6e701f089f80b23f2e7002318460b
:10926000efe700bf0080004070b5054614460e468b
:1092700000f07eff296881ea040202ea06044c40fd
:109280002c60bde8704000f077bf0000b0f5207f93
:109290001fd009d8b0f5007f15d003d868b1b0f55c
:1092a000c07f0ad000200ce0b0f5607ffad10b4bf4
:1092b000d3f88000c0f3011003e0084b186fc0f32f
:1092c000033001307047054bd3f89000c0f30460c1
:1092d000f7e7024b186fc0f38020f2e700800040f0
:1092e0004ff4803238b50e4b05469a660020fff7e2
:1092f000cdff0c4b6843dc690b4d144041f67132d5
:10930000da635a68a84222f4401203d9012918bf2f
:1093100042f480125a600cb10022da6338bd00bffb
:109320000090004000000340005a620208b500f0bf
:10933000c7ffbde808400021fff7d2bf430905d0b1
:10934000012b0dd0022b094b18bf002300f01f008a
:1093500041b103f58053012202fa00f01860704712
:10936000034bf3e703f50053f5e700bf68800040c7
:10937000648000401fb504460020b4f5807f029051
:1093800000f0f5806bd8002c00f0d580203ca3b213
:10939000602b74d8602c72d8dfe814f0cd00d000b8
:1093a000cd00d000df00df00df00df00df00d000f5
:1093b000e4007a00fb009a007a00d000d000d000d0
:1093c0007100710071007100710071007100fb008b
:1093d000d000d000d00023010001d0007100710046
:1093e00071007100710071007100710071007100f5
:1093f000710071000501df00cd00cd00cd00ad0092
:109400007a007a00b5000a018f00c400c400710020
:1094100071007100710071007100710071007100c4
:1094200071007100710071007100710071007100b4
:1094300071007100710071007100710071007100a4
:109440007100710071007100710071007100710094
:10945000710071007100710071007100c900b4f5f4
:10946000e06f00f09b8038d8b4f5607f70d01ad8d8
:10947000b4f5007f6cd005d8b4f5c07f5bd00298fe
:1094800004b010bdb4f5207f58d0b4f5407ff6d1bc
:1094900000f004ff02464ff42070fff7f7feb2fb26
:1094a000f0f0400845e0b4f5b06f5bd00ad8b4f5f1
:1094b000806f52d0b4f5a06fe1d1002102a8fff770
:1094c0008dfddce7b4f5c06f63d0b4f5d06fd6d1b5
:1094d000002102a8fff708fed1e7b4f5286f67d096
:1094e00016d8b4f5186f5ed00ad8b4f5f06f78d0fe
:1094f000b4f5106fc3d1002102a8fff71ffebee72d
:10950000b4f5206fbbd1002102a8fff7bbfdb6e781
:10951000b4f5306f56d0b2d3b4f5386f39d0b4f556
:10952000406facd1002102a8fff706fda7e700f0cd
:109530009bfe0290a3e700f0b1fefae700f0aefe5a
:1095400002464ff42070fff7a1feb2fbf0f0f0e707
:1095500000f08afe02462046f5e7002102a8fff748
:10956000b9fc8ce7002102a8fff70efd87e74ff05a
:10957000e02303901b695b0705d500f08ffe039085
:10958000039b02937be70df1070103a8fff756fd4c
:10959000f6e7002102a8fff751fd70e7002102a8bd
:1095a000fff7f6fd6be7002102a8fff715fe66e75f
:1095b00000210e4b0391d3f8703203f00303012b0b
:1095c000ded1e2e7094bd3f8903203f00303012b1d
:1095d00004d0022badd100f083feaae700f07cfea0
:1095e000a7e7002102a8fff71bfe48e70080004024
:1095f00008b58020fff7befe034b98429ebf4ff494
:109600008032024b1a6708bd005a620200a0004077
:10961000002307b5b0f5807f8df8023000f0d480cc
:1096200079d858286ad8382808d8243883b2092b22
:109630004ad99df8020003b05df804fb39381f28b1
:10964000f7d801a353f820f0f197000833960008eb
:109650003396000833960008fd97000847980008e5
:1096600033960008339600083396000833960008b6
:1096700033960008339600083396000833960008a6
:109680003396000833960008339600083396000896
:1096900033960008539800083d9700083396000859
:1096a0003396000833960008859700083396000823
:1096b000339600085f9800086b9800083b980008f4
:1096c000a9970008a99700080928b2d801a353f860
:1096d00020f000bf3d9700083d9700083d97000827
:1096e0003d9700083d97000833960008bd97000895
:1096f00033960008f19700085d970008802898d1fc
:109700006c4b1b6f03f00703013b032b91d8dfe881
:1097100003f0ce518890b0f5086f75d024d8b0f51d
:10972000c06f65d010d8b0f5a06f00f08680b0f59e
:10973000b06f43d0b0f5806f7ff47baf00200df1a8
:109740000201fff7c7fb74e7b0f5e06f7bd0b0f51f
:10975000f06f53d0b0f5d06f7ff46baf00200df1f8
:109760000201fff7c1fc64e7b0f5286f7dd00fd888
:10977000b0f5186f6dd0b0f5206f70d0b0f5106fe8
:109780007ff457af00200df10201fff7d7fc50e73f
:10979000b0f5306f7cd0fff44cafb0f5386f27d008
:1097a000b0f5406f7ff445af00200df10201fff7e7
:1097b000c3fb3ee705238df802303ae700200df1a8
:1097c0000201fff7e1fb34e701934ff0e0231b694f
:1097d0005b0707d500f062fd0c238df803309df880
:1097e0000330e8e70df1030101a8fff727fcf6e7d6
:1097f00000200df10201fff721fc1ae700200df116
:109800000201fff70dfd14e72a4bd3f8003103f0f6
:109810000303022b07d0032b09d0012b0bd100f03f
:1098200053fd0323c7e700f0a3fd0923c3e700f0be
:1098300051fd0823bfe70123bde700200df1020120
:10984000fff7ccfbf5e600200df10201fff7a0fccd
:10985000efe600200df10201fff7befce9e6002073
:109860000df10201fff70efce3e60021114b01911f
:10987000d3f8703203f00303012b04d0022b14bf82
:109880000b46142397e701a8fff7d8fb102392e7b4
:10989000084ad2f8902202f00302012a05d0022ad7
:1098a00089d100f01dfd072385e700f015fd022397
:1098b00081e700bf0080004070b504468020fff7bc
:1098c000a7fe032800f083804ff480124f4b504ec8
:1098d0005a6645f60e034ff0a062c6f880304d4b35
:1098e0009a624ff4803203f580539a62b56d15f495
:1098f0008035fbd1637822781b0543ea0263a279a5
:109900004ff440611343e278434843ea024322792b
:1099100043ea0233627943ea82133361b369e27a3c
:1099200003f000431343e27943ea8263227a43ea75
:109930000263627a43ea0243a27a43ea0223b361f2
:109940004ff40062fff790fc617b336a002918bf77
:109950000825227b23f00f0343ea010343ea820335
:109960002b4a45ea030515622c4d31d1a37c916a3f
:10997000a07bdb000d4043ea4013e17b2b4343ea2d
:10998000011343f480339362254b916d33ea010157
:10999000fbd14ff080711f4881621369a57823f4d1
:1099a000700343ea055313614ff000438361237c46
:1099b0000bb91c4b9962637c1bb94ff48032194b75
:1099c0009a62e37c1bb1124b174ac3f8802070bd2a
:1099d000022909d100234ff47f4113611348936199
:1099e0004ff40852fff740fc0949237c8a6aa07ba8
:1099f0001b062a4043ea40131343a27c43eac203f6
:109a0000627c43ea02438b62dbe700bf00900040c8
:109a10000040004a0050004a3840004ac7fffefe9e
:109a2000030001000060004af1a7ffff3440004a34
:109a3000014b93f900007047e0170020f0b54ff498
:109a400000061b4a41788478c378057856664ff43f
:109a5000d156022702f5b8325662164e4f2977606a
:109a60004ff0010728bf4f2106f580567760166931
:109a7000f603fcd441ea052151611b01417943ea17
:109a800004230b43017943ea41039360c37981794d
:109a90001b0143ea4113417a0b43017a43ea410334
:109aa0005360837a13b16ff4d1535362f0bd00bf9a
:109ab00000900040001002400029ccbf012100218d
:109ac000fff70ebcb0f5207f10b50c4642d008d889
:109ad000b0f5007f33d003d888b1b0f5c07f0ed089
:109ae00010bdb0f5607ffbd11f4b013cd3f8801057
:109af00021f0300141ea0414c3f88040f0e7fff799
:109b000015fc00f035f84ff48031184a164b1167f8
:109b1000196f013c21f4704141ea04341c6700f0e4
:109b2000bdfb0446fff7caf9c0f102012046fff76a
:109b3000c3ff00f023f8bde81040fff759bd0a4b02
:109b4000013cd3f8901021f0f85141ea0464c3f8c5
:109b50009040c5e7044b013c196f21f4806141ea54
:109b600084241c67bce700bf0080004000900040d8
:109b700002214ff42070fff7a5bf000008b54ff495
:109b8000c070fff7f7fbbde80840044988428cbf6e
:109b9000022101214ff42070fff794bf80f0fa02f8
:109ba000b0f5807ff8b50c4600f0538174d8582882
:109bb00066d8382804d8243883b2092b46d9f8bd92
:109bc00039381f28fbd801a353f820f0c59e0008a0
:109bd000bf9b0008bf9b0008bf9b0008e79e0008d2
:109be0004d9f0008bf9b0008bf9b0008bf9b00085b
:109bf000bf9b0008bf9b0008bf9b0008bf9b0008dd
:109c0000bf9b0008bf9b0008bf9b0008bf9b0008cc
:109c1000bf9b0008bf9b00086f9f0008c59c000801
:109c2000bf9b0008bf9b0008bf9b0008439d000826
:109c3000bf9b0008bf9b0008d59f0008f79f000846
:109c40002b9f0008819d0008819d00080928b6d837
:109c500001a353f820f000bfc59c0008c59c000874
:109c6000c59c0008c59c0008c59c0008bf9b000857
:109c7000319e0008bf9b0008c59e0008ff9c00089d
:109c800080289cd18b1e062b00f2cf80dfe803f0ea
:109c9000cab8cd89cdcdc700b0f5086f00f03481ca
